{
  "contractName": "RBTCWrapperProxy",
  "abi": [
    {
      "inputs": [
        {
          "internalType": "address",
          "name": "_wrbtcTokenAddress",
          "type": "address"
        },
        {
          "internalType": "address",
          "name": "_sovrynSwapNetworkAddress",
          "type": "address"
        }
      ],
      "payable": false,
      "stateMutability": "nonpayable",
      "type": "constructor"
    },
    {
      "anonymous": false,
      "inputs": [
        {
          "indexed": true,
          "internalType": "address",
          "name": "_provider",
          "type": "address"
        },
        {
          "indexed": true,
          "internalType": "uint256",
          "name": "_reserveAmount",
          "type": "uint256"
        },
        {
          "indexed": true,
          "internalType": "uint256",
          "name": "_poolTokenAmount",
          "type": "uint256"
        }
      ],
      "name": "LiquidityAdded",
      "type": "event"
    },
    {
      "anonymous": false,
      "inputs": [
        {
          "indexed": true,
          "internalType": "address",
          "name": "_provider",
          "type": "address"
        },
        {
          "indexed": true,
          "internalType": "uint256",
          "name": "_reserveAmount",
          "type": "uint256"
        },
        {
          "indexed": true,
          "internalType": "uint256",
          "name": "_poolTokenAmount",
          "type": "uint256"
        }
      ],
      "name": "LiquidityRemoved",
      "type": "event"
    },
    {
      "anonymous": false,
      "inputs": [
        {
          "indexed": true,
          "internalType": "address",
          "name": "_beneficiary",
          "type": "address"
        },
        {
          "indexed": true,
          "internalType": "uint256",
          "name": "_sourceTokenAmount",
          "type": "uint256"
        },
        {
          "indexed": true,
          "internalType": "uint256",
          "name": "_targetTokenAmount",
          "type": "uint256"
        },
        {
          "indexed": false,
          "internalType": "contract IERC20Token[]",
          "name": "_path",
          "type": "address[]"
        }
      ],
      "name": "TokenConverted",
      "type": "event"
    },
    {
      "payable": true,
      "stateMutability": "payable",
      "type": "fallback"
    },
    {
      "constant": true,
      "inputs": [],
      "name": "sovrynSwapNetworkAddress",
      "outputs": [
        {
          "internalType": "address",
          "name": "",
          "type": "address"
        }
      ],
      "payable": false,
      "stateMutability": "view",
      "type": "function"
    },
    {
      "constant": true,
      "inputs": [],
      "name": "wrbtcTokenAddress",
      "outputs": [
        {
          "internalType": "address",
          "name": "",
          "type": "address"
        }
      ],
      "payable": false,
      "stateMutability": "view",
      "type": "function"
    },
    {
      "constant": false,
      "inputs": [
        {
          "internalType": "address",
          "name": "_liquidityPoolConverterAddress",
          "type": "address"
        },
        {
          "internalType": "uint256",
          "name": "_amount",
          "type": "uint256"
        },
        {
          "internalType": "uint256",
          "name": "_minReturn",
          "type": "uint256"
        }
      ],
      "name": "addLiquidity",
      "outputs": [
        {
          "internalType": "uint256",
          "name": "",
          "type": "uint256"
        }
      ],
      "payable": true,
      "stateMutability": "payable",
      "type": "function"
    },
    {
      "constant": false,
      "inputs": [
        {
          "internalType": "address",
          "name": "_liquidityPoolConverterAddress",
          "type": "address"
        },
        {
          "internalType": "uint256",
          "name": "_amount",
          "type": "uint256"
        },
        {
          "internalType": "uint256",
          "name": "_minReturn",
          "type": "uint256"
        }
      ],
      "name": "removeLiquidity",
      "outputs": [
        {
          "internalType": "uint256",
          "name": "",
          "type": "uint256"
        }
      ],
      "payable": false,
      "stateMutability": "nonpayable",
      "type": "function"
    },
    {
      "constant": false,
      "inputs": [
        {
          "internalType": "contract IERC20Token[]",
          "name": "_path",
          "type": "address[]"
        },
        {
          "internalType": "uint256",
          "name": "_amount",
          "type": "uint256"
        },
        {
          "internalType": "uint256",
          "name": "_minReturn",
          "type": "uint256"
        }
      ],
      "name": "convertByPath",
      "outputs": [
        {
          "internalType": "uint256",
          "name": "",
          "type": "uint256"
        }
      ],
      "payable": true,
      "stateMutability": "payable",
      "type": "function"
    }
  ],
  "bytecode": "0x60806040523480156200001157600080fd5b5060405162001d3738038062001d37833981810160405260408110156200003757600080fd5b810190808051906020019092919080519060200190929190505050816200007f8173ffffffffffffffffffffffffffffffffffffffff166200021d60201b620019961760201c565b620000f2576040517f08c379a000000000000000000000000000000000000000000000000000000000815260040180806020018281038252601d8152602001807f5468652061646472657373206973206e6f74206120636f6e747261637400000081525060200191505060405180910390fd5b816200011f8173ffffffffffffffffffffffffffffffffffffffff166200021d60201b620019961760201c565b62000192576040517f08c379a000000000000000000000000000000000000000000000000000000000815260040180806020018281038252601d8152602001807f5468652061646472657373206973206e6f74206120636f6e747261637400000081525060200191505060405180910390fd5b836000806101000a81548173ffffffffffffffffffffffffffffffffffffffff021916908373ffffffffffffffffffffffffffffffffffffffff16021790555082600160006101000a81548173ffffffffffffffffffffffffffffffffffffffff021916908373ffffffffffffffffffffffffffffffffffffffff1602179055505050505062000269565b60008060007fc5d2460186f7233c927e7db2dcc703c0e500b653ca82273b7bfad8045d85a47060001b9050833f91508082141580156200026057506000801b8214155b92505050919050565b611abe80620002796000396000f3fe60806040526004361061004a5760003560e01c80632f6b600d146100f157806343fe0f0d1461014857806355776b771461019f578063b37a48311461020b578063e38192e3146102eb575b3373ffffffffffffffffffffffffffffffffffffffff166000809054906101000a900473ffffffffffffffffffffffffffffffffffffffff1673ffffffffffffffffffffffffffffffffffffffff16146100ef576040517f08c379a00000000000000000000000000000000000000000000000000000000081526004018080602001828103825260298152602001806119e26029913960400191505060405180910390fd5b005b3480156100fd57600080fd5b50610106610364565b604051808273ffffffffffffffffffffffffffffffffffffffff1673ffffffffffffffffffffffffffffffffffffffff16815260200191505060405180910390f35b34801561015457600080fd5b5061015d610389565b604051808273ffffffffffffffffffffffffffffffffffffffff1673ffffffffffffffffffffffffffffffffffffffff16815260200191505060405180910390f35b6101f5600480360360608110156101b557600080fd5b81019080803573ffffffffffffffffffffffffffffffffffffffff16906020019092919080359060200190929190803590602001909291905050506103af565b6040518082815260200191505060405180910390f35b6102d56004803603606081101561022157600080fd5b810190808035906020019064010000000081111561023e57600080fd5b82018360208201111561025057600080fd5b8035906020019184602083028401116401000000008311171561027257600080fd5b919080806020026020016040519081016040528093929190818152602001838360200280828437600081840152601f19601f82011690508083019250505050505050919291929080359060200190929190803590602001909291905050506109e9565b6040518082815260200191505060405180910390f35b3480156102f757600080fd5b5061034e6004803603606081101561030e57600080fd5b81019080803573ffffffffffffffffffffffffffffffffffffffff1690602001909291908035906020019092919080359060200190929190505050611527565b6040518082815260200191505060405180910390f35b6000809054906101000a900473ffffffffffffffffffffffffffffffffffffffff1681565b600160009054906101000a900473ffffffffffffffffffffffffffffffffffffffff1681565b6000836103d18173ffffffffffffffffffffffffffffffffffffffff16611996565b610443576040517f08c379a000000000000000000000000000000000000000000000000000000000815260040180806020018281038252601d8152602001807f5468652061646472657373206973206e6f74206120636f6e747261637400000081525060200191505060405180910390fd5b34841461049b576040517f08c379a0000000000000000000000000000000000000000000000000000000008152600401808060200182810382526034815260200180611a566034913960400191505060405180910390fd5b600085905060008173ffffffffffffffffffffffffffffffffffffffff16635768adcf6000809054906101000a900473ffffffffffffffffffffffffffffffffffffffff166040518263ffffffff1660e01b8152600401808273ffffffffffffffffffffffffffffffffffffffff1673ffffffffffffffffffffffffffffffffffffffff16815260200191505060206040518083038186803b15801561054057600080fd5b505afa158015610554573d6000803e3d6000fd5b505050506040513d602081101561056a57600080fd5b8101908080519060200190929190505050905060008060009054906101000a900473ffffffffffffffffffffffffffffffffffffffff1673ffffffffffffffffffffffffffffffffffffffff16876040516024016040516020818303038152906040527fd0e30db0000000000000000000000000000000000000000000000000000000007bffffffffffffffffffffffffffffffffffffffffffffffffffffffff19166020820180517bffffffffffffffffffffffffffffffffffffffffffffffffffffffff83818316178352505050506040518082805190602001908083835b6020831061066e578051825260208201915060208101905060208303925061064b565b6001836020036101000a03801982511681845116808217855250505050505090500191505060006040518083038185875af1925050503d80600081146106d0576040519150601f19603f3d011682016040523d82523d6000602084013e6106d5565b606091505b50509050806106e357600080fd5b60008060009054906101000a900473ffffffffffffffffffffffffffffffffffffffff1673ffffffffffffffffffffffffffffffffffffffff1663095ea7b38a8a6040518363ffffffff1660e01b8152600401808373ffffffffffffffffffffffffffffffffffffffff1673ffffffffffffffffffffffffffffffffffffffff16815260200182815260200192505050602060405180830381600087803b15801561078d57600080fd5b505af11580156107a1573d6000803e3d6000fd5b505050506040513d60208110156107b757600080fd5b81019080805190602001909291905050509050806107d457600080fd5b60008473ffffffffffffffffffffffffffffffffffffffff166355776b776000809054906101000a900473ffffffffffffffffffffffffffffffffffffffff168b8b6040518463ffffffff1660e01b8152600401808473ffffffffffffffffffffffffffffffffffffffff1673ffffffffffffffffffffffffffffffffffffffff1681526020018381526020018281526020019350505050602060405180830381600087803b15801561088657600080fd5b505af115801561089a573d6000803e3d6000fd5b505050506040513d60208110156108b057600080fd5b8101908080519060200190929190505050905060008473ffffffffffffffffffffffffffffffffffffffff1663a9059cbb33846040518363ffffffff1660e01b8152600401808373ffffffffffffffffffffffffffffffffffffffff1673ffffffffffffffffffffffffffffffffffffffff16815260200182815260200192505050602060405180830381600087803b15801561094c57600080fd5b505af1158015610960573d6000803e3d6000fd5b505050506040513d602081101561097657600080fd5b810190808051906020019092919050505090508061099357600080fd5b818a3373ffffffffffffffffffffffffffffffffffffffff167fac1d76749e5447b7b16f5ab61447e1bd502f3bb4807af3b28e620d1700a6ee4560405160405180910390a4819750505050505050509392505050565b600080600160009054906101000a900473ffffffffffffffffffffffffffffffffffffffff16905060003414610f94576000809054906101000a900473ffffffffffffffffffffffffffffffffffffffff1673ffffffffffffffffffffffffffffffffffffffff1685600081518110610a5e57fe5b602002602001015173ffffffffffffffffffffffffffffffffffffffff1614610ad2576040517f08c379a000000000000000000000000000000000000000000000000000000000815260040180806020018281038252602a815260200180611a0b602a913960400191505060405180910390fd5b348414610b2a576040517f08c379a0000000000000000000000000000000000000000000000000000000008152600401808060200182810382526034815260200180611a566034913960400191505060405180910390fd5b60008060009054906101000a900473ffffffffffffffffffffffffffffffffffffffff1673ffffffffffffffffffffffffffffffffffffffff16856040516024016040516020818303038152906040527fd0e30db0000000000000000000000000000000000000000000000000000000007bffffffffffffffffffffffffffffffffffffffffffffffffffffffff19166020820180517bffffffffffffffffffffffffffffffffffffffffffffffffffffffff83818316178352505050506040518082805190602001908083835b60208310610c1b5780518252602082019150602081019050602083039250610bf8565b6001836020036101000a03801982511681845116808217855250505050505090500191505060006040518083038185875af1925050503d8060008114610c7d576040519150601f19603f3d011682016040523d82523d6000602084013e610c82565b606091505b5050905080610c9057600080fd5b60008060009054906101000a900473ffffffffffffffffffffffffffffffffffffffff1673ffffffffffffffffffffffffffffffffffffffff1663095ea7b3600160009054906101000a900473ffffffffffffffffffffffffffffffffffffffff16886040518363ffffffff1660e01b8152600401808373ffffffffffffffffffffffffffffffffffffffff1673ffffffffffffffffffffffffffffffffffffffff16815260200182815260200192505050602060405180830381600087803b158015610d5c57600080fd5b505af1158015610d70573d6000803e3d6000fd5b505050506040513d6020811015610d8657600080fd5b8101908080519060200190929190505050905080610da357600080fd5b60008373ffffffffffffffffffffffffffffffffffffffff1663b77d239b898989336000806040518763ffffffff1660e01b815260040180806020018781526020018681526020018573ffffffffffffffffffffffffffffffffffffffff1673ffffffffffffffffffffffffffffffffffffffff1681526020018473ffffffffffffffffffffffffffffffffffffffff1673ffffffffffffffffffffffffffffffffffffffff168152602001838152602001828103825288818151815260200191508051906020019060200280838360005b83811015610e90578082015181840152602081019050610e75565b50505050905001975050505050505050602060405180830381600087803b158015610eba57600080fd5b505af1158015610ece573d6000803e3d6000fd5b505050506040513d6020811015610ee457600080fd5b8101908080519060200190929190505050905080873373ffffffffffffffffffffffffffffffffffffffff167f5daafc2a274db45810c7f56e73b2a0a2b99bb148d2f5b8ba5d5d935099e978ca8b6040518080602001828103825283818151815260200191508051906020019060200280838360005b83811015610f75578082015181840152602081019050610f5a565b505050509050019250505060405180910390a480945050505050611520565b6000809054906101000a900473ffffffffffffffffffffffffffffffffffffffff1673ffffffffffffffffffffffffffffffffffffffff1685600187510381518110610fdc57fe5b602002602001015173ffffffffffffffffffffffffffffffffffffffff1614611050576040517f08c379a0000000000000000000000000000000000000000000000000000000008152600401808060200182810382526021815260200180611a356021913960400191505060405180910390fd5b60008560008151811061105f57fe5b6020026020010151905060008173ffffffffffffffffffffffffffffffffffffffff166323b872dd3330896040518463ffffffff1660e01b8152600401808473ffffffffffffffffffffffffffffffffffffffff1673ffffffffffffffffffffffffffffffffffffffff1681526020018373ffffffffffffffffffffffffffffffffffffffff1673ffffffffffffffffffffffffffffffffffffffff1681526020018281526020019350505050602060405180830381600087803b15801561112657600080fd5b505af115801561113a573d6000803e3d6000fd5b505050506040513d602081101561115057600080fd5b810190808051906020019092919050505090508061116d57600080fd5b60008273ffffffffffffffffffffffffffffffffffffffff1663095ea7b3600160009054906101000a900473ffffffffffffffffffffffffffffffffffffffff16896040518363ffffffff1660e01b8152600401808373ffffffffffffffffffffffffffffffffffffffff1673ffffffffffffffffffffffffffffffffffffffff16815260200182815260200192505050602060405180830381600087803b15801561121857600080fd5b505af115801561122c573d6000803e3d6000fd5b505050506040513d602081101561124257600080fd5b810190808051906020019092919050505090508061125f57600080fd5b60008473ffffffffffffffffffffffffffffffffffffffff1663b77d239b8a8a8a306000806040518763ffffffff1660e01b815260040180806020018781526020018681526020018573ffffffffffffffffffffffffffffffffffffffff1673ffffffffffffffffffffffffffffffffffffffff1681526020018473ffffffffffffffffffffffffffffffffffffffff1673ffffffffffffffffffffffffffffffffffffffff168152602001838152602001828103825288818151815260200191508051906020019060200280838360005b8381101561134c578082015181840152602081019050611331565b50505050905001975050505050505050602060405180830381600087803b15801561137657600080fd5b505af115801561138a573d6000803e3d6000fd5b505050506040513d60208110156113a057600080fd5b810190808051906020019092919050505090506000809054906101000a900473ffffffffffffffffffffffffffffffffffffffff1673ffffffffffffffffffffffffffffffffffffffff16632e1a7d4d826040518263ffffffff1660e01b815260040180828152602001915050600060405180830381600087803b15801561142757600080fd5b505af115801561143b573d6000803e3d6000fd5b505050503373ffffffffffffffffffffffffffffffffffffffff166108fc829081150290604051600060405180830381858888f19350505050158015611485573d6000803e3d6000fd5b5080883373ffffffffffffffffffffffffffffffffffffffff167f5daafc2a274db45810c7f56e73b2a0a2b99bb148d2f5b8ba5d5d935099e978ca8c6040518080602001828103825283818151815260200191508051906020019060200280838360005b838110156115045780820151818401526020810190506114e9565b505050509050019250505060405180910390a480955050505050505b9392505050565b6000836115498173ffffffffffffffffffffffffffffffffffffffff16611996565b6115bb576040517f08c379a000000000000000000000000000000000000000000000000000000000815260040180806020018281038252601d8152602001807f5468652061646472657373206973206e6f74206120636f6e747261637400000081525060200191505060405180910390fd5b600085905060008173ffffffffffffffffffffffffffffffffffffffff16635768adcf6000809054906101000a900473ffffffffffffffffffffffffffffffffffffffff166040518263ffffffff1660e01b8152600401808273ffffffffffffffffffffffffffffffffffffffff1673ffffffffffffffffffffffffffffffffffffffff16815260200191505060206040518083038186803b15801561166057600080fd5b505afa158015611674573d6000803e3d6000fd5b505050506040513d602081101561168a57600080fd5b8101908080519060200190929190505050905060008173ffffffffffffffffffffffffffffffffffffffff166323b872dd33308a6040518463ffffffff1660e01b8152600401808473ffffffffffffffffffffffffffffffffffffffff1673ffffffffffffffffffffffffffffffffffffffff1681526020018373ffffffffffffffffffffffffffffffffffffffff1673ffffffffffffffffffffffffffffffffffffffff1681526020018281526020019350505050602060405180830381600087803b15801561175a57600080fd5b505af115801561176e573d6000803e3d6000fd5b505050506040513d602081101561178457600080fd5b81019080805190602001909291905050509050806117a157600080fd5b60008373ffffffffffffffffffffffffffffffffffffffff1663e38192e3848a8a6040518463ffffffff1660e01b8152600401808473ffffffffffffffffffffffffffffffffffffffff1673ffffffffffffffffffffffffffffffffffffffff1681526020018381526020018281526020019350505050602060405180830381600087803b15801561183257600080fd5b505af1158015611846573d6000803e3d6000fd5b505050506040513d602081101561185c57600080fd5b810190808051906020019092919050505090506000809054906101000a900473ffffffffffffffffffffffffffffffffffffffff1673ffffffffffffffffffffffffffffffffffffffff16632e1a7d4d826040518263ffffffff1660e01b815260040180828152602001915050600060405180830381600087803b1580156118e357600080fd5b505af11580156118f7573d6000803e3d6000fd5b505050503373ffffffffffffffffffffffffffffffffffffffff166108fc829081150290604051600060405180830381858888f19350505050158015611941573d6000803e3d6000fd5b5087813373ffffffffffffffffffffffffffffffffffffffff167f96cd817c6329656790ef8fba7675405193677d39619571282f5e21f3a98cd05960405160405180910390a480955050505050509392505050565b60008060007fc5d2460186f7233c927e7db2dcc703c0e500b653ca82273b7bfad8045d85a47060001b9050833f91508082141580156119d857506000801b8214155b9250505091905056fe4f6e6c792063616e207265636569766520724254432066726f6d20575242544320636f6e747261637456616c7565206d6179206f6e6c792062652073656e7420666f72205752425443207472616e73666572734974206f6e6c7920636f756c64206265207377617070656420746f2057524254435468652070726f766964656420616d6f756e742073686f756c64206265206964656e746963616c20746f206d73672e76616c7565a265627a7a723158202b720ed378eb574ac5680c0d05aa61df4557b367c9c4b03d32876d0ad55a1d9564736f6c63430005100032",
  "source": "pragma solidity >=0.5.0 <0.6.0;\n\nimport \"./openzeppelin/Address.sol\";\nimport \"./interfaces/IWrbtcERC20.sol\";\nimport \"./interfaces/ILiquidityPoolV2Converter.sol\";\nimport \"./interfaces/ISmartToken.sol\";\nimport \"./interfaces/ISovrynSwapNetwork.sol\";\nimport \"./interfaces/IERC20Token.sol\";\n\ncontract RBTCWrapperProxy{\n    \n    using Address for address;\n    \n    address public wrbtcTokenAddress;\n    address public sovrynSwapNetworkAddress;\n    \n    /**\n     * @dev triggered after liquidity is added\n     *\n     * @param  _provider           liquidity provider\n     * @param  _reserveAmount      provided reserve token amount\n     * @param  _poolTokenAmount    minted pool token amount\n     */\n    event LiquidityAdded(\n        address indexed _provider,\n        uint256 indexed _reserveAmount,\n        uint256 indexed _poolTokenAmount\n    );\n\n    /**\n     * @dev triggered after liquidity is removed\n     *\n     * @param  _provider           liquidity provider\n     * @param  _reserveAmount      added reserve token amount\n     * @param  _poolTokenAmount    burned pool token amount\n     */\n    event LiquidityRemoved(\n        address indexed _provider,\n        uint256 indexed _reserveAmount,\n        uint256 indexed _poolTokenAmount\n    );\n\n    /**\n     * @dev triggered after liquidity is removed\n     *\n     * @param _beneficiary          account that will receive the conversion result or 0x0 to send the result to the sender account\n     * @param _sourceTokenAmount    amount to convert from, in the source token\n     * @param _targetTokenAmount    amount of tokens received from the conversion, in the target token\n     * @param _path                 conversion path between two tokens in the network\n     */\n    event TokenConverted(\n        address indexed _beneficiary,\n        uint256 indexed _sourceTokenAmount,\n        uint256 indexed _targetTokenAmount,\n        IERC20Token[] _path\n    );\n\n    /**\n     * @dev To check if ddress is contract address \n     */\n    modifier checkAddress(address address_) {\n        require(address_.isContract(), \"The address is not a contract\");\n        _;\n    }\n    \n    constructor(\n        address _wrbtcTokenAddress, \n        address _sovrynSwapNetworkAddress\n    ) \n        public \n        checkAddress(_wrbtcTokenAddress) \n        checkAddress(_sovrynSwapNetworkAddress) \n    {\n        wrbtcTokenAddress = _wrbtcTokenAddress;\n        sovrynSwapNetworkAddress = _sovrynSwapNetworkAddress;\n    }\n\n    function() external payable {\n        require(wrbtcTokenAddress == msg.sender, \"Only can receive rBTC from WRBTC contract\");\n    }\n\n    /**\n     * @dev  \n     * The process:\n     * 1.Accepts RBTC\n     * 2.Sends RBTC to WRBTC contract in order to wrap RBTC to WRBTC\n     * 3.Calls 'addLiquidity' on LiquidityPoolConverter contract\n     * 4.Transfers pool tokens to user\n     * \n     * @param _liquidityPoolConverterAddress    address of LiquidityPoolConverter contract\n     * @param _amount                           amount of liquidity to add\n     * @param _minReturn                        minimum return-amount of reserve tokens\n     *\n     * @return amount of pool tokens minted\n     */\n    function addLiquidity(\n        address _liquidityPoolConverterAddress, \n        uint256 _amount, \n        uint256 _minReturn\n    )  \n        public\n        payable\n        checkAddress(_liquidityPoolConverterAddress)\n        returns(uint256) \n    {\n        require(_amount == msg.value, \"The provided amount should be identical to msg.value\");\n\n        ILiquidityPoolV2Converter _liquidityPoolConverter = ILiquidityPoolV2Converter(_liquidityPoolConverterAddress);\n        ISmartToken _poolToken = _liquidityPoolConverter.poolToken(IERC20Token(wrbtcTokenAddress));\n\n        (bool successOfDeposit, ) = wrbtcTokenAddress.call.value(_amount)(abi.encodeWithSignature(\"deposit()\"));\n        require(successOfDeposit);\n\n        bool successOfApprove = IWrbtcERC20(wrbtcTokenAddress).approve(_liquidityPoolConverterAddress, _amount);\n        require(successOfApprove);\n\n        uint256 poolTokenAmount = _liquidityPoolConverter.addLiquidity(IERC20Token(wrbtcTokenAddress), _amount, _minReturn);\n        \n        bool successOfTransfer = _poolToken.transfer(msg.sender, poolTokenAmount);\n        require(successOfTransfer);\n\n        emit LiquidityAdded(msg.sender, _amount, poolTokenAmount);\n\n        return poolTokenAmount;\n    }\n    \n    /**\n     * @notice \n     * Before calling this function to remove liquidity, users need approve this contract to be able to spend or transfer their pool tokens\n     *\n     * @dev  \n     * The process:     \n     * 1.Transfers pool tokens to this contract\n     * 2.Calls 'removeLiquidity' on LiquidityPoolConverter contract\n     * 3.Calls 'withdraw' on WRBTC contract in order to unwrap WRBTC to RBTC\n     * 4.Sneds RBTC to user\n     * \n     * @param _liquidityPoolConverterAddress    address of LiquidityPoolConverter contract\n     * @param _amount                           amount of pool tokens to burn\n     * @param _minReturn                        minimum return-amount of reserve tokens\n     * \n     * @return amount of liquidity removed also WRBTC unwrapped to RBTC\n     */\n    function removeLiquidity(\n        address _liquidityPoolConverterAddress, \n        uint256 _amount, \n        uint256 _minReturn\n    )   \n        public \n        checkAddress(_liquidityPoolConverterAddress)\n        returns(uint256) \n    {\n        ILiquidityPoolV2Converter _liquidityPoolConverter = ILiquidityPoolV2Converter(_liquidityPoolConverterAddress);\n        ISmartToken _poolToken = _liquidityPoolConverter.poolToken(IERC20Token(wrbtcTokenAddress));\n\n        bool successOfTransferFrom = _poolToken.transferFrom(msg.sender, address(this), _amount);\n        require(successOfTransferFrom);\n\n        uint256 reserveAmount = _liquidityPoolConverter.removeLiquidity(_poolToken, _amount, _minReturn);\n        \n        IWrbtcERC20(wrbtcTokenAddress).withdraw(reserveAmount);\n        \n        msg.sender.transfer(reserveAmount);\n\n        emit LiquidityRemoved(msg.sender, reserveAmount, _amount);\n\n        return reserveAmount;\n    }\n    \n    /**\n     * @notice\n     * Before calling this function to swap token to RBTC, users need approve this contract to be able to spend or transfer their tokens\n     *\n     * @param _path         conversion path between two tokens in the network\n     * @param _amount       amount to convert from, in the source token\n     * @param _minReturn    if the conversion results in an amount smaller than the minimum return - it is cancelled, must be greater than zero\n     * \n     * @return amount of tokens received from the conversion\n     */\n    function convertByPath(\n        IERC20Token[] memory _path,\n        uint256 _amount, \n        uint256 _minReturn\n    ) \n        public \n        payable\n        returns(uint256) \n    {    \n        ISovrynSwapNetwork _sovrynSwapNetwork =  ISovrynSwapNetwork(sovrynSwapNetworkAddress);\n  \n        if (msg.value != 0) {\n            require(_path[0] == IERC20Token(wrbtcTokenAddress), \"Value may only be sent for WRBTC transfers\");\n            require(_amount == msg.value, \"The provided amount should be identical to msg.value\");\n\n            (bool successOfDeposit, ) = wrbtcTokenAddress.call.value(_amount)(abi.encodeWithSignature(\"deposit()\"));\n            require(successOfDeposit);\n\n            bool successOfApprove = IWrbtcERC20(wrbtcTokenAddress).approve(sovrynSwapNetworkAddress, _amount);\n            require(successOfApprove);\n\n            uint256 _targetTokenAmount = _sovrynSwapNetwork.convertByPath(_path, _amount, _minReturn, msg.sender, address(0), 0);\n\n            emit TokenConverted(msg.sender, _amount, _targetTokenAmount, _path);\n\n            return _targetTokenAmount;\n        }\n        else {\n            require(_path[_path.length-1] == IERC20Token(wrbtcTokenAddress), \"It only could be swapped to WRBTC\");\n            \n            IERC20Token _token = IERC20Token(_path[0]);\n\n            bool successOfTransferFrom = _token.transferFrom(msg.sender, address(this), _amount);\n            require(successOfTransferFrom);\n\n            bool successOfApprove = _token.approve(sovrynSwapNetworkAddress, _amount);\n            require(successOfApprove);\n                 \n            uint256 _targetTokenAmount = _sovrynSwapNetwork.convertByPath(_path, _amount, _minReturn, address(this), address(0), 0);\n\n            IWrbtcERC20(wrbtcTokenAddress).withdraw(_targetTokenAmount);\n\n            msg.sender.transfer(_targetTokenAmount);\n\n            emit TokenConverted(msg.sender, _amount, _targetTokenAmount, _path);\n\n            return _targetTokenAmount;\n        }        \n    }\n\n}",
  "sourcePath": "/Users/hsiang/Desktop/RBTCWrapperProxy/contracts/RBTCWrapperProxy.sol",
  "compiler": {
    "name": "solc",
    "version": "0.5.16+commit.9c3226ce.Emscripten.clang"
  },
  "schemaVersion": "3.2.2",
  "updatedAt": "2020-11-23T12:14:24.283Z",
  "devdoc": {
    "methods": {
      "addLiquidity(address,uint256,uint256)": {
        "details": " The process: 1.Accepts RBTC 2.Sends RBTC to WRBTC contract in order to wrap RBTC to WRBTC 3.Calls 'addLiquidity' on LiquidityPoolConverter contract 4.Transfers pool tokens to user ",
        "params": {
          "_amount": "amount of liquidity to add",
          "_liquidityPoolConverterAddress": "address of LiquidityPoolConverter contract",
          "_minReturn": "minimum return-amount of reserve tokens"
        },
        "return": "amount of pool tokens minted"
      },
      "convertByPath(address[],uint256,uint256)": {
        "params": {
          "_amount": "amount to convert from, in the source token",
          "_minReturn": "if the conversion results in an amount smaller than the minimum return - it is cancelled, must be greater than zero ",
          "_path": "conversion path between two tokens in the network"
        },
        "return": "amount of tokens received from the conversion"
      },
      "removeLiquidity(address,uint256,uint256)": {
        "details": " The process:      1.Transfers pool tokens to this contract 2.Calls 'removeLiquidity' on LiquidityPoolConverter contract 3.Calls 'withdraw' on WRBTC contract in order to unwrap WRBTC to RBTC 4.Sneds RBTC to user ",
        "params": {
          "_amount": "amount of pool tokens to burn",
          "_liquidityPoolConverterAddress": "address of LiquidityPoolConverter contract",
          "_minReturn": "minimum return-amount of reserve tokens "
        },
        "return": "amount of liquidity removed also WRBTC unwrapped to RBTC"
      }
    }
  },
  "userdoc": {
    "methods": {
      "convertByPath(address[],uint256,uint256)": {
        "notice": "Before calling this function to swap token to RBTC, users need approve this contract to be able to spend or transfer their tokens"
      },
      "removeLiquidity(address,uint256,uint256)": {
        "notice": " Before calling this function to remove liquidity, users need approve this contract to be able to spend or transfer their pool tokens"
      }
    }
  }
}