{
  "contractName": "RBTCWrapperProxy",
  "abi": [
    {
      "inputs": [
        {
          "internalType": "address",
          "name": "_wrbtcTokenAddress",
          "type": "address"
        },
        {
          "internalType": "address",
          "name": "_sovAddress",
          "type": "address"
        },
        {
          "internalType": "address",
          "name": "_sovrynSwapNetworkAddress",
          "type": "address"
        }
      ],
      "payable": false,
      "stateMutability": "nonpayable",
      "type": "constructor"
    },
    {
      "anonymous": false,
      "inputs": [
        {
          "indexed": true,
          "internalType": "address",
          "name": "_provider",
          "type": "address"
        },
        {
          "indexed": true,
          "internalType": "uint256",
          "name": "_reserveAmount",
          "type": "uint256"
        },
        {
          "indexed": true,
          "internalType": "uint256",
          "name": "_poolTokenAmount",
          "type": "uint256"
        }
      ],
      "name": "LiquidityAdded",
      "type": "event"
    },
    {
      "anonymous": false,
      "inputs": [
        {
          "indexed": true,
          "internalType": "address",
          "name": "_provider",
          "type": "address"
        },
        {
          "indexed": false,
          "internalType": "contract IERC20Token[]",
          "name": "_reserveTokens",
          "type": "address[]"
        },
        {
          "indexed": false,
          "internalType": "uint256[]",
          "name": "_reserveAmounts",
          "type": "uint256[]"
        },
        {
          "indexed": false,
          "internalType": "uint256",
          "name": "_poolTokenAmount",
          "type": "uint256"
        }
      ],
      "name": "LiquidityAddedToV1",
      "type": "event"
    },
    {
      "anonymous": false,
      "inputs": [
        {
          "indexed": true,
          "internalType": "address",
          "name": "_provider",
          "type": "address"
        },
        {
          "indexed": true,
          "internalType": "uint256",
          "name": "_reserveAmount",
          "type": "uint256"
        },
        {
          "indexed": true,
          "internalType": "uint256",
          "name": "_poolTokenAmount",
          "type": "uint256"
        }
      ],
      "name": "LiquidityRemoved",
      "type": "event"
    },
    {
      "anonymous": false,
      "inputs": [
        {
          "indexed": true,
          "internalType": "address",
          "name": "_provider",
          "type": "address"
        },
        {
          "indexed": true,
          "internalType": "address",
          "name": "_reserveToken",
          "type": "address"
        },
        {
          "indexed": true,
          "internalType": "uint256",
          "name": "_reserveAmount",
          "type": "uint256"
        }
      ],
      "name": "LiquidityRemovedFromV1",
      "type": "event"
    },
    {
      "anonymous": false,
      "inputs": [
        {
          "indexed": true,
          "internalType": "address",
          "name": "_beneficiary",
          "type": "address"
        },
        {
          "indexed": true,
          "internalType": "uint256",
          "name": "_sourceTokenAmount",
          "type": "uint256"
        },
        {
          "indexed": true,
          "internalType": "uint256",
          "name": "_targetTokenAmount",
          "type": "uint256"
        },
        {
          "indexed": false,
          "internalType": "contract IERC20Token[]",
          "name": "_path",
          "type": "address[]"
        }
      ],
      "name": "TokenConverted",
      "type": "event"
    },
    {
      "payable": true,
      "stateMutability": "payable",
      "type": "fallback"
    },
    {
      "constant": true,
      "inputs": [],
      "name": "sovAddress",
      "outputs": [
        {
          "internalType": "address",
          "name": "",
          "type": "address"
        }
      ],
      "payable": false,
      "stateMutability": "view",
      "type": "function"
    },
    {
      "constant": true,
      "inputs": [],
      "name": "sovrynSwapNetworkAddress",
      "outputs": [
        {
          "internalType": "address",
          "name": "",
          "type": "address"
        }
      ],
      "payable": false,
      "stateMutability": "view",
      "type": "function"
    },
    {
      "constant": true,
      "inputs": [],
      "name": "wrbtcTokenAddress",
      "outputs": [
        {
          "internalType": "address",
          "name": "",
          "type": "address"
        }
      ],
      "payable": false,
      "stateMutability": "view",
      "type": "function"
    },
    {
      "constant": false,
      "inputs": [
        {
          "internalType": "address",
          "name": "_liquidityPoolConverterAddress",
          "type": "address"
        },
        {
          "internalType": "uint256",
          "name": "_amount",
          "type": "uint256"
        },
        {
          "internalType": "uint256",
          "name": "_minReturn",
          "type": "uint256"
        }
      ],
      "name": "addLiquidity",
      "outputs": [
        {
          "internalType": "uint256",
          "name": "",
          "type": "uint256"
        }
      ],
      "payable": true,
      "stateMutability": "payable",
      "type": "function"
    },
    {
      "constant": false,
      "inputs": [
        {
          "internalType": "address",
          "name": "_liquidityPoolConverterAddress",
          "type": "address"
        },
        {
          "internalType": "uint256",
          "name": "_amount",
          "type": "uint256"
        },
        {
          "internalType": "uint256",
          "name": "_minReturn",
          "type": "uint256"
        }
      ],
      "name": "removeLiquidity",
      "outputs": [
        {
          "internalType": "uint256",
          "name": "",
          "type": "uint256"
        }
      ],
      "payable": false,
      "stateMutability": "nonpayable",
      "type": "function"
    },
    {
      "constant": false,
      "inputs": [
        {
          "internalType": "contract IERC20Token[]",
          "name": "_path",
          "type": "address[]"
        },
        {
          "internalType": "uint256",
          "name": "_amount",
          "type": "uint256"
        },
        {
          "internalType": "uint256",
          "name": "_minReturn",
          "type": "uint256"
        }
      ],
      "name": "convertByPath",
      "outputs": [
        {
          "internalType": "uint256",
          "name": "",
          "type": "uint256"
        }
      ],
      "payable": true,
      "stateMutability": "payable",
      "type": "function"
    },
    {
      "constant": false,
      "inputs": [
        {
          "internalType": "address",
          "name": "_liquidityPoolConverterAddress",
          "type": "address"
        },
        {
          "internalType": "contract IERC20Token[]",
          "name": "_reserveTokens",
          "type": "address[]"
        },
        {
          "internalType": "uint256[]",
          "name": "_reserveAmounts",
          "type": "uint256[]"
        },
        {
          "internalType": "uint256",
          "name": "_minReturn",
          "type": "uint256"
        }
      ],
      "name": "addLiquidityToV1",
      "outputs": [
        {
          "internalType": "uint256",
          "name": "",
          "type": "uint256"
        }
      ],
      "payable": true,
      "stateMutability": "payable",
      "type": "function"
    },
    {
      "constant": false,
      "inputs": [
        {
          "internalType": "address",
          "name": "_liquidityPoolConverterAddress",
          "type": "address"
        },
        {
          "internalType": "uint256",
          "name": "_amount",
          "type": "uint256"
        },
        {
          "internalType": "contract IERC20Token[]",
          "name": "_reserveTokens",
          "type": "address[]"
        },
        {
          "internalType": "uint256[]",
          "name": "_reserveMinReturnAmounts",
          "type": "uint256[]"
        }
      ],
      "name": "removeLiquidityFromV1",
      "outputs": [],
      "payable": false,
      "stateMutability": "nonpayable",
      "type": "function"
    }
  ],
  "bytecode": "0x60806040523480156200001157600080fd5b506040516200397638038062003976833981810160405260608110156200003757600080fd5b8101908080519060200190929190805190602001909291908051906020019092919050505082620000898173ffffffffffffffffffffffffffffffffffffffff166200030a60201b620032ab1760201c565b620000fc576040517f08c379a000000000000000000000000000000000000000000000000000000000815260040180806020018281038252601d8152602001807f5468652061646472657373206973206e6f74206120636f6e747261637400000081525060200191505060405180910390fd5b82620001298173ffffffffffffffffffffffffffffffffffffffff166200030a60201b620032ab1760201c565b6200019c576040517f08c379a000000000000000000000000000000000000000000000000000000000815260040180806020018281038252601d8152602001807f5468652061646472657373206973206e6f74206120636f6e747261637400000081525060200191505060405180910390fd5b82620001c98173ffffffffffffffffffffffffffffffffffffffff166200030a60201b620032ab1760201c565b6200023c576040517f08c379a000000000000000000000000000000000000000000000000000000000815260040180806020018281038252601d8152602001807f5468652061646472657373206973206e6f74206120636f6e747261637400000081525060200191505060405180910390fd5b856000806101000a81548173ffffffffffffffffffffffffffffffffffffffff021916908373ffffffffffffffffffffffffffffffffffffffff16021790555084600160006101000a81548173ffffffffffffffffffffffffffffffffffffffff021916908373ffffffffffffffffffffffffffffffffffffffff16021790555083600260006101000a81548173ffffffffffffffffffffffffffffffffffffffff021916908373ffffffffffffffffffffffffffffffffffffffff16021790555050505050505062000356565b60008060007fc5d2460186f7233c927e7db2dcc703c0e500b653ca82273b7bfad8045d85a47060001b9050833f91508082141580156200034d57506000801b8214155b92505050919050565b61361080620003666000396000f3fe60806040526004361061007b5760003560e01c806360dc20cd1161004e57806360dc20cd14610293578063b37a48311461041d578063e38192e3146104fd578063e94190ed146105765761007b565b80632f6b600d146101225780633a50dd5d1461017957806343fe0f0d146101d057806355776b7714610227575b3373ffffffffffffffffffffffffffffffffffffffff166000809054906101000a900473ffffffffffffffffffffffffffffffffffffffff1673ffffffffffffffffffffffffffffffffffffffff1614610120576040517f08c379a00000000000000000000000000000000000000000000000000000000081526004018080602001828103825260298152602001806134246029913960400191505060405180910390fd5b005b34801561012e57600080fd5b506101376106f9565b604051808273ffffffffffffffffffffffffffffffffffffffff1673ffffffffffffffffffffffffffffffffffffffff16815260200191505060405180910390f35b34801561018557600080fd5b5061018e61071e565b604051808273ffffffffffffffffffffffffffffffffffffffff1673ffffffffffffffffffffffffffffffffffffffff16815260200191505060405180910390f35b3480156101dc57600080fd5b506101e5610744565b604051808273ffffffffffffffffffffffffffffffffffffffff1673ffffffffffffffffffffffffffffffffffffffff16815260200191505060405180910390f35b61027d6004803603606081101561023d57600080fd5b81019080803573ffffffffffffffffffffffffffffffffffffffff169060200190929190803590602001909291908035906020019092919050505061076a565b6040518082815260200191505060405180910390f35b610407600480360360808110156102a957600080fd5b81019080803573ffffffffffffffffffffffffffffffffffffffff169060200190929190803590602001906401000000008111156102e657600080fd5b8201836020820111156102f857600080fd5b8035906020019184602083028401116401000000008311171561031a57600080fd5b919080806020026020016040519081016040528093929190818152602001838360200280828437600081840152601f19601f8201169050808301925050505050505091929192908035906020019064010000000081111561037a57600080fd5b82018360208201111561038c57600080fd5b803590602001918460208302840111640100000000831117156103ae57600080fd5b919080806020026020016040519081016040528093929190818152602001838360200280828437600081840152601f19601f82011690508083019250505050505050919291929080359060200190929190505050610da4565b6040518082815260200191505060405180910390f35b6104e76004803603606081101561043357600080fd5b810190808035906020019064010000000081111561045057600080fd5b82018360208201111561046257600080fd5b8035906020019184602083028401116401000000008311171561048457600080fd5b919080806020026020016040519081016040528093929190818152602001838360200280828437600081840152601f19601f8201169050808301925050505050505091929192908035906020019092919080359060200190929190505050611a8b565b6040518082815260200191505060405180910390f35b34801561050957600080fd5b506105606004803603606081101561052057600080fd5b81019080803573ffffffffffffffffffffffffffffffffffffffff16906020019092919080359060200190929190803590602001909291905050506125c9565b6040518082815260200191505060405180910390f35b34801561058257600080fd5b506106f76004803603608081101561059957600080fd5b81019080803573ffffffffffffffffffffffffffffffffffffffff16906020019092919080359060200190929190803590602001906401000000008111156105e057600080fd5b8201836020820111156105f257600080fd5b8035906020019184602083028401116401000000008311171561061457600080fd5b919080806020026020016040519081016040528093929190818152602001838360200280828437600081840152601f19601f8201169050808301925050505050505091929192908035906020019064010000000081111561067457600080fd5b82018360208201111561068657600080fd5b803590602001918460208302840111640100000000831117156106a857600080fd5b919080806020026020016040519081016040528093929190818152602001838360200280828437600081840152601f19601f820116905080830192505050505050509192919290505050612a38565b005b6000809054906101000a900473ffffffffffffffffffffffffffffffffffffffff1681565b600160009054906101000a900473ffffffffffffffffffffffffffffffffffffffff1681565b600260009054906101000a900473ffffffffffffffffffffffffffffffffffffffff1681565b60008361078c8173ffffffffffffffffffffffffffffffffffffffff166132ab565b6107fe576040517f08c379a000000000000000000000000000000000000000000000000000000000815260040180806020018281038252601d8152602001807f5468652061646472657373206973206e6f74206120636f6e747261637400000081525060200191505060405180910390fd5b348414610856576040517f08c379a000000000000000000000000000000000000000000000000000000000815260040180806020018281038252603481526020018061351d6034913960400191505060405180910390fd5b600085905060008173ffffffffffffffffffffffffffffffffffffffff16635768adcf6000809054906101000a900473ffffffffffffffffffffffffffffffffffffffff166040518263ffffffff1660e01b8152600401808273ffffffffffffffffffffffffffffffffffffffff1673ffffffffffffffffffffffffffffffffffffffff16815260200191505060206040518083038186803b1580156108fb57600080fd5b505afa15801561090f573d6000803e3d6000fd5b505050506040513d602081101561092557600080fd5b8101908080519060200190929190505050905060008060009054906101000a900473ffffffffffffffffffffffffffffffffffffffff1673ffffffffffffffffffffffffffffffffffffffff16876040516024016040516020818303038152906040527fd0e30db0000000000000000000000000000000000000000000000000000000007bffffffffffffffffffffffffffffffffffffffffffffffffffffffff19166020820180517bffffffffffffffffffffffffffffffffffffffffffffffffffffffff83818316178352505050506040518082805190602001908083835b60208310610a295780518252602082019150602081019050602083039250610a06565b6001836020036101000a03801982511681845116808217855250505050505090500191505060006040518083038185875af1925050503d8060008114610a8b576040519150601f19603f3d011682016040523d82523d6000602084013e610a90565b606091505b5050905080610a9e57600080fd5b60008060009054906101000a900473ffffffffffffffffffffffffffffffffffffffff1673ffffffffffffffffffffffffffffffffffffffff1663095ea7b38a8a6040518363ffffffff1660e01b8152600401808373ffffffffffffffffffffffffffffffffffffffff1673ffffffffffffffffffffffffffffffffffffffff16815260200182815260200192505050602060405180830381600087803b158015610b4857600080fd5b505af1158015610b5c573d6000803e3d6000fd5b505050506040513d6020811015610b7257600080fd5b8101908080519060200190929190505050905080610b8f57600080fd5b60008473ffffffffffffffffffffffffffffffffffffffff166355776b776000809054906101000a900473ffffffffffffffffffffffffffffffffffffffff168b8b6040518463ffffffff1660e01b8152600401808473ffffffffffffffffffffffffffffffffffffffff1673ffffffffffffffffffffffffffffffffffffffff1681526020018381526020018281526020019350505050602060405180830381600087803b158015610c4157600080fd5b505af1158015610c55573d6000803e3d6000fd5b505050506040513d6020811015610c6b57600080fd5b8101908080519060200190929190505050905060008473ffffffffffffffffffffffffffffffffffffffff1663a9059cbb33846040518363ffffffff1660e01b8152600401808373ffffffffffffffffffffffffffffffffffffffff1673ffffffffffffffffffffffffffffffffffffffff16815260200182815260200192505050602060405180830381600087803b158015610d0757600080fd5b505af1158015610d1b573d6000803e3d6000fd5b505050506040513d6020811015610d3157600080fd5b8101908080519060200190929190505050905080610d4e57600080fd5b818a3373ffffffffffffffffffffffffffffffffffffffff167fac1d76749e5447b7b16f5ab61447e1bd502f3bb4807af3b28e620d1700a6ee4560405160405180910390a4819750505050505050509392505050565b600084610dc68173ffffffffffffffffffffffffffffffffffffffff166132ab565b610e38576040517f08c379a000000000000000000000000000000000000000000000000000000000815260040180806020018281038252601d8152602001807f5468652061646472657373206973206e6f74206120636f6e747261637400000081525060200191505060405180910390fd5b600085519050610e526001826132f690919063ffffffff16565b855114610ec7576040517f08c379a000000000000000000000000000000000000000000000000000000000815260040180806020018281038252601c8152602001807f546865206c656e677468206f662061727261792069732077726f6e670000000081525060200191505060405180910390fd5b34858281518110610ed457fe5b602002602001015114610f32576040517f08c379a000000000000000000000000000000000000000000000000000000000815260040180806020018281038252603c8152602001806135a0603c913960400191505060405180910390fd5b60008060008090505b838110156111ea576000898281518110610f5157fe5b602002602001015190506000898381518110610f6957fe5b602002602001015190508173ffffffffffffffffffffffffffffffffffffffff166323b872dd3330846040518463ffffffff1660e01b8152600401808473ffffffffffffffffffffffffffffffffffffffff1673ffffffffffffffffffffffffffffffffffffffff1681526020018373ffffffffffffffffffffffffffffffffffffffff1673ffffffffffffffffffffffffffffffffffffffff1681526020018281526020019350505050602060405180830381600087803b15801561102e57600080fd5b505af1158015611042573d6000803e3d6000fd5b505050506040513d602081101561105857600080fd5b81019080805190602001909291905050509450846110c1576040517f08c379a000000000000000000000000000000000000000000000000000000000815260040180806020018281038252602a815260200180613576602a913960400191505060405180910390fd5b8173ffffffffffffffffffffffffffffffffffffffff1663095ea7b38d836040518363ffffffff1660e01b8152600401808373ffffffffffffffffffffffffffffffffffffffff1673ffffffffffffffffffffffffffffffffffffffff16815260200182815260200192505050602060405180830381600087803b15801561114857600080fd5b505af115801561115c573d6000803e3d6000fd5b505050506040513d602081101561117257600080fd5b81019080805190602001909291905050509350836111db576040517f08c379a00000000000000000000000000000000000000000000000000000000081526004018080602001828103825260358152602001806134986035913960400191505060405180910390fd5b50508080600101915050610f3b565b5060008060009054906101000a900473ffffffffffffffffffffffffffffffffffffffff1673ffffffffffffffffffffffffffffffffffffffff1688858151811061123157fe5b60200260200101516040516024016040516020818303038152906040527fd0e30db0000000000000000000000000000000000000000000000000000000007bffffffffffffffffffffffffffffffffffffffffffffffffffffffff19166020820180517bffffffffffffffffffffffffffffffffffffffffffffffffffffffff83818316178352505050506040518082805190602001908083835b602083106112ef57805182526020820191506020810190506020830392506112cc565b6001836020036101000a03801982511681845116808217855250505050505090500191505060006040518083038185875af1925050503d8060008114611351576040519150601f19603f3d011682016040523d82523d6000602084013e611356565b606091505b50509050806113b0576040517f08c379a00000000000000000000000000000000000000000000000000000000081526004018080602001828103825260238152602001806134fa6023913960400191505060405180910390fd5b6000809054906101000a900473ffffffffffffffffffffffffffffffffffffffff168985815181106113de57fe5b602002602001019073ffffffffffffffffffffffffffffffffffffffff16908173ffffffffffffffffffffffffffffffffffffffff16815250506000809054906101000a900473ffffffffffffffffffffffffffffffffffffffff1673ffffffffffffffffffffffffffffffffffffffff1663095ea7b38b8a878151811061146257fe5b60200260200101516040518363ffffffff1660e01b8152600401808373ffffffffffffffffffffffffffffffffffffffff1673ffffffffffffffffffffffffffffffffffffffff16815260200182815260200192505050602060405180830381600087803b1580156114d357600080fd5b505af11580156114e7573d6000803e3d6000fd5b505050506040513d60208110156114fd57600080fd5b8101908080519060200190929190505050915081611566576040517f08c379a000000000000000000000000000000000000000000000000000000000815260040180806020018281038252602d8152602001806134cd602d913960400191505060405180910390fd5b60008a905060008173ffffffffffffffffffffffffffffffffffffffff1663fc0c546a6040518163ffffffff1660e01b815260040160206040518083038186803b1580156115b357600080fd5b505afa1580156115c7573d6000803e3d6000fd5b505050506040513d60208110156115dd57600080fd5b8101908080519060200190929190505050905060008173ffffffffffffffffffffffffffffffffffffffff166370a08231306040518263ffffffff1660e01b8152600401808273ffffffffffffffffffffffffffffffffffffffff1673ffffffffffffffffffffffffffffffffffffffff16815260200191505060206040518083038186803b15801561166f57600080fd5b505afa158015611683573d6000803e3d6000fd5b505050506040513d602081101561169957600080fd5b810190808051906020019092919050505090508273ffffffffffffffffffffffffffffffffffffffff16637d8916bd8d8d8d6040518463ffffffff1660e01b8152600401808060200180602001848152602001838103835286818151815260200191508051906020019060200280838360005b8381101561172757808201518184015260208101905061170c565b50505050905001838103825285818151815260200191508051906020019060200280838360005b8381101561176957808201518184015260208101905061174e565b5050505090500195505050505050600060405180830381600087803b15801561179157600080fd5b505af11580156117a5573d6000803e3d6000fd5b5050505060008273ffffffffffffffffffffffffffffffffffffffff166370a08231306040518263ffffffff1660e01b8152600401808273ffffffffffffffffffffffffffffffffffffffff1673ffffffffffffffffffffffffffffffffffffffff16815260200191505060206040518083038186803b15801561182857600080fd5b505afa15801561183c573d6000803e3d6000fd5b505050506040513d602081101561185257600080fd5b81019080805190602001909291905050509050600061187a838361337e90919063ffffffff16565b90508373ffffffffffffffffffffffffffffffffffffffff1663a9059cbb33836040518363ffffffff1660e01b8152600401808373ffffffffffffffffffffffffffffffffffffffff1673ffffffffffffffffffffffffffffffffffffffff16815260200182815260200192505050602060405180830381600087803b15801561190357600080fd5b505af1158015611917573d6000803e3d6000fd5b505050506040513d602081101561192d57600080fd5b8101908080519060200190929190505050975087611996576040517f08c379a00000000000000000000000000000000000000000000000000000000081526004018080602001828103825260258152602001806135516025913960400191505060405180910390fd5b3373ffffffffffffffffffffffffffffffffffffffff167f4d1b57c3379ad7f299ecc422923aae2eb02b1428c6b85c63e399fa6337cbc5348f8f84604051808060200180602001848152602001838103835286818151815260200191508051906020019060200280838360005b83811015611a1e578082015181840152602081019050611a03565b50505050905001838103825285818151815260200191508051906020019060200280838360005b83811015611a60578082015181840152602081019050611a45565b505050509050019550505050505060405180910390a2809a5050505050505050505050949350505050565b600080600260009054906101000a900473ffffffffffffffffffffffffffffffffffffffff16905060003414612036576000809054906101000a900473ffffffffffffffffffffffffffffffffffffffff1673ffffffffffffffffffffffffffffffffffffffff1685600081518110611b0057fe5b602002602001015173ffffffffffffffffffffffffffffffffffffffff1614611b74576040517f08c379a000000000000000000000000000000000000000000000000000000000815260040180806020018281038252602a81526020018061344d602a913960400191505060405180910390fd5b348414611bcc576040517f08c379a000000000000000000000000000000000000000000000000000000000815260040180806020018281038252603481526020018061351d6034913960400191505060405180910390fd5b60008060009054906101000a900473ffffffffffffffffffffffffffffffffffffffff1673ffffffffffffffffffffffffffffffffffffffff16856040516024016040516020818303038152906040527fd0e30db0000000000000000000000000000000000000000000000000000000007bffffffffffffffffffffffffffffffffffffffffffffffffffffffff19166020820180517bffffffffffffffffffffffffffffffffffffffffffffffffffffffff83818316178352505050506040518082805190602001908083835b60208310611cbd5780518252602082019150602081019050602083039250611c9a565b6001836020036101000a03801982511681845116808217855250505050505090500191505060006040518083038185875af1925050503d8060008114611d1f576040519150601f19603f3d011682016040523d82523d6000602084013e611d24565b606091505b5050905080611d3257600080fd5b60008060009054906101000a900473ffffffffffffffffffffffffffffffffffffffff1673ffffffffffffffffffffffffffffffffffffffff1663095ea7b3600260009054906101000a900473ffffffffffffffffffffffffffffffffffffffff16886040518363ffffffff1660e01b8152600401808373ffffffffffffffffffffffffffffffffffffffff1673ffffffffffffffffffffffffffffffffffffffff16815260200182815260200192505050602060405180830381600087803b158015611dfe57600080fd5b505af1158015611e12573d6000803e3d6000fd5b505050506040513d6020811015611e2857600080fd5b8101908080519060200190929190505050905080611e4557600080fd5b60008373ffffffffffffffffffffffffffffffffffffffff1663b77d239b898989336000806040518763ffffffff1660e01b815260040180806020018781526020018681526020018573ffffffffffffffffffffffffffffffffffffffff1673ffffffffffffffffffffffffffffffffffffffff1681526020018473ffffffffffffffffffffffffffffffffffffffff1673ffffffffffffffffffffffffffffffffffffffff168152602001838152602001828103825288818151815260200191508051906020019060200280838360005b83811015611f32578082015181840152602081019050611f17565b50505050905001975050505050505050602060405180830381600087803b158015611f5c57600080fd5b505af1158015611f70573d6000803e3d6000fd5b505050506040513d6020811015611f8657600080fd5b8101908080519060200190929190505050905080873373ffffffffffffffffffffffffffffffffffffffff167f5daafc2a274db45810c7f56e73b2a0a2b99bb148d2f5b8ba5d5d935099e978ca8b6040518080602001828103825283818151815260200191508051906020019060200280838360005b83811015612017578082015181840152602081019050611ffc565b505050509050019250505060405180910390a4809450505050506125c2565b6000809054906101000a900473ffffffffffffffffffffffffffffffffffffffff1673ffffffffffffffffffffffffffffffffffffffff168560018751038151811061207e57fe5b602002602001015173ffffffffffffffffffffffffffffffffffffffff16146120f2576040517f08c379a00000000000000000000000000000000000000000000000000000000081526004018080602001828103825260218152602001806134776021913960400191505060405180910390fd5b60008560008151811061210157fe5b6020026020010151905060008173ffffffffffffffffffffffffffffffffffffffff166323b872dd3330896040518463ffffffff1660e01b8152600401808473ffffffffffffffffffffffffffffffffffffffff1673ffffffffffffffffffffffffffffffffffffffff1681526020018373ffffffffffffffffffffffffffffffffffffffff1673ffffffffffffffffffffffffffffffffffffffff1681526020018281526020019350505050602060405180830381600087803b1580156121c857600080fd5b505af11580156121dc573d6000803e3d6000fd5b505050506040513d60208110156121f257600080fd5b810190808051906020019092919050505090508061220f57600080fd5b60008273ffffffffffffffffffffffffffffffffffffffff1663095ea7b3600260009054906101000a900473ffffffffffffffffffffffffffffffffffffffff16896040518363ffffffff1660e01b8152600401808373ffffffffffffffffffffffffffffffffffffffff1673ffffffffffffffffffffffffffffffffffffffff16815260200182815260200192505050602060405180830381600087803b1580156122ba57600080fd5b505af11580156122ce573d6000803e3d6000fd5b505050506040513d60208110156122e457600080fd5b810190808051906020019092919050505090508061230157600080fd5b60008473ffffffffffffffffffffffffffffffffffffffff1663b77d239b8a8a8a306000806040518763ffffffff1660e01b815260040180806020018781526020018681526020018573ffffffffffffffffffffffffffffffffffffffff1673ffffffffffffffffffffffffffffffffffffffff1681526020018473ffffffffffffffffffffffffffffffffffffffff1673ffffffffffffffffffffffffffffffffffffffff168152602001838152602001828103825288818151815260200191508051906020019060200280838360005b838110156123ee5780820151818401526020810190506123d3565b50505050905001975050505050505050602060405180830381600087803b15801561241857600080fd5b505af115801561242c573d6000803e3d6000fd5b505050506040513d602081101561244257600080fd5b810190808051906020019092919050505090506000809054906101000a900473ffffffffffffffffffffffffffffffffffffffff1673ffffffffffffffffffffffffffffffffffffffff16632e1a7d4d826040518263ffffffff1660e01b815260040180828152602001915050600060405180830381600087803b1580156124c957600080fd5b505af11580156124dd573d6000803e3d6000fd5b505050503373ffffffffffffffffffffffffffffffffffffffff166108fc829081150290604051600060405180830381858888f19350505050158015612527573d6000803e3d6000fd5b5080883373ffffffffffffffffffffffffffffffffffffffff167f5daafc2a274db45810c7f56e73b2a0a2b99bb148d2f5b8ba5d5d935099e978ca8c6040518080602001828103825283818151815260200191508051906020019060200280838360005b838110156125a657808201518184015260208101905061258b565b505050509050019250505060405180910390a480955050505050505b9392505050565b6000836125eb8173ffffffffffffffffffffffffffffffffffffffff166132ab565b61265d576040517f08c379a000000000000000000000000000000000000000000000000000000000815260040180806020018281038252601d8152602001807f5468652061646472657373206973206e6f74206120636f6e747261637400000081525060200191505060405180910390fd5b600085905060008173ffffffffffffffffffffffffffffffffffffffff16635768adcf6000809054906101000a900473ffffffffffffffffffffffffffffffffffffffff166040518263ffffffff1660e01b8152600401808273ffffffffffffffffffffffffffffffffffffffff1673ffffffffffffffffffffffffffffffffffffffff16815260200191505060206040518083038186803b15801561270257600080fd5b505afa158015612716573d6000803e3d6000fd5b505050506040513d602081101561272c57600080fd5b8101908080519060200190929190505050905060008173ffffffffffffffffffffffffffffffffffffffff166323b872dd33308a6040518463ffffffff1660e01b8152600401808473ffffffffffffffffffffffffffffffffffffffff1673ffffffffffffffffffffffffffffffffffffffff1681526020018373ffffffffffffffffffffffffffffffffffffffff1673ffffffffffffffffffffffffffffffffffffffff1681526020018281526020019350505050602060405180830381600087803b1580156127fc57600080fd5b505af1158015612810573d6000803e3d6000fd5b505050506040513d602081101561282657600080fd5b810190808051906020019092919050505090508061284357600080fd5b60008373ffffffffffffffffffffffffffffffffffffffff1663e38192e3848a8a6040518463ffffffff1660e01b8152600401808473ffffffffffffffffffffffffffffffffffffffff1673ffffffffffffffffffffffffffffffffffffffff1681526020018381526020018281526020019350505050602060405180830381600087803b1580156128d457600080fd5b505af11580156128e8573d6000803e3d6000fd5b505050506040513d60208110156128fe57600080fd5b810190808051906020019092919050505090506000809054906101000a900473ffffffffffffffffffffffffffffffffffffffff1673ffffffffffffffffffffffffffffffffffffffff16632e1a7d4d826040518263ffffffff1660e01b815260040180828152602001915050600060405180830381600087803b15801561298557600080fd5b505af1158015612999573d6000803e3d6000fd5b505050503373ffffffffffffffffffffffffffffffffffffffff166108fc829081150290604051600060405180830381858888f193505050501580156129e3573d6000803e3d6000fd5b5087813373ffffffffffffffffffffffffffffffffffffffff167f96cd817c6329656790ef8fba7675405193677d39619571282f5e21f3a98cd05960405160405180910390a480955050505050509392505050565b83612a588173ffffffffffffffffffffffffffffffffffffffff166132ab565b612aca576040517f08c379a000000000000000000000000000000000000000000000000000000000815260040180806020018281038252601d8152602001807f5468652061646472657373206973206e6f74206120636f6e747261637400000081525060200191505060405180910390fd5b60008411612b23576040517f08c379a00000000000000000000000000000000000000000000000000000000081526004018080602001828103825260228152602001806134026022913960400191505060405180910390fd5b600085905060008173ffffffffffffffffffffffffffffffffffffffff1663fc0c546a6040518163ffffffff1660e01b815260040160206040518083038186803b158015612b7057600080fd5b505afa158015612b84573d6000803e3d6000fd5b505050506040513d6020811015612b9a57600080fd5b8101908080519060200190929190505050905060008173ffffffffffffffffffffffffffffffffffffffff166323b872dd33308a6040518463ffffffff1660e01b8152600401808473ffffffffffffffffffffffffffffffffffffffff1673ffffffffffffffffffffffffffffffffffffffff1681526020018373ffffffffffffffffffffffffffffffffffffffff1673ffffffffffffffffffffffffffffffffffffffff1681526020018281526020019350505050602060405180830381600087803b158015612c6a57600080fd5b505af1158015612c7e573d6000803e3d6000fd5b505050506040513d6020811015612c9457600080fd5b8101908080519060200190929190505050905080612cb157600080fd5b6000606060008090505b8851811015612db757888181518110612cd057fe5b602002602001015192508273ffffffffffffffffffffffffffffffffffffffff166370a08231306040518263ffffffff1660e01b8152600401808273ffffffffffffffffffffffffffffffffffffffff1673ffffffffffffffffffffffffffffffffffffffff16815260200191505060206040518083038186803b158015612d5757600080fd5b505afa158015612d6b573d6000803e3d6000fd5b505050506040513d6020811015612d8157600080fd5b8101908080519060200190929190505050828281518110612d9e57fe5b6020026020010181815250508080600101915050612cbb565b508473ffffffffffffffffffffffffffffffffffffffff1663b127c0a58a8a8a6040518463ffffffff1660e01b8152600401808481526020018060200180602001838103835285818151815260200191508051906020019060200280838360005b83811015612e33578082015181840152602081019050612e18565b50505050905001838103825284818151815260200191508051906020019060200280838360005b83811015612e75578082015181840152602081019050612e5a565b5050505090500195505050505050600060405180830381600087803b158015612e9d57600080fd5b505af1158015612eb1573d6000803e3d6000fd5b50505050600080600090505b895181101561329d57898181518110612ed257fe5b60200260200101519350612fb9838281518110612eeb57fe5b60200260200101518573ffffffffffffffffffffffffffffffffffffffff166370a08231306040518263ffffffff1660e01b8152600401808273ffffffffffffffffffffffffffffffffffffffff1673ffffffffffffffffffffffffffffffffffffffff16815260200191505060206040518083038186803b158015612f7057600080fd5b505afa158015612f84573d6000803e3d6000fd5b505050506040513d6020811015612f9a57600080fd5b810190808051906020019092919050505061337e90919063ffffffff16565b9150888181518110612fc757fe5b6020026020010151821015613044576040517f08c379a00000000000000000000000000000000000000000000000000000000081526004018080602001828103825260168152602001807f4552525f5a45524f5f5441524745545f414d4f554e540000000000000000000081525060200191505060405180910390fd5b6000809054906101000a900473ffffffffffffffffffffffffffffffffffffffff1673ffffffffffffffffffffffffffffffffffffffff168473ffffffffffffffffffffffffffffffffffffffff161415613171576000809054906101000a900473ffffffffffffffffffffffffffffffffffffffff1673ffffffffffffffffffffffffffffffffffffffff16632e1a7d4d836040518263ffffffff1660e01b815260040180828152602001915050600060405180830381600087803b15801561310d57600080fd5b505af1158015613121573d6000803e3d6000fd5b505050503373ffffffffffffffffffffffffffffffffffffffff166108fc839081150290604051600060405180830381858888f1935050505015801561316b573d6000803e3d6000fd5b50613235565b8373ffffffffffffffffffffffffffffffffffffffff1663a9059cbb33846040518363ffffffff1660e01b8152600401808373ffffffffffffffffffffffffffffffffffffffff1673ffffffffffffffffffffffffffffffffffffffff16815260200182815260200192505050602060405180830381600087803b1580156131f857600080fd5b505af115801561320c573d6000803e3d6000fd5b505050506040513d602081101561322257600080fd5b8101908080519060200190929190505050505b818473ffffffffffffffffffffffffffffffffffffffff163373ffffffffffffffffffffffffffffffffffffffff167fbe4668e2c2bb36fe987cdc6c5be6a154e34d35603e49943335a81c83c9af8aaa60405160405180910390a48080600101915050612ebd565b505050505050505050505050565b60008060007fc5d2460186f7233c927e7db2dcc703c0e500b653ca82273b7bfad8045d85a47060001b9050833f91508082141580156132ed57506000801b8214155b92505050919050565b600080828401905083811015613374576040517f08c379a000000000000000000000000000000000000000000000000000000000815260040180806020018281038252600c8152602001807f4552525f4f564552464c4f57000000000000000000000000000000000000000081525060200191505060405180910390fd5b8091505092915050565b6000818310156133f6576040517f08c379a000000000000000000000000000000000000000000000000000000000815260040180806020018281038252600d8152602001807f4552525f554e444552464c4f570000000000000000000000000000000000000081525060200191505060405180910390fd5b81830390509291505056fe54686520616d6f756e742073686f756c64206c6172676572207468616e207a65726f4f6e6c792063616e207265636569766520724254432066726f6d20575242544320636f6e747261637456616c7565206d6179206f6e6c792062652073656e7420666f72205752425443207472616e73666572734974206f6e6c7920636f756c64206265207377617070656420746f2057524254434661696c656420746f20617070726f766520636f6e76657274657220746f207472616e73666572207265736572766520746f6b656e4661696c656420746f20617070726f766520636f6e76657274657220746f207472616e736665722057524254434661696c656420746f206465706f736974205242544320746f206765742057524254435468652070726f766964656420616d6f756e742073686f756c64206265206964656e746963616c20746f206d73672e76616c75654661696c656420746f207472616e7366657220706f6f6c20746f6b656e20746f20757365724661696c656420746f207472616e73666572207265736572766520746f6b656e2066726f6d20757365725468652070726f766964656420616d6f756e74206f6620524254432073686f756c64206265206964656e746963616c20746f206d73672e76616c7565a265627a7a723158207e2b51fd8d31c783b21be4d448e0cf8392422e7ff3b1f3894c9738455fa45f5e64736f6c63430005100032",
  "source": "pragma solidity 0.5.16;\n\nimport \"./openzeppelin/Address.sol\";\nimport \"./openzeppelin/SafeMath.sol\";\nimport \"./interfaces/IWrbtcERC20.sol\";\nimport \"./interfaces/ILiquidityPoolV1Converter.sol\";\nimport \"./interfaces/ILiquidityPoolV2Converter.sol\";\nimport \"./interfaces/ISmartToken.sol\";\nimport \"./interfaces/ISovrynSwapNetwork.sol\";\nimport \"./interfaces/IERC20Token.sol\";\n\ncontract RBTCWrapperProxy{\n    \n    using Address for address;\n    using SafeMath for uint256;\n\n    bytes32 internal constant SOVRYNSWAP_FORMULA = \"SovrynSwapFormula\";\n\n    address public wrbtcTokenAddress;\n    address public sovAddress;\n    address public sovrynSwapNetworkAddress;\n    \n    /**\n     * @dev triggered after liquidity is added\n     *\n     * @param  _provider           liquidity provider\n     * @param  _reserveAmount      provided reserve token amount\n     * @param  _poolTokenAmount    minted pool token amount\n     */\n    event LiquidityAdded(\n        address indexed _provider,\n        uint256 indexed _reserveAmount,\n        uint256 indexed _poolTokenAmount\n    );\n\n\n    event LiquidityAddedToV1(\n        address indexed _provider,\n        IERC20Token[] _reserveTokens, \n        uint256[] _reserveAmounts, \n        uint256 _poolTokenAmount\n    );\n\n    /**\n     * @dev triggered after liquidity is removed\n     *\n     * @param  _provider           liquidity provider\n     * @param  _reserveAmount      added reserve token amount\n     * @param  _poolTokenAmount    burned pool token amount\n     */\n    event LiquidityRemoved(\n        address indexed _provider,\n        uint256 indexed _reserveAmount,\n        uint256 indexed _poolTokenAmount\n    );\n\n \n    event LiquidityRemovedFromV1(\n        address indexed _provider,\n        address indexed _reserveToken,\n        uint256 indexed _reserveAmount\n    );\n\n    /**\n     * @dev triggered after liquidity is removed\n     *\n     * @param _beneficiary          account that will receive the conversion result or 0x0 to send the result to the sender account\n     * @param _sourceTokenAmount    amount to convert from, in the source token\n     * @param _targetTokenAmount    amount of tokens received from the conversion, in the target token\n     * @param _path                 conversion path between two tokens in the network\n     */\n    event TokenConverted(\n        address indexed _beneficiary,\n        uint256 indexed _sourceTokenAmount,\n        uint256 indexed _targetTokenAmount,\n        IERC20Token[] _path\n    );\n\n    /**\n     * @dev To check if ddress is contract address \n     */\n    modifier checkAddress(address address_) {\n        require(address_.isContract(), \"The address is not a contract\");\n        _;\n    }\n    \n    constructor(\n        address _wrbtcTokenAddress, \n        address _sovAddress, \n        address _sovrynSwapNetworkAddress\n    ) \n        public \n        checkAddress(_wrbtcTokenAddress) \n        checkAddress(_sovAddress) \n        checkAddress(_sovrynSwapNetworkAddress) \n    {\n        wrbtcTokenAddress = _wrbtcTokenAddress;\n        sovAddress = _sovAddress;\n        sovrynSwapNetworkAddress = _sovrynSwapNetworkAddress;\n    }\n\n    function() external payable {\n        require(wrbtcTokenAddress == msg.sender, \"Only can receive rBTC from WRBTC contract\");\n    }\n\n    /**\n     * @dev  \n     * The process:\n     * 1.Accepts RBTC\n     * 2.Sends RBTC to WRBTC contract in order to wrap RBTC to WRBTC\n     * 3.Calls 'addLiquidity' on LiquidityPoolConverter contract\n     * 4.Transfers pool tokens to user\n     * \n     * @param _liquidityPoolConverterAddress    address of LiquidityPoolConverter contract\n     * @param _amount                           amount of liquidity to add\n     * @param _minReturn                        minimum return-amount of reserve tokens\n     *\n     * @return amount of pool tokens minted\n     */\n    function addLiquidity(\n        address _liquidityPoolConverterAddress, \n        uint256 _amount, \n        uint256 _minReturn\n    )  \n        public\n        payable\n        checkAddress(_liquidityPoolConverterAddress)\n        returns(uint256) \n    {\n        require(_amount == msg.value, \"The provided amount should be identical to msg.value\");\n\n        ILiquidityPoolV2Converter _liquidityPoolConverter = ILiquidityPoolV2Converter(_liquidityPoolConverterAddress);\n        ISmartToken _poolToken = _liquidityPoolConverter.poolToken(IERC20Token(wrbtcTokenAddress));\n\n        (bool successOfDeposit, ) = wrbtcTokenAddress.call.value(_amount)(abi.encodeWithSignature(\"deposit()\"));\n        require(successOfDeposit);\n\n        bool successOfApprove = IWrbtcERC20(wrbtcTokenAddress).approve(_liquidityPoolConverterAddress, _amount);\n        require(successOfApprove);\n\n        uint256 poolTokenAmount = _liquidityPoolConverter.addLiquidity(IERC20Token(wrbtcTokenAddress), _amount, _minReturn);\n        \n        bool successOfTransfer = _poolToken.transfer(msg.sender, poolTokenAmount);\n        require(successOfTransfer);\n\n        emit LiquidityAdded(msg.sender, _amount, poolTokenAmount);\n\n        return poolTokenAmount;\n    }\n    \n    /**\n     * @notice \n     * Before calling this function to remove liquidity, users need approve this contract to be able to spend or transfer their pool tokens\n     *\n     * @dev  \n     * The process:     \n     * 1.Transfers pool tokens to this contract\n     * 2.Calls 'removeLiquidity' on LiquidityPoolConverter contract\n     * 3.Calls 'withdraw' on WRBTC contract in order to unwrap WRBTC to RBTC\n     * 4.Sneds RBTC to user\n     * \n     * @param _liquidityPoolConverterAddress    address of LiquidityPoolConverter contract\n     * @param _amount                           amount of pool tokens to burn\n     * @param _minReturn                        minimum return-amount of reserve tokens\n     * \n     * @return amount of liquidity removed also WRBTC unwrapped to RBTC\n     */\n    function removeLiquidity(\n        address _liquidityPoolConverterAddress, \n        uint256 _amount, \n        uint256 _minReturn\n    )   \n        public \n        checkAddress(_liquidityPoolConverterAddress)\n        returns(uint256) \n    {\n        ILiquidityPoolV2Converter _liquidityPoolConverter = ILiquidityPoolV2Converter(_liquidityPoolConverterAddress);\n        ISmartToken _poolToken = _liquidityPoolConverter.poolToken(IERC20Token(wrbtcTokenAddress));\n\n        bool successOfTransferFrom = _poolToken.transferFrom(msg.sender, address(this), _amount);\n        require(successOfTransferFrom);\n\n        uint256 reserveAmount = _liquidityPoolConverter.removeLiquidity(_poolToken, _amount, _minReturn);\n        \n        IWrbtcERC20(wrbtcTokenAddress).withdraw(reserveAmount);\n        \n        msg.sender.transfer(reserveAmount);\n\n        emit LiquidityRemoved(msg.sender, reserveAmount, _amount);\n\n        return reserveAmount;\n    }\n    \n    /**\n     * @notice\n     * Before calling this function to swap token to RBTC, users need approve this contract to be able to spend or transfer their tokens\n     *\n     * @param _path         conversion path between two tokens in the network\n     * @param _amount       amount to convert from, in the source token\n     * @param _minReturn    if the conversion results in an amount smaller than the minimum return - it is cancelled, must be greater than zero\n     * \n     * @return amount of tokens received from the conversion\n     */\n    function convertByPath(\n        IERC20Token[] memory _path,\n        uint256 _amount, \n        uint256 _minReturn\n    ) \n        public \n        payable\n        returns(uint256) \n    {    \n        ISovrynSwapNetwork _sovrynSwapNetwork =  ISovrynSwapNetwork(sovrynSwapNetworkAddress);\n  \n        if (msg.value != 0) {\n            require(_path[0] == IERC20Token(wrbtcTokenAddress), \"Value may only be sent for WRBTC transfers\");\n            require(_amount == msg.value, \"The provided amount should be identical to msg.value\");\n\n            (bool successOfDeposit, ) = wrbtcTokenAddress.call.value(_amount)(abi.encodeWithSignature(\"deposit()\"));\n            require(successOfDeposit);\n\n            bool successOfApprove = IWrbtcERC20(wrbtcTokenAddress).approve(sovrynSwapNetworkAddress, _amount);\n            require(successOfApprove);\n\n            uint256 _targetTokenAmount = _sovrynSwapNetwork.convertByPath(_path, _amount, _minReturn, msg.sender, address(0), 0);\n\n            emit TokenConverted(msg.sender, _amount, _targetTokenAmount, _path);\n\n            return _targetTokenAmount;\n        }\n        else {\n            require(_path[_path.length-1] == IERC20Token(wrbtcTokenAddress), \"It only could be swapped to WRBTC\");\n            \n            IERC20Token _token = IERC20Token(_path[0]);\n\n            bool successOfTransferFrom = _token.transferFrom(msg.sender, address(this), _amount);\n            require(successOfTransferFrom);\n\n            bool successOfApprove = _token.approve(sovrynSwapNetworkAddress, _amount);\n            require(successOfApprove);\n                 \n            uint256 _targetTokenAmount = _sovrynSwapNetwork.convertByPath(_path, _amount, _minReturn, address(this), address(0), 0);\n\n            IWrbtcERC20(wrbtcTokenAddress).withdraw(_targetTokenAmount);\n\n            msg.sender.transfer(_targetTokenAmount);\n\n            emit TokenConverted(msg.sender, _amount, _targetTokenAmount, _path);\n\n            return _targetTokenAmount;\n        }        \n    }\n\n    function addLiquidityToV1(\n        address _liquidityPoolConverterAddress,\n        IERC20Token[] memory _reserveTokens, \n        uint256[] memory _reserveAmounts, \n        uint256 _minReturn\n    )  \n        public\n        payable\n        checkAddress(_liquidityPoolConverterAddress)\n        returns(uint256) \n    {\n        uint256 lengthOfTokens = _reserveTokens.length;\n\n        require(_reserveAmounts.length == lengthOfTokens.add(1), \"The length of array is wrong\");\n        require(_reserveAmounts[lengthOfTokens] == msg.value, \"The provided amount of RBTC should be identical to msg.value\");\n\n        bool successOfTransfer;\n        bool successOfApprove;\n        \n        for (uint256 i = 0; i < lengthOfTokens; i++) {\n            IERC20Token reserveToken = _reserveTokens[i];\n            uint256 reserveAmount = _reserveAmounts[i];\n            successOfTransfer = IERC20Token(reserveToken).transferFrom(msg.sender, address(this), reserveAmount);\n            require(successOfTransfer, \"Failed to transfer reserve token from user\");\n            successOfApprove = IERC20Token(reserveToken).approve(_liquidityPoolConverterAddress, reserveAmount);\n            require(successOfApprove, \"Failed to approve converter to transfer reserve token\");\n        }\n\n        (bool successOfDeposit, ) = wrbtcTokenAddress.call.value(_reserveAmounts[lengthOfTokens])(abi.encodeWithSignature(\"deposit()\"));\n        require(successOfDeposit, \"Failed to deposit RBTC to get WRBTC\");\n        _reserveTokens[lengthOfTokens] = IERC20Token(wrbtcTokenAddress);\n        successOfApprove = IWrbtcERC20(wrbtcTokenAddress).approve(_liquidityPoolConverterAddress, _reserveAmounts[lengthOfTokens]);\n        require(successOfApprove, \"Failed to approve converter to transfer WRBTC\");\n\n        ILiquidityPoolV1Converter _liquidityPoolConverter = ILiquidityPoolV1Converter(_liquidityPoolConverterAddress);\n        ISmartToken _poolToken = ISmartToken(address(_liquidityPoolConverter.token()));\n        uint256 poolTokenAmountBefore = _poolToken.balanceOf(address(this));\n        _liquidityPoolConverter.addLiquidity(_reserveTokens, _reserveAmounts, _minReturn);\n        uint256 poolTokenAmountAfter = _poolToken.balanceOf(address(this));\n        uint256 poolTokenAmount = poolTokenAmountAfter.sub(poolTokenAmountBefore);\n        \n        successOfTransfer = _poolToken.transfer(msg.sender, poolTokenAmount);\n        require(successOfTransfer, \"Failed to transfer pool token to user\");\n\n        emit LiquidityAddedToV1(msg.sender, _reserveTokens, _reserveAmounts, poolTokenAmount);\n\n        return poolTokenAmount;\n    }\n\n    \n    function removeLiquidityFromV1(\n        address _liquidityPoolConverterAddress,\n        uint256 _amount, \n        IERC20Token[] memory _reserveTokens, \n        uint256[] memory _reserveMinReturnAmounts\n    )   \n        public \n        checkAddress(_liquidityPoolConverterAddress)\n    {\n        require(_amount > 0, \"The amount should larger than zero\");\n\n        ILiquidityPoolV1Converter _liquidityPoolConverter = ILiquidityPoolV1Converter(_liquidityPoolConverterAddress);\n        ISmartToken _poolToken = ISmartToken(address(_liquidityPoolConverter.token()));\n\n        bool successOfTransferFrom = _poolToken.transferFrom(msg.sender, address(this), _amount);\n        require(successOfTransferFrom);\n\n        IERC20Token reserveToken;\n        uint256[] memory reserveAmountBefore;\n        for (uint256 i = 0; i < _reserveTokens.length; i++) {\n            reserveToken = _reserveTokens[i];\n            reserveAmountBefore[i] = reserveToken.balanceOf(address(this));\n        }\n\n        _liquidityPoolConverter.removeLiquidity(_amount, _reserveTokens, _reserveMinReturnAmounts);\n\n        uint256 reserveAmount;\n        for (uint256 i = 0; i < _reserveTokens.length; i++) {\n            reserveToken = _reserveTokens[i];\n            \n            reserveAmount = reserveToken.balanceOf(address(this)).sub(reserveAmountBefore[i]); \n            require(reserveAmount >= _reserveMinReturnAmounts[i], \"ERR_ZERO_TARGET_AMOUNT\");\n\n            if (address(reserveToken) == wrbtcTokenAddress) {\n                IWrbtcERC20(wrbtcTokenAddress).withdraw(reserveAmount);\n                msg.sender.transfer(reserveAmount);\n            } else {\n                IERC20Token(reserveToken).transfer(msg.sender, reserveAmount);\n            }\n\n            emit LiquidityRemovedFromV1(msg.sender, address(reserveToken), reserveAmount);\n        }\n    }\n\n}",
  "sourcePath": "/Users/hsiang/Desktop/new RBTCWrapperProxy/contracts/RBTCWrapperProxy.sol",
  "compiler": {
    "name": "solc",
    "version": "0.5.16+commit.9c3226ce.Emscripten.clang"
  },
  "schemaVersion": "3.3.2",
  "updatedAt": "2021-03-26T10:12:08.274Z",
  "devdoc": {
    "methods": {
      "addLiquidity(address,uint256,uint256)": {
        "details": " The process: 1.Accepts RBTC 2.Sends RBTC to WRBTC contract in order to wrap RBTC to WRBTC 3.Calls 'addLiquidity' on LiquidityPoolConverter contract 4.Transfers pool tokens to user ",
        "params": {
          "_amount": "amount of liquidity to add",
          "_liquidityPoolConverterAddress": "address of LiquidityPoolConverter contract",
          "_minReturn": "minimum return-amount of reserve tokens"
        },
        "return": "amount of pool tokens minted"
      },
      "convertByPath(address[],uint256,uint256)": {
        "params": {
          "_amount": "amount to convert from, in the source token",
          "_minReturn": "if the conversion results in an amount smaller than the minimum return - it is cancelled, must be greater than zero ",
          "_path": "conversion path between two tokens in the network"
        },
        "return": "amount of tokens received from the conversion"
      },
      "removeLiquidity(address,uint256,uint256)": {
        "details": " The process:      1.Transfers pool tokens to this contract 2.Calls 'removeLiquidity' on LiquidityPoolConverter contract 3.Calls 'withdraw' on WRBTC contract in order to unwrap WRBTC to RBTC 4.Sneds RBTC to user ",
        "params": {
          "_amount": "amount of pool tokens to burn",
          "_liquidityPoolConverterAddress": "address of LiquidityPoolConverter contract",
          "_minReturn": "minimum return-amount of reserve tokens "
        },
        "return": "amount of liquidity removed also WRBTC unwrapped to RBTC"
      }
    }
  },
  "userdoc": {
    "methods": {
      "convertByPath(address[],uint256,uint256)": {
        "notice": "Before calling this function to swap token to RBTC, users need approve this contract to be able to spend or transfer their tokens"
      },
      "removeLiquidity(address,uint256,uint256)": {
        "notice": " Before calling this function to remove liquidity, users need approve this contract to be able to spend or transfer their pool tokens"
      }
    }
  }
}