{
  "contractName": "RBTCWrapperProxy",
  "abi": [
    {
      "inputs": [
        {
          "internalType": "address",
          "name": "_wrbtcTokenAddress",
          "type": "address"
        },
        {
          "internalType": "address",
          "name": "_sovrynSwapNetworkAddress",
          "type": "address"
        },
        {
          "internalType": "contract IContractRegistry",
          "name": "_registry",
          "type": "address"
        }
      ],
      "payable": false,
      "stateMutability": "nonpayable",
      "type": "constructor"
    },
    {
      "anonymous": false,
      "inputs": [
        {
          "indexed": true,
          "internalType": "address",
          "name": "_provider",
          "type": "address"
        },
        {
          "indexed": false,
          "internalType": "uint256",
          "name": "_reserveAmount",
          "type": "uint256"
        },
        {
          "indexed": false,
          "internalType": "uint256",
          "name": "_poolTokenAmount",
          "type": "uint256"
        }
      ],
      "name": "LiquidityAdded",
      "type": "event"
    },
    {
      "anonymous": false,
      "inputs": [
        {
          "indexed": true,
          "internalType": "address",
          "name": "_provider",
          "type": "address"
        },
        {
          "indexed": false,
          "internalType": "contract IERC20Token[]",
          "name": "_reserveTokens",
          "type": "address[]"
        },
        {
          "indexed": false,
          "internalType": "uint256[]",
          "name": "_reserveAmounts",
          "type": "uint256[]"
        },
        {
          "indexed": false,
          "internalType": "uint256",
          "name": "_poolTokenAmount",
          "type": "uint256"
        }
      ],
      "name": "LiquidityAddedToV1",
      "type": "event"
    },
    {
      "anonymous": false,
      "inputs": [
        {
          "indexed": true,
          "internalType": "address",
          "name": "_provider",
          "type": "address"
        },
        {
          "indexed": false,
          "internalType": "uint256",
          "name": "_reserveAmount",
          "type": "uint256"
        },
        {
          "indexed": false,
          "internalType": "uint256",
          "name": "_poolTokenAmount",
          "type": "uint256"
        }
      ],
      "name": "LiquidityRemoved",
      "type": "event"
    },
    {
      "anonymous": false,
      "inputs": [
        {
          "indexed": true,
          "internalType": "address",
          "name": "_provider",
          "type": "address"
        },
        {
          "indexed": false,
          "internalType": "contract IERC20Token[]",
          "name": "_reserveTokens",
          "type": "address[]"
        },
        {
          "indexed": false,
          "internalType": "uint256[]",
          "name": "_reserveAmounts",
          "type": "uint256[]"
        }
      ],
      "name": "LiquidityRemovedFromV1",
      "type": "event"
    },
    {
      "anonymous": false,
      "inputs": [
        {
          "indexed": true,
          "internalType": "address",
          "name": "_prevOwner",
          "type": "address"
        },
        {
          "indexed": true,
          "internalType": "address",
          "name": "_newOwner",
          "type": "address"
        }
      ],
      "name": "OwnerUpdate",
      "type": "event"
    },
    {
      "anonymous": false,
      "inputs": [
        {
          "indexed": true,
          "internalType": "address",
          "name": "_beneficiary",
          "type": "address"
        },
        {
          "indexed": true,
          "internalType": "uint256",
          "name": "_sourceTokenAmount",
          "type": "uint256"
        },
        {
          "indexed": true,
          "internalType": "uint256",
          "name": "_targetTokenAmount",
          "type": "uint256"
        },
        {
          "indexed": false,
          "internalType": "contract IERC20Token[]",
          "name": "_path",
          "type": "address[]"
        }
      ],
      "name": "TokenConverted",
      "type": "event"
    },
    {
      "payable": true,
      "stateMutability": "payable",
      "type": "fallback"
    },
    {
      "constant": false,
      "inputs": [],
      "name": "acceptOwnership",
      "outputs": [],
      "payable": false,
      "stateMutability": "nonpayable",
      "type": "function"
    },
    {
      "constant": true,
      "inputs": [],
      "name": "newOwner",
      "outputs": [
        {
          "internalType": "address",
          "name": "",
          "type": "address"
        }
      ],
      "payable": false,
      "stateMutability": "view",
      "type": "function"
    },
    {
      "constant": true,
      "inputs": [],
      "name": "onlyOwnerCanUpdateRegistry",
      "outputs": [
        {
          "internalType": "bool",
          "name": "",
          "type": "bool"
        }
      ],
      "payable": false,
      "stateMutability": "view",
      "type": "function"
    },
    {
      "constant": true,
      "inputs": [],
      "name": "owner",
      "outputs": [
        {
          "internalType": "address",
          "name": "",
          "type": "address"
        }
      ],
      "payable": false,
      "stateMutability": "view",
      "type": "function"
    },
    {
      "constant": true,
      "inputs": [],
      "name": "prevRegistry",
      "outputs": [
        {
          "internalType": "contract IContractRegistry",
          "name": "",
          "type": "address"
        }
      ],
      "payable": false,
      "stateMutability": "view",
      "type": "function"
    },
    {
      "constant": true,
      "inputs": [],
      "name": "registry",
      "outputs": [
        {
          "internalType": "contract IContractRegistry",
          "name": "",
          "type": "address"
        }
      ],
      "payable": false,
      "stateMutability": "view",
      "type": "function"
    },
    {
      "constant": false,
      "inputs": [],
      "name": "restoreRegistry",
      "outputs": [],
      "payable": false,
      "stateMutability": "nonpayable",
      "type": "function"
    },
    {
      "constant": false,
      "inputs": [
        {
          "internalType": "bool",
          "name": "_onlyOwnerCanUpdateRegistry",
          "type": "bool"
        }
      ],
      "name": "restrictRegistryUpdate",
      "outputs": [],
      "payable": false,
      "stateMutability": "nonpayable",
      "type": "function"
    },
    {
      "constant": true,
      "inputs": [],
      "name": "sovrynSwapNetworkAddress",
      "outputs": [
        {
          "internalType": "address",
          "name": "",
          "type": "address"
        }
      ],
      "payable": false,
      "stateMutability": "view",
      "type": "function"
    },
    {
      "constant": false,
      "inputs": [
        {
          "internalType": "address",
          "name": "_newOwner",
          "type": "address"
        }
      ],
      "name": "transferOwnership",
      "outputs": [],
      "payable": false,
      "stateMutability": "nonpayable",
      "type": "function"
    },
    {
      "constant": false,
      "inputs": [],
      "name": "updateRegistry",
      "outputs": [],
      "payable": false,
      "stateMutability": "nonpayable",
      "type": "function"
    },
    {
      "constant": true,
      "inputs": [],
      "name": "wrbtcTokenAddress",
      "outputs": [
        {
          "internalType": "address",
          "name": "",
          "type": "address"
        }
      ],
      "payable": false,
      "stateMutability": "view",
      "type": "function"
    },
    {
      "constant": false,
      "inputs": [
        {
          "internalType": "address",
          "name": "_liquidityPoolConverterAddress",
          "type": "address"
        },
        {
          "internalType": "uint256",
          "name": "_amount",
          "type": "uint256"
        },
        {
          "internalType": "uint256",
          "name": "_minReturn",
          "type": "uint256"
        }
      ],
      "name": "addLiquidity",
      "outputs": [
        {
          "internalType": "uint256",
          "name": "",
          "type": "uint256"
        }
      ],
      "payable": true,
      "stateMutability": "payable",
      "type": "function"
    },
    {
      "constant": false,
      "inputs": [
        {
          "internalType": "address",
          "name": "_liquidityPoolConverterAddress",
          "type": "address"
        },
        {
          "internalType": "contract IERC20Token[]",
          "name": "_reserveTokens",
          "type": "address[]"
        },
        {
          "internalType": "uint256[]",
          "name": "_reserveAmounts",
          "type": "uint256[]"
        },
        {
          "internalType": "uint256",
          "name": "_minReturn",
          "type": "uint256"
        }
      ],
      "name": "addLiquidityToV1",
      "outputs": [
        {
          "internalType": "uint256",
          "name": "",
          "type": "uint256"
        }
      ],
      "payable": true,
      "stateMutability": "payable",
      "type": "function"
    },
    {
      "constant": false,
      "inputs": [
        {
          "internalType": "address",
          "name": "_liquidityPoolConverterAddress",
          "type": "address"
        },
        {
          "internalType": "uint256",
          "name": "_amount",
          "type": "uint256"
        },
        {
          "internalType": "uint256",
          "name": "_minReturn",
          "type": "uint256"
        }
      ],
      "name": "removeLiquidity",
      "outputs": [
        {
          "internalType": "uint256",
          "name": "",
          "type": "uint256"
        }
      ],
      "payable": false,
      "stateMutability": "nonpayable",
      "type": "function"
    },
    {
      "constant": false,
      "inputs": [
        {
          "internalType": "address",
          "name": "_liquidityPoolConverterAddress",
          "type": "address"
        },
        {
          "internalType": "uint256",
          "name": "_amount",
          "type": "uint256"
        },
        {
          "internalType": "contract IERC20Token[]",
          "name": "_reserveTokens",
          "type": "address[]"
        },
        {
          "internalType": "uint256[]",
          "name": "_reserveMinReturnAmounts",
          "type": "uint256[]"
        }
      ],
      "name": "removeLiquidityFromV1",
      "outputs": [],
      "payable": false,
      "stateMutability": "nonpayable",
      "type": "function"
    },
    {
      "constant": false,
      "inputs": [
        {
          "internalType": "contract IERC20Token[]",
          "name": "_path",
          "type": "address[]"
        },
        {
          "internalType": "uint256",
          "name": "_amount",
          "type": "uint256"
        },
        {
          "internalType": "uint256",
          "name": "_minReturn",
          "type": "uint256"
        }
      ],
      "name": "convertByPath",
      "outputs": [
        {
          "internalType": "uint256",
          "name": "",
          "type": "uint256"
        }
      ],
      "payable": true,
      "stateMutability": "payable",
      "type": "function"
    }
  ],
  "bytecode": "0x60806040523480156200001157600080fd5b50604051620050af380380620050af833981810160405260608110156200003757600080fd5b8101908080519060200190929190805190602001909291908051906020019092919050505080336000806101000a81548173ffffffffffffffffffffffffffffffffffffffff021916908373ffffffffffffffffffffffffffffffffffffffff16021790555080620000af816200030060201b60201c565b81600260006101000a81548173ffffffffffffffffffffffffffffffffffffffff021916908373ffffffffffffffffffffffffffffffffffffffff16021790555081600360006101000a81548173ffffffffffffffffffffffffffffffffffffffff021916908373ffffffffffffffffffffffffffffffffffffffff160217905550505082620001608173ffffffffffffffffffffffffffffffffffffffff16620003a760201b6200494c1760201c565b620001d3576040517f08c379a000000000000000000000000000000000000000000000000000000000815260040180806020018281038252601d8152602001807f5468652061646472657373206973206e6f74206120636f6e747261637400000081525060200191505060405180910390fd5b82620002008173ffffffffffffffffffffffffffffffffffffffff16620003a760201b6200494c1760201c565b62000273576040517f08c379a000000000000000000000000000000000000000000000000000000000815260040180806020018281038252601d8152602001807f5468652061646472657373206973206e6f74206120636f6e747261637400000081525060200191505060405180910390fd5b84600460006101000a81548173ffffffffffffffffffffffffffffffffffffffff021916908373ffffffffffffffffffffffffffffffffffffffff16021790555083600560006101000a81548173ffffffffffffffffffffffffffffffffffffffff021916908373ffffffffffffffffffffffffffffffffffffffff1602179055505050505050620003f3565b600073ffffffffffffffffffffffffffffffffffffffff168173ffffffffffffffffffffffffffffffffffffffff161415620003a4576040517f08c379a00000000000000000000000000000000000000000000000000000000081526004018080602001828103825260138152602001807f4552525f494e56414c49445f414444524553530000000000000000000000000081525060200191505060405180910390fd5b50565b60008060007fc5d2460186f7233c927e7db2dcc703c0e500b653ca82273b7bfad8045d85a47060001b9050833f9150808214158015620003ea57506000801b8214155b92505050919050565b614cac80620004036000396000f3fe6080604052600436106100fe5760003560e01c806379ba509711610095578063b4a176d311610064578063b4a176d3146106c9578063d4ee1d90146106e0578063e38192e314610737578063e94190ed146107b0578063f2fde38b14610933576100fe565b806379ba5097146105245780637b1039991461053b5780638da5cb5b14610592578063b37a4831146105e9576100fe565b806349d10b64116100d157806349d10b64146102c057806355776b77146102d757806360dc20cd1461034357806361cd756e146104cd576100fe565b8063024c7ec7146101a65780632f6b600d146101e35780632fe8a6ad1461023a57806343fe0f0d14610269575b3373ffffffffffffffffffffffffffffffffffffffff16600460009054906101000a900473ffffffffffffffffffffffffffffffffffffffff1673ffffffffffffffffffffffffffffffffffffffff16146101a4576040517f08c379a0000000000000000000000000000000000000000000000000000000008152600401808060200182810382526029815260200180614a3d6029913960400191505060405180910390fd5b005b3480156101b257600080fd5b506101e1600480360360208110156101c957600080fd5b81019080803515159060200190929190505050610984565b005b3480156101ef57600080fd5b506101f86109a9565b604051808273ffffffffffffffffffffffffffffffffffffffff1673ffffffffffffffffffffffffffffffffffffffff16815260200191505060405180910390f35b34801561024657600080fd5b5061024f6109cf565b604051808215151515815260200191505060405180910390f35b34801561027557600080fd5b5061027e6109e2565b604051808273ffffffffffffffffffffffffffffffffffffffff1673ffffffffffffffffffffffffffffffffffffffff16815260200191505060405180910390f35b3480156102cc57600080fd5b506102d5610a08565b005b61032d600480360360608110156102ed57600080fd5b81019080803573ffffffffffffffffffffffffffffffffffffffff1690602001909291908035906020019092919080359060200190929190505050610e01565b6040518082815260200191505060405180910390f35b6104b76004803603608081101561035957600080fd5b81019080803573ffffffffffffffffffffffffffffffffffffffff1690602001909291908035906020019064010000000081111561039657600080fd5b8201836020820111156103a857600080fd5b803590602001918460208302840111640100000000831117156103ca57600080fd5b919080806020026020016040519081016040528093929190818152602001838360200280828437600081840152601f19601f8201169050808301925050505050505091929192908035906020019064010000000081111561042a57600080fd5b82018360208201111561043c57600080fd5b8035906020019184602083028401116401000000008311171561045e57600080fd5b919080806020026020016040519081016040528093929190818152602001838360200280828437600081840152601f19601f8201169050808301925050505050505091929192908035906020019092919050505061136b565b6040518082815260200191505060405180910390f35b3480156104d957600080fd5b506104e261274b565b604051808273ffffffffffffffffffffffffffffffffffffffff1673ffffffffffffffffffffffffffffffffffffffff16815260200191505060405180910390f35b34801561053057600080fd5b50610539612771565b005b34801561054757600080fd5b50610550612977565b604051808273ffffffffffffffffffffffffffffffffffffffff1673ffffffffffffffffffffffffffffffffffffffff16815260200191505060405180910390f35b34801561059e57600080fd5b506105a761299d565b604051808273ffffffffffffffffffffffffffffffffffffffff1673ffffffffffffffffffffffffffffffffffffffff16815260200191505060405180910390f35b6106b3600480360360608110156105ff57600080fd5b810190808035906020019064010000000081111561061c57600080fd5b82018360208201111561062e57600080fd5b8035906020019184602083028401116401000000008311171561065057600080fd5b919080806020026020016040519081016040528093929190818152602001838360200280828437600081840152601f19601f82011690508083019250505050505050919291929080359060200190929190803590602001909291905050506129c2565b6040518082815260200191505060405180910390f35b3480156106d557600080fd5b506106de6134b6565b005b3480156106ec57600080fd5b506106f5613523565b604051808273ffffffffffffffffffffffffffffffffffffffff1673ffffffffffffffffffffffffffffffffffffffff16815260200191505060405180910390f35b34801561074357600080fd5b5061079a6004803603606081101561075a57600080fd5b81019080803573ffffffffffffffffffffffffffffffffffffffff1690602001909291908035906020019092919080359060200190929190505050613549565b6040518082815260200191505060405180910390f35b3480156107bc57600080fd5b50610931600480360360808110156107d357600080fd5b81019080803573ffffffffffffffffffffffffffffffffffffffff169060200190929190803590602001909291908035906020019064010000000081111561081a57600080fd5b82018360208201111561082c57600080fd5b8035906020019184602083028401116401000000008311171561084e57600080fd5b919080806020026020016040519081016040528093929190818152602001838360200280828437600081840152601f19601f820116905080830192505050505050509192919290803590602001906401000000008111156108ae57600080fd5b8201836020820111156108c057600080fd5b803590602001918460208302840111640100000000831117156108e257600080fd5b919080806020026020016040519081016040528093929190818152602001838360200280828437600081840152601f19601f820116905080830192505050505050509192919290505050613a61565b005b34801561093f57600080fd5b506109826004803603602081101561095657600080fd5b81019080803573ffffffffffffffffffffffffffffffffffffffff1690602001909291905050506146c2565b005b61098c6147d1565b80600360146101000a81548160ff02191690831515021790555050565b600460009054906101000a900473ffffffffffffffffffffffffffffffffffffffff1681565b600360149054906101000a900460ff1681565b600560009054906101000a900473ffffffffffffffffffffffffffffffffffffffff1681565b6000809054906101000a900473ffffffffffffffffffffffffffffffffffffffff1673ffffffffffffffffffffffffffffffffffffffff163373ffffffffffffffffffffffffffffffffffffffff161480610a705750600360149054906101000a900460ff16155b610ae2576040517f08c379a00000000000000000000000000000000000000000000000000000000081526004018080602001828103825260118152602001807f4552525f4143434553535f44454e49454400000000000000000000000000000081525060200191505060405180910390fd5b6000610b0d7f436f6e7472616374526567697374727900000000000000000000000000000000614895565b9050600260009054906101000a900473ffffffffffffffffffffffffffffffffffffffff1673ffffffffffffffffffffffffffffffffffffffff168173ffffffffffffffffffffffffffffffffffffffff1614158015610b9a5750600073ffffffffffffffffffffffffffffffffffffffff168173ffffffffffffffffffffffffffffffffffffffff1614155b610c0c576040517f08c379a00000000000000000000000000000000000000000000000000000000081526004018080602001828103825260148152602001807f4552525f494e56414c49445f524547495354525900000000000000000000000081525060200191505060405180910390fd5b600073ffffffffffffffffffffffffffffffffffffffff168173ffffffffffffffffffffffffffffffffffffffff1663bb34534c7f436f6e74726163745265676973747279000000000000000000000000000000006040518263ffffffff1660e01b81526004018082815260200191505060206040518083038186803b158015610c9557600080fd5b505afa158015610ca9573d6000803e3d6000fd5b505050506040513d6020811015610cbf57600080fd5b810190808051906020019092919050505073ffffffffffffffffffffffffffffffffffffffff161415610d5a576040517f08c379a00000000000000000000000000000000000000000000000000000000081526004018080602001828103825260148152602001807f4552525f494e56414c49445f524547495354525900000000000000000000000081525060200191505060405180910390fd5b600260009054906101000a900473ffffffffffffffffffffffffffffffffffffffff16600360006101000a81548173ffffffffffffffffffffffffffffffffffffffff021916908373ffffffffffffffffffffffffffffffffffffffff16021790555080600260006101000a81548173ffffffffffffffffffffffffffffffffffffffff021916908373ffffffffffffffffffffffffffffffffffffffff16021790555050565b600083610e238173ffffffffffffffffffffffffffffffffffffffff1661494c565b610e95576040517f08c379a000000000000000000000000000000000000000000000000000000000815260040180806020018281038252601d8152602001807f5468652061646472657373206973206e6f74206120636f6e747261637400000081525060200191505060405180910390fd5b348414610eed576040517f08c379a0000000000000000000000000000000000000000000000000000000008152600401808060200182810382526034815260200180614b866034913960400191505060405180910390fd5b600085905060008173ffffffffffffffffffffffffffffffffffffffff16635768adcf600460009054906101000a900473ffffffffffffffffffffffffffffffffffffffff166040518263ffffffff1660e01b8152600401808273ffffffffffffffffffffffffffffffffffffffff1673ffffffffffffffffffffffffffffffffffffffff16815260200191505060206040518083038186803b158015610f9357600080fd5b505afa158015610fa7573d6000803e3d6000fd5b505050506040513d6020811015610fbd57600080fd5b81019080805190602001909291905050509050600460009054906101000a900473ffffffffffffffffffffffffffffffffffffffff1673ffffffffffffffffffffffffffffffffffffffff1663d0e30db0876040518263ffffffff1660e01b81526004016000604051808303818588803b15801561103a57600080fd5b505af115801561104e573d6000803e3d6000fd5b50505050506000600460009054906101000a900473ffffffffffffffffffffffffffffffffffffffff1673ffffffffffffffffffffffffffffffffffffffff1663095ea7b389896040518363ffffffff1660e01b8152600401808373ffffffffffffffffffffffffffffffffffffffff1673ffffffffffffffffffffffffffffffffffffffff16815260200182815260200192505050602060405180830381600087803b1580156110fe57600080fd5b505af1158015611112573d6000803e3d6000fd5b505050506040513d602081101561112857600080fd5b810190808051906020019092919050505090508061114557600080fd5b60008373ffffffffffffffffffffffffffffffffffffffff166355776b77600460009054906101000a900473ffffffffffffffffffffffffffffffffffffffff168a8a6040518463ffffffff1660e01b8152600401808473ffffffffffffffffffffffffffffffffffffffff1673ffffffffffffffffffffffffffffffffffffffff1681526020018381526020018281526020019350505050602060405180830381600087803b1580156111f857600080fd5b505af115801561120c573d6000803e3d6000fd5b505050506040513d602081101561122257600080fd5b8101908080519060200190929190505050905060008373ffffffffffffffffffffffffffffffffffffffff1663a9059cbb33846040518363ffffffff1660e01b8152600401808373ffffffffffffffffffffffffffffffffffffffff1673ffffffffffffffffffffffffffffffffffffffff16815260200182815260200192505050602060405180830381600087803b1580156112be57600080fd5b505af11580156112d2573d6000803e3d6000fd5b505050506040513d60208110156112e857600080fd5b810190808051906020019092919050505090508061130557600080fd5b3373ffffffffffffffffffffffffffffffffffffffff167fac1d76749e5447b7b16f5ab61447e1bd502f3bb4807af3b28e620d1700a6ee458a84604051808381526020018281526020019250505060405180910390a28196505050505050509392505050565b60008461138d8173ffffffffffffffffffffffffffffffffffffffff1661494c565b6113ff576040517f08c379a000000000000000000000000000000000000000000000000000000000815260040180806020018281038252601d8152602001807f5468652061646472657373206973206e6f74206120636f6e747261637400000081525060200191505060405180910390fd5b600460009054906101000a900473ffffffffffffffffffffffffffffffffffffffff1673ffffffffffffffffffffffffffffffffffffffff168560008151811061144557fe5b602002602001015173ffffffffffffffffffffffffffffffffffffffff16146114b9576040517f08c379a0000000000000000000000000000000000000000000000000000000008152600401808060200182810382526025815260200180614a906025913960400191505060405180910390fd5b34846000815181106114c757fe5b602002602001015114611525576040517f08c379a000000000000000000000000000000000000000000000000000000000815260040180806020018281038252603c815260200180614c3c603c913960400191505060405180910390fd5b600080600088905060008173ffffffffffffffffffffffffffffffffffffffff1663fc0c546a6040518163ffffffff1660e01b815260040160206040518083038186803b15801561157557600080fd5b505afa158015611589573d6000803e3d6000fd5b505050506040513d602081101561159f57600080fd5b8101908080519060200190929190505050905060008273ffffffffffffffffffffffffffffffffffffffff16630c7d5cd86040518163ffffffff1660e01b815260040160206040518083038186803b1580156115fa57600080fd5b505afa15801561160e573d6000803e3d6000fd5b505050506040513d602081101561162457600080fd5b8101908080519060200190929190505050905060008273ffffffffffffffffffffffffffffffffffffffff166318160ddd6040518163ffffffff1660e01b815260040160206040518083038186803b15801561167f57600080fd5b505afa158015611693573d6000803e3d6000fd5b505050506040513d60208110156116a957600080fd5b8101908080519060200190929190505050905060608b516040519080825280602002602001820160405280156116ee5781602001602082028038833980820191505090505b509050600460009054906101000a900473ffffffffffffffffffffffffffffffffffffffff1673ffffffffffffffffffffffffffffffffffffffff1663d0e30db08c60008151811061173c57fe5b60200260200101516040518263ffffffff1660e01b81526004016000604051808303818588803b15801561176f57600080fd5b505af1158015611783573d6000803e3d6000fd5b5050505050600460009054906101000a900473ffffffffffffffffffffffffffffffffffffffff1673ffffffffffffffffffffffffffffffffffffffff1663095ea7b38e8d6000815181106117d457fe5b60200260200101516040518363ffffffff1660e01b8152600401808373ffffffffffffffffffffffffffffffffffffffff1673ffffffffffffffffffffffffffffffffffffffff16815260200182815260200192505050602060405180830381600087803b15801561184557600080fd5b505af1158015611859573d6000803e3d6000fd5b505050506040513d602081101561186f57600080fd5b81019080805190602001909291905050509650866118d8576040517f08c379a000000000000000000000000000000000000000000000000000000000815260040180806020018281038252602d815260200180614b31602d913960400191505060405180910390fd5b6000600190505b8c51811015611cbe578c81815181106118f457fe5b602002602001015173ffffffffffffffffffffffffffffffffffffffff166323b872dd33308f858151811061192557fe5b60200260200101516040518463ffffffff1660e01b8152600401808473ffffffffffffffffffffffffffffffffffffffff1673ffffffffffffffffffffffffffffffffffffffff1681526020018373ffffffffffffffffffffffffffffffffffffffff1673ffffffffffffffffffffffffffffffffffffffff1681526020018281526020019350505050602060405180830381600087803b1580156119c957600080fd5b505af11580156119dd573d6000803e3d6000fd5b505050506040513d60208110156119f357600080fd5b8101908080519060200190929190505050975087611a5c576040517f08c379a000000000000000000000000000000000000000000000000000000000815260040180806020018281038252602a815260200180614c12602a913960400191505060405180910390fd5b8c8181518110611a6857fe5b602002602001015173ffffffffffffffffffffffffffffffffffffffff1663095ea7b38f8e8481518110611a9857fe5b60200260200101516040518363ffffffff1660e01b8152600401808373ffffffffffffffffffffffffffffffffffffffff1673ffffffffffffffffffffffffffffffffffffffff16815260200182815260200192505050602060405180830381600087803b158015611b0957600080fd5b505af1158015611b1d573d6000803e3d6000fd5b505050506040513d6020811015611b3357600080fd5b8101908080519060200190929190505050975087611b9c576040517f08c379a0000000000000000000000000000000000000000000000000000000008152600401808060200182810382526035815260200180614ad66035913960400191505060405180910390fd5b8573ffffffffffffffffffffffffffffffffffffffff1663d66bd5248e8381518110611bc457fe5b60200260200101516040518263ffffffff1660e01b8152600401808273ffffffffffffffffffffffffffffffffffffffff1673ffffffffffffffffffffffffffffffffffffffff16815260200191505060a06040518083038186803b158015611c2c57600080fd5b505afa158015611c40573d6000803e3d6000fd5b505050506040513d60a0811015611c5657600080fd5b81019080805190602001909291908051906020019092919080519060200190929190805190602001909291908051906020019092919050505090919250909150905050828281518110611ca557fe5b60200260200101818152505080806001019150506118df565b508473ffffffffffffffffffffffffffffffffffffffff1663d66bd524600460009054906101000a900473ffffffffffffffffffffffffffffffffffffffff166040518263ffffffff1660e01b8152600401808273ffffffffffffffffffffffffffffffffffffffff1673ffffffffffffffffffffffffffffffffffffffff16815260200191505060a06040518083038186803b158015611d5e57600080fd5b505afa158015611d72573d6000803e3d6000fd5b505050506040513d60a0811015611d8857600080fd5b8101908080519060200190929190805190602001909291908051906020019092919080519060200190929190805190602001909291905050509091925090915090505081600081518110611dd857fe5b60200260200101818152505060008473ffffffffffffffffffffffffffffffffffffffff166370a08231306040518263ffffffff1660e01b8152600401808273ffffffffffffffffffffffffffffffffffffffff1673ffffffffffffffffffffffffffffffffffffffff16815260200191505060206040518083038186803b158015611e6357600080fd5b505afa158015611e77573d6000803e3d6000fd5b505050506040513d6020811015611e8d57600080fd5b810190808051906020019092919050505090508573ffffffffffffffffffffffffffffffffffffffff16637d8916bd8e8e8e6040518463ffffffff1660e01b8152600401808060200180602001848152602001838103835286818151815260200191508051906020019060200280838360005b83811015611f1b578082015181840152602081019050611f00565b50505050905001838103825285818151815260200191508051906020019060200280838360005b83811015611f5d578082015181840152602081019050611f42565b5050505090500195505050505050600060405180830381600087803b158015611f8557600080fd5b505af1158015611f99573d6000803e3d6000fd5b505050506000612069828773ffffffffffffffffffffffffffffffffffffffff166370a08231306040518263ffffffff1660e01b8152600401808273ffffffffffffffffffffffffffffffffffffffff1673ffffffffffffffffffffffffffffffffffffffff16815260200191505060206040518083038186803b15801561202057600080fd5b505afa158015612034573d6000803e3d6000fd5b505050506040513d602081101561204a57600080fd5b810190808051906020019092919050505061499790919063ffffffff16565b90508573ffffffffffffffffffffffffffffffffffffffff1663a9059cbb33836040518363ffffffff1660e01b8152600401808373ffffffffffffffffffffffffffffffffffffffff1673ffffffffffffffffffffffffffffffffffffffff16815260200182815260200192505050602060405180830381600087803b1580156120f257600080fd5b505af1158015612106573d6000803e3d6000fd5b505050506040513d602081101561211c57600080fd5b8101908080519060200190929190505050985088612185576040517f08c379a0000000000000000000000000000000000000000000000000000000008152600401808060200182810382526025815260200180614bed6025913960400191505060405180910390fd5b6000600190505b8e518110156123eb576122a56121c17f536f7672796e53776170466f726d756c61000000000000000000000000000000614895565b73ffffffffffffffffffffffffffffffffffffffff1663ebbb2158878785815181106121e957fe5b60200260200101518a876040518563ffffffff1660e01b8152600401808581526020018481526020018363ffffffff1663ffffffff16815260200182815260200194505050505060206040518083038186803b15801561224857600080fd5b505afa15801561225c573d6000803e3d6000fd5b505050506040513d602081101561227257600080fd5b81019080805190602001909291905050508f838151811061228f57fe5b602002602001015161499790919063ffffffff16565b985060008911156123de578e81815181106122bc57fe5b602002602001015173ffffffffffffffffffffffffffffffffffffffff1663a9059cbb338b6040518363ffffffff1660e01b8152600401808373ffffffffffffffffffffffffffffffffffffffff1673ffffffffffffffffffffffffffffffffffffffff16815260200182815260200192505050602060405180830381600087803b15801561234a57600080fd5b505af115801561235e573d6000803e3d6000fd5b505050506040513d602081101561237457600080fd5b81019080805190602001909291905050509950896123dd576040517f08c379a0000000000000000000000000000000000000000000000000000000008152600401808060200182810382526033815260200180614bba6033913960400191505060405180910390fd5b5b808060010191505061218c565b506124fe6124187f536f7672796e53776170466f726d756c61000000000000000000000000000000614895565b73ffffffffffffffffffffffffffffffffffffffff1663ebbb2158868660008151811061244157fe5b602002602001015189866040518563ffffffff1660e01b8152600401808581526020018481526020018363ffffffff1663ffffffff16815260200182815260200194505050505060206040518083038186803b1580156124a057600080fd5b505afa1580156124b4573d6000803e3d6000fd5b505050506040513d60208110156124ca57600080fd5b81019080805190602001909291905050508e6000815181106124e857fe5b602002602001015161499790919063ffffffff16565b9750600088111561265657600460009054906101000a900473ffffffffffffffffffffffffffffffffffffffff1673ffffffffffffffffffffffffffffffffffffffff16632e1a7d4d896040518263ffffffff1660e01b815260040180828152602001915050600060405180830381600087803b15801561257e57600080fd5b505af1158015612592573d6000803e3d6000fd5b505050503373ffffffffffffffffffffffffffffffffffffffff168860405180600001905060006040518083038185875af1925050503d80600081146125f4576040519150601f19603f3d011682016040523d82523d6000602084013e6125f9565b606091505b50508099505088612655576040517f08c379a0000000000000000000000000000000000000000000000000000000008152600401808060200182810382526026815260200180614b0b6026913960400191505060405180910390fd5b5b3373ffffffffffffffffffffffffffffffffffffffff167f4d1b57c3379ad7f299ecc422923aae2eb02b1428c6b85c63e399fa6337cbc5348f8f84604051808060200180602001848152602001838103835286818151815260200191508051906020019060200280838360005b838110156126de5780820151818401526020810190506126c3565b50505050905001838103825285818151815260200191508051906020019060200280838360005b83811015612720578082015181840152602081019050612705565b505050509050019550505050505060405180910390a2809a5050505050505050505050949350505050565b600360009054906101000a900473ffffffffffffffffffffffffffffffffffffffff1681565b600160009054906101000a900473ffffffffffffffffffffffffffffffffffffffff1673ffffffffffffffffffffffffffffffffffffffff163373ffffffffffffffffffffffffffffffffffffffff1614612834576040517f08c379a00000000000000000000000000000000000000000000000000000000081526004018080602001828103825260118152602001807f4552525f4143434553535f44454e49454400000000000000000000000000000081525060200191505060405180910390fd5b600160009054906101000a900473ffffffffffffffffffffffffffffffffffffffff1673ffffffffffffffffffffffffffffffffffffffff166000809054906101000a900473ffffffffffffffffffffffffffffffffffffffff1673ffffffffffffffffffffffffffffffffffffffff167f343765429aea5a34b3ff6a3785a98a5abb2597aca87bfbb58632c173d585373a60405160405180910390a3600160009054906101000a900473ffffffffffffffffffffffffffffffffffffffff166000806101000a81548173ffffffffffffffffffffffffffffffffffffffff021916908373ffffffffffffffffffffffffffffffffffffffff1602179055506000600160006101000a81548173ffffffffffffffffffffffffffffffffffffffff021916908373ffffffffffffffffffffffffffffffffffffffff160217905550565b600260009054906101000a900473ffffffffffffffffffffffffffffffffffffffff1681565b6000809054906101000a900473ffffffffffffffffffffffffffffffffffffffff1681565b600080600560009054906101000a900473ffffffffffffffffffffffffffffffffffffffff16905060003414612e8b57600460009054906101000a900473ffffffffffffffffffffffffffffffffffffffff1673ffffffffffffffffffffffffffffffffffffffff1685600081518110612a3857fe5b602002602001015173ffffffffffffffffffffffffffffffffffffffff1614612aac576040517f08c379a000000000000000000000000000000000000000000000000000000000815260040180806020018281038252602a815260200180614a66602a913960400191505060405180910390fd5b348414612b04576040517f08c379a0000000000000000000000000000000000000000000000000000000008152600401808060200182810382526034815260200180614b866034913960400191505060405180910390fd5b600460009054906101000a900473ffffffffffffffffffffffffffffffffffffffff1673ffffffffffffffffffffffffffffffffffffffff1663d0e30db0856040518263ffffffff1660e01b81526004016000604051808303818588803b158015612b6e57600080fd5b505af1158015612b82573d6000803e3d6000fd5b50505050506000600460009054906101000a900473ffffffffffffffffffffffffffffffffffffffff1673ffffffffffffffffffffffffffffffffffffffff1663095ea7b3600560009054906101000a900473ffffffffffffffffffffffffffffffffffffffff16876040518363ffffffff1660e01b8152600401808373ffffffffffffffffffffffffffffffffffffffff1673ffffffffffffffffffffffffffffffffffffffff16815260200182815260200192505050602060405180830381600087803b158015612c5457600080fd5b505af1158015612c68573d6000803e3d6000fd5b505050506040513d6020811015612c7e57600080fd5b8101908080519060200190929190505050905080612c9b57600080fd5b60008273ffffffffffffffffffffffffffffffffffffffff1663b77d239b888888336000806040518763ffffffff1660e01b815260040180806020018781526020018681526020018573ffffffffffffffffffffffffffffffffffffffff1673ffffffffffffffffffffffffffffffffffffffff1681526020018473ffffffffffffffffffffffffffffffffffffffff1673ffffffffffffffffffffffffffffffffffffffff168152602001838152602001828103825288818151815260200191508051906020019060200280838360005b83811015612d88578082015181840152602081019050612d6d565b50505050905001975050505050505050602060405180830381600087803b158015612db257600080fd5b505af1158015612dc6573d6000803e3d6000fd5b505050506040513d6020811015612ddc57600080fd5b8101908080519060200190929190505050905080863373ffffffffffffffffffffffffffffffffffffffff167f5daafc2a274db45810c7f56e73b2a0a2b99bb148d2f5b8ba5d5d935099e978ca8a6040518080602001828103825283818151815260200191508051906020019060200280838360005b83811015612e6d578082015181840152602081019050612e52565b505050509050019250505060405180910390a48093505050506134af565b600460009054906101000a900473ffffffffffffffffffffffffffffffffffffffff1673ffffffffffffffffffffffffffffffffffffffff1685600187510381518110612ed457fe5b602002602001015173ffffffffffffffffffffffffffffffffffffffff1614612f48576040517f08c379a0000000000000000000000000000000000000000000000000000000008152600401808060200182810382526021815260200180614ab56021913960400191505060405180910390fd5b600085600081518110612f5757fe5b6020026020010151905060008173ffffffffffffffffffffffffffffffffffffffff166323b872dd3330896040518463ffffffff1660e01b8152600401808473ffffffffffffffffffffffffffffffffffffffff1673ffffffffffffffffffffffffffffffffffffffff1681526020018373ffffffffffffffffffffffffffffffffffffffff1673ffffffffffffffffffffffffffffffffffffffff1681526020018281526020019350505050602060405180830381600087803b15801561301e57600080fd5b505af1158015613032573d6000803e3d6000fd5b505050506040513d602081101561304857600080fd5b810190808051906020019092919050505090508061306557600080fd5b60008273ffffffffffffffffffffffffffffffffffffffff1663095ea7b3600560009054906101000a900473ffffffffffffffffffffffffffffffffffffffff16896040518363ffffffff1660e01b8152600401808373ffffffffffffffffffffffffffffffffffffffff1673ffffffffffffffffffffffffffffffffffffffff16815260200182815260200192505050602060405180830381600087803b15801561311057600080fd5b505af1158015613124573d6000803e3d6000fd5b505050506040513d602081101561313a57600080fd5b810190808051906020019092919050505090508061315757600080fd5b60008473ffffffffffffffffffffffffffffffffffffffff1663b77d239b8a8a8a306000806040518763ffffffff1660e01b815260040180806020018781526020018681526020018573ffffffffffffffffffffffffffffffffffffffff1673ffffffffffffffffffffffffffffffffffffffff1681526020018473ffffffffffffffffffffffffffffffffffffffff1673ffffffffffffffffffffffffffffffffffffffff168152602001838152602001828103825288818151815260200191508051906020019060200280838360005b83811015613244578082015181840152602081019050613229565b50505050905001975050505050505050602060405180830381600087803b15801561326e57600080fd5b505af1158015613282573d6000803e3d6000fd5b505050506040513d602081101561329857600080fd5b81019080805190602001909291905050509050600460009054906101000a900473ffffffffffffffffffffffffffffffffffffffff1673ffffffffffffffffffffffffffffffffffffffff16632e1a7d4d826040518263ffffffff1660e01b815260040180828152602001915050600060405180830381600087803b15801561332057600080fd5b505af1158015613334573d6000803e3d6000fd5b5050505060003373ffffffffffffffffffffffffffffffffffffffff168260405180600001905060006040518083038185875af1925050503d8060008114613398576040519150601f19603f3d011682016040523d82523d6000602084013e61339d565b606091505b5050905080613414576040517f08c379a000000000000000000000000000000000000000000000000000000000815260040180806020018281038252601b8152602001807f4661696c656420746f2073656e64205242544320746f2075736572000000000081525060200191505060405180910390fd5b81893373ffffffffffffffffffffffffffffffffffffffff167f5daafc2a274db45810c7f56e73b2a0a2b99bb148d2f5b8ba5d5d935099e978ca8d6040518080602001828103825283818151815260200191508051906020019060200280838360005b83811015613492578082015181840152602081019050613477565b505050509050019250505060405180910390a48196505050505050505b9392505050565b6134be6147d1565b600360009054906101000a900473ffffffffffffffffffffffffffffffffffffffff16600260006101000a81548173ffffffffffffffffffffffffffffffffffffffff021916908373ffffffffffffffffffffffffffffffffffffffff160217905550565b600160009054906101000a900473ffffffffffffffffffffffffffffffffffffffff1681565b60008361356b8173ffffffffffffffffffffffffffffffffffffffff1661494c565b6135dd576040517f08c379a000000000000000000000000000000000000000000000000000000000815260040180806020018281038252601d8152602001807f5468652061646472657373206973206e6f74206120636f6e747261637400000081525060200191505060405180910390fd5b600085905060008173ffffffffffffffffffffffffffffffffffffffff16635768adcf600460009054906101000a900473ffffffffffffffffffffffffffffffffffffffff166040518263ffffffff1660e01b8152600401808273ffffffffffffffffffffffffffffffffffffffff1673ffffffffffffffffffffffffffffffffffffffff16815260200191505060206040518083038186803b15801561368357600080fd5b505afa158015613697573d6000803e3d6000fd5b505050506040513d60208110156136ad57600080fd5b8101908080519060200190929190505050905060008173ffffffffffffffffffffffffffffffffffffffff166323b872dd33308a6040518463ffffffff1660e01b8152600401808473ffffffffffffffffffffffffffffffffffffffff1673ffffffffffffffffffffffffffffffffffffffff1681526020018373ffffffffffffffffffffffffffffffffffffffff1673ffffffffffffffffffffffffffffffffffffffff1681526020018281526020019350505050602060405180830381600087803b15801561377d57600080fd5b505af1158015613791573d6000803e3d6000fd5b505050506040513d60208110156137a757600080fd5b81019080805190602001909291905050509050806137c457600080fd5b60008373ffffffffffffffffffffffffffffffffffffffff1663e38192e3848a8a6040518463ffffffff1660e01b8152600401808473ffffffffffffffffffffffffffffffffffffffff1673ffffffffffffffffffffffffffffffffffffffff1681526020018381526020018281526020019350505050602060405180830381600087803b15801561385557600080fd5b505af1158015613869573d6000803e3d6000fd5b505050506040513d602081101561387f57600080fd5b81019080805190602001909291905050509050600460009054906101000a900473ffffffffffffffffffffffffffffffffffffffff1673ffffffffffffffffffffffffffffffffffffffff16632e1a7d4d826040518263ffffffff1660e01b815260040180828152602001915050600060405180830381600087803b15801561390757600080fd5b505af115801561391b573d6000803e3d6000fd5b5050505060003373ffffffffffffffffffffffffffffffffffffffff168260405180600001905060006040518083038185875af1925050503d806000811461397f576040519150601f19603f3d011682016040523d82523d6000602084013e613984565b606091505b50509050806139fb576040517f08c379a000000000000000000000000000000000000000000000000000000000815260040180806020018281038252601b8152602001807f4661696c656420746f2073656e64205242544320746f2075736572000000000081525060200191505060405180910390fd5b3373ffffffffffffffffffffffffffffffffffffffff167f96cd817c6329656790ef8fba7675405193677d39619571282f5e21f3a98cd059838b604051808381526020018281526020019250505060405180910390a28196505050505050509392505050565b83613a818173ffffffffffffffffffffffffffffffffffffffff1661494c565b613af3576040517f08c379a000000000000000000000000000000000000000000000000000000000815260040180806020018281038252601d8152602001807f5468652061646472657373206973206e6f74206120636f6e747261637400000081525060200191505060405180910390fd5b60008411613b4c576040517f08c379a0000000000000000000000000000000000000000000000000000000008152600401808060200182810382526022815260200180614a1b6022913960400191505060405180910390fd5b600460009054906101000a900473ffffffffffffffffffffffffffffffffffffffff1673ffffffffffffffffffffffffffffffffffffffff1683600081518110613b9257fe5b602002602001015173ffffffffffffffffffffffffffffffffffffffff1614613c06576040517f08c379a0000000000000000000000000000000000000000000000000000000008152600401808060200182810382526025815260200180614a906025913960400191505060405180910390fd5b60608351604051908082528060200260200182016040528015613c385781602001602082028038833980820191505090505b509050600086905060008173ffffffffffffffffffffffffffffffffffffffff1663fc0c546a6040518163ffffffff1660e01b815260040160206040518083038186803b158015613c8857600080fd5b505afa158015613c9c573d6000803e3d6000fd5b505050506040513d6020811015613cb257600080fd5b8101908080519060200190929190505050905060008173ffffffffffffffffffffffffffffffffffffffff166323b872dd33308b6040518463ffffffff1660e01b8152600401808473ffffffffffffffffffffffffffffffffffffffff1673ffffffffffffffffffffffffffffffffffffffff1681526020018373ffffffffffffffffffffffffffffffffffffffff1673ffffffffffffffffffffffffffffffffffffffff1681526020018281526020019350505050602060405180830381600087803b158015613d8257600080fd5b505af1158015613d96573d6000803e3d6000fd5b505050506040513d6020811015613dac57600080fd5b8101908080519060200190929190505050905080613dc957600080fd5b6000875190506000606082604051908082528060200260200182016040528015613e025781602001602082028038833980820191505090505b50905060008090505b83811015613f06578a8181518110613e1f57fe5b602002602001015192508273ffffffffffffffffffffffffffffffffffffffff166370a08231306040518263ffffffff1660e01b8152600401808273ffffffffffffffffffffffffffffffffffffffff1673ffffffffffffffffffffffffffffffffffffffff16815260200191505060206040518083038186803b158015613ea657600080fd5b505afa158015613eba573d6000803e3d6000fd5b505050506040513d6020811015613ed057600080fd5b8101908080519060200190929190505050828281518110613eed57fe5b6020026020010181815250508080600101915050613e0b565b508573ffffffffffffffffffffffffffffffffffffffff1663b127c0a58c8c8c6040518463ffffffff1660e01b8152600401808481526020018060200180602001838103835285818151815260200191508051906020019060200280838360005b83811015613f82578082015181840152602081019050613f67565b50505050905001838103825284818151815260200191508051906020019060200280838360005b83811015613fc4578082015181840152602081019050613fa9565b5050505090500195505050505050600060405180830381600087803b158015613fec57600080fd5b505af1158015614000573d6000803e3d6000fd5b505050506000806000600190505b858110156142d4578c818151811061402257fe5b6020026020010151945061410984828151811061403b57fe5b60200260200101518673ffffffffffffffffffffffffffffffffffffffff166370a08231306040518263ffffffff1660e01b8152600401808273ffffffffffffffffffffffffffffffffffffffff1673ffffffffffffffffffffffffffffffffffffffff16815260200191505060206040518083038186803b1580156140c057600080fd5b505afa1580156140d4573d6000803e3d6000fd5b505050506040513d60208110156140ea57600080fd5b810190808051906020019092919050505061499790919063ffffffff16565b92508b818151811061411757fe5b6020026020010151831015614194576040517f08c379a00000000000000000000000000000000000000000000000000000000081526004018080602001828103825260168152602001807f4552525f5a45524f5f5441524745545f414d4f554e540000000000000000000081525060200191505060405180910390fd5b828a82815181106141a157fe5b6020026020010181815250508473ffffffffffffffffffffffffffffffffffffffff1663a9059cbb33856040518363ffffffff1660e01b8152600401808373ffffffffffffffffffffffffffffffffffffffff1673ffffffffffffffffffffffffffffffffffffffff16815260200182815260200192505050602060405180830381600087803b15801561423457600080fd5b505af1158015614248573d6000803e3d6000fd5b505050506040513d602081101561425e57600080fd5b81019080805190602001909291905050509150816142c7576040517f08c379a0000000000000000000000000000000000000000000000000000000008152600401808060200182810382526028815260200180614b5e6028913960400191505060405180910390fd5b808060010191505061400e565b5060006143c9846000815181106142e757fe5b60200260200101518e6000815181106142fc57fe5b602002602001015173ffffffffffffffffffffffffffffffffffffffff166370a08231306040518263ffffffff1660e01b8152600401808273ffffffffffffffffffffffffffffffffffffffff1673ffffffffffffffffffffffffffffffffffffffff16815260200191505060206040518083038186803b15801561438057600080fd5b505afa158015614394573d6000803e3d6000fd5b505050506040513d60208110156143aa57600080fd5b810190808051906020019092919050505061499790919063ffffffff16565b90508b6000815181106143d857fe5b6020026020010151811015614455576040517f08c379a00000000000000000000000000000000000000000000000000000000081526004018080602001828103825260168152602001807f4552525f5a45524f5f5441524745545f414d4f554e540000000000000000000081525060200191505060405180910390fd5b808a60008151811061446357fe5b602002602001018181525050600460009054906101000a900473ffffffffffffffffffffffffffffffffffffffff1673ffffffffffffffffffffffffffffffffffffffff16632e1a7d4d826040518263ffffffff1660e01b815260040180828152602001915050600060405180830381600087803b1580156144e457600080fd5b505af11580156144f8573d6000803e3d6000fd5b5050505060003373ffffffffffffffffffffffffffffffffffffffff168260405180600001905060006040518083038185875af1925050503d806000811461455c576040519150601f19603f3d011682016040523d82523d6000602084013e614561565b606091505b50509050806145d8576040517f08c379a000000000000000000000000000000000000000000000000000000000815260040180806020018281038252601b8152602001807f4661696c656420746f2073656e64205242544320746f2075736572000000000081525060200191505060405180910390fd5b3373ffffffffffffffffffffffffffffffffffffffff167fcfe6814fda336f1ecd0c3797ea1a70eee3e6c413bf3ad8458a4c7dfb38a62b518f8d604051808060200180602001838103835285818151815260200191508051906020019060200280838360005b8381101561465957808201518184015260208101905061463e565b50505050905001838103825284818151815260200191508051906020019060200280838360005b8381101561469b578082015181840152602081019050614680565b5050505090500194505050505060405180910390a250505050505050505050505050505050565b6146ca6147d1565b6000809054906101000a900473ffffffffffffffffffffffffffffffffffffffff1673ffffffffffffffffffffffffffffffffffffffff168173ffffffffffffffffffffffffffffffffffffffff16141561478d576040517f08c379a000000000000000000000000000000000000000000000000000000000815260040180806020018281038252600e8152602001807f4552525f53414d455f4f574e455200000000000000000000000000000000000081525060200191505060405180910390fd5b80600160006101000a81548173ffffffffffffffffffffffffffffffffffffffff021916908373ffffffffffffffffffffffffffffffffffffffff16021790555050565b6000809054906101000a900473ffffffffffffffffffffffffffffffffffffffff1673ffffffffffffffffffffffffffffffffffffffff163373ffffffffffffffffffffffffffffffffffffffff1614614893576040517f08c379a00000000000000000000000000000000000000000000000000000000081526004018080602001828103825260118152602001807f4552525f4143434553535f44454e49454400000000000000000000000000000081525060200191505060405180910390fd5b565b6000600260009054906101000a900473ffffffffffffffffffffffffffffffffffffffff1673ffffffffffffffffffffffffffffffffffffffff1663bb34534c836040518263ffffffff1660e01b81526004018082815260200191505060206040518083038186803b15801561490a57600080fd5b505afa15801561491e573d6000803e3d6000fd5b505050506040513d602081101561493457600080fd5b81019080805190602001909291905050509050919050565b60008060007fc5d2460186f7233c927e7db2dcc703c0e500b653ca82273b7bfad8045d85a47060001b9050833f915080821415801561498e57506000801b8214155b92505050919050565b600081831015614a0f576040517f08c379a000000000000000000000000000000000000000000000000000000000815260040180806020018281038252600d8152602001807f4552525f554e444552464c4f570000000000000000000000000000000000000081525060200191505060405180910390fd5b81830390509291505056fe54686520616d6f756e742073686f756c64206c6172676572207468616e207a65726f4f6e6c792063616e207265636569766520724254432066726f6d20575242544320636f6e747261637456616c7565206d6179206f6e6c792062652073656e7420666f72205752425443207472616e7366657273546865206669727374207265736572766520746f6b656e206d7573742062652057524254434974206f6e6c7920636f756c64206265207377617070656420746f2057524254434661696c656420746f20617070726f766520636f6e76657274657220746f207472616e73666572207265736572766520746f6b656e4661696c656420746f2073656e642065787472612052425443206261636b20746f20757365724661696c656420746f20617070726f766520636f6e76657274657220746f207472616e736665722057524254434661696c656420746f207472616e73666572207265736572766520746f6b656e20746f20757365725468652070726f766964656420616d6f756e742073686f756c64206265206964656e746963616c20746f206d73672e76616c75654661696c656420746f207472616e73666572206578747261207265736572766520746f6b656e206261636b20746f20757365724661696c656420746f207472616e7366657220706f6f6c20746f6b656e20746f20757365724661696c656420746f207472616e73666572207265736572766520746f6b656e2066726f6d20757365725468652070726f766964656420616d6f756e74206f6620524254432073686f756c64206265206964656e746963616c20746f206d73672e76616c7565a265627a7a7231582071eb15953cce68913067123aa730bc6f61d32cf7523737b3fac3f16b8a79e61164736f6c63430005100032",
  "source": "pragma solidity 0.5.16;\n\nimport \"./openzeppelin/Address.sol\";\nimport \"./openzeppelin/SafeMath.sol\";\nimport \"./interfaces/ILiquidityPoolV1Converter.sol\";\nimport \"./interfaces/ILiquidityPoolV2Converter.sol\";\nimport \"./interfaces/ISmartToken.sol\";\nimport \"./interfaces/IERC20Token.sol\";\nimport \"./interfaces/IWrbtcERC20.sol\";\nimport \"./interfaces/ISovrynSwapNetwork.sol\";\nimport \"./interfaces/ISovrynSwapFormula.sol\";\nimport \"./interfaces/IContractRegistry.sol\";\nimport \"./ContractRegistryClient.sol\";\n\ncontract RBTCWrapperProxy is ContractRegistryClient {\n    \n    using Address for address;\n    using SafeMath for uint256;\n\n    address public wrbtcTokenAddress;\n    address public sovrynSwapNetworkAddress;\n    \n    /**\n     * @dev triggered after liquidity is added\n     *\n     * @param  _provider           liquidity provider\n     * @param  _reserveAmount      provided reserve token amount\n     * @param  _poolTokenAmount    minted pool token amount\n     */\n    event LiquidityAdded(\n        address indexed _provider,\n        uint256 _reserveAmount,\n        uint256 _poolTokenAmount\n    );\n\n    /**\n     * @dev triggered after liquidity is added to LiquidityPoolConverter V1\n     *\n     * @param  _provider           liquidity provider\n     * @param  _reserveTokens      provided reserve token\n     * @param  _reserveAmounts      provided reserve token amount\n     * @param  _poolTokenAmount    minted pool token amount\n     */\n    event LiquidityAddedToV1(\n        address indexed _provider,\n        IERC20Token[] _reserveTokens, \n        uint256[] _reserveAmounts, \n        uint256 _poolTokenAmount\n    );\n\n    /**\n     * @dev triggered after liquidity is removed\n     *\n     * @param  _provider           liquidity provider\n     * @param  _reserveAmount      added reserve token amount\n     * @param  _poolTokenAmount    burned pool token amount\n     */\n    event LiquidityRemoved(\n        address indexed _provider,\n        uint256 _reserveAmount,\n        uint256 _poolTokenAmount\n    );\n\n    /**\n     * @dev triggered after liquidity is removed from LiquidityPoolConverter V1\n     *\n     * @param  _provider          liquidity provider\n     * @param  _reserveTokens     added reserve tokens\n     * @param  _reserveAmounts    added reserve token amounts\n     */\n    event LiquidityRemovedFromV1(\n        address indexed _provider,\n        IERC20Token[] _reserveTokens,\n        uint256[] _reserveAmounts\n    );\n\n    /**\n     * @dev triggered after liquidity is removed\n     *\n     * @param _beneficiary          account that will receive the conversion result or 0x0 to send the result to the sender account\n     * @param _sourceTokenAmount    amount to convert from, in the source token\n     * @param _targetTokenAmount    amount of tokens received from the conversion, in the target token\n     * @param _path                 conversion path between two tokens in the network\n     */\n    event TokenConverted(\n        address indexed _beneficiary,\n        uint256 indexed _sourceTokenAmount,\n        uint256 indexed _targetTokenAmount,\n        IERC20Token[] _path\n    );\n\n    /**\n     * @dev To check if ddress is contract address \n     */\n    modifier checkAddress(address address_) {\n        require(address_.isContract(), \"The address is not a contract\");\n        _;\n    }\n    \n    constructor(\n        address _wrbtcTokenAddress, \n        address _sovrynSwapNetworkAddress,\n        IContractRegistry _registry \n    ) \n        public\n        ContractRegistryClient(_registry)\n        checkAddress(_wrbtcTokenAddress) \n        checkAddress(_sovrynSwapNetworkAddress) \n    {\n        wrbtcTokenAddress = _wrbtcTokenAddress;\n        sovrynSwapNetworkAddress = _sovrynSwapNetworkAddress;\n    }\n\n    function() external payable {\n        require(wrbtcTokenAddress == msg.sender, \"Only can receive rBTC from WRBTC contract\");\n    }\n\n    /**\n     * @dev  \n     * The process:\n     * 1.Accepts RBTC\n     * 2.Sends RBTC to WRBTC contract in order to wrap RBTC to WRBTC\n     * 3.Calls 'addLiquidity' on LiquidityPoolConverter contract\n     * 4.Transfers pool tokens to user\n     * \n     * @param _liquidityPoolConverterAddress    address of LiquidityPoolConverter contract\n     * @param _amount                           amount of liquidity to add\n     * @param _minReturn                        minimum return-amount of reserve tokens\n     *\n     * @return amount of pool tokens minted\n     */\n    function addLiquidity(\n        address _liquidityPoolConverterAddress, \n        uint256 _amount, \n        uint256 _minReturn\n    )  \n        public\n        payable\n        checkAddress(_liquidityPoolConverterAddress)\n        returns(uint256) \n    {\n        require(_amount == msg.value, \"The provided amount should be identical to msg.value\");\n\n        ILiquidityPoolV2Converter _liquidityPoolConverter = ILiquidityPoolV2Converter(_liquidityPoolConverterAddress);\n        ISmartToken _poolToken = _liquidityPoolConverter.poolToken(IERC20Token(wrbtcTokenAddress));\n\n        IWrbtcERC20(wrbtcTokenAddress).deposit.value(_amount)();\n\n        bool successOfApprove = IWrbtcERC20(wrbtcTokenAddress).approve(_liquidityPoolConverterAddress, _amount);\n        require(successOfApprove);\n\n        uint256 poolTokenAmount = _liquidityPoolConverter.addLiquidity(IERC20Token(wrbtcTokenAddress), _amount, _minReturn);\n        \n        bool successOfTransfer = _poolToken.transfer(msg.sender, poolTokenAmount);\n        require(successOfTransfer);\n\n        emit LiquidityAdded(msg.sender, _amount, poolTokenAmount);\n\n        return poolTokenAmount;\n    }\n\n    /**\n     * @dev  \n     * The process:\n     * 1.Accepts RBTC\n     * 2.Sends RBTC to WRBTC contract in order to wrap RBTC to WRBTC\n     * 3.Accepts reserve token and approve LiquidityPoolConverter to transfer\n     * 4.Calls 'addLiquidity' on LiquidityPoolConverter contract\n     * 5.Transfers pool tokens to user\n     * \n     * @param _liquidityPoolConverterAddress    address of LiquidityPoolConverter contract\n     * @param _reserveTokens                    address of each reserve token. The first element should be the address of WRBTC\n     * @param _reserveAmounts                   amount of each reserve token. The first element should be the amount of RBTC\n     * @param _minReturn                        minimum return-amount of reserve tokens\n     *\n     * @return amount of pool tokens minted\n     */\n    function addLiquidityToV1(\n        address _liquidityPoolConverterAddress,\n        IERC20Token[] memory _reserveTokens, \n        uint256[] memory _reserveAmounts, \n        uint256 _minReturn\n    )  \n        public\n        payable\n        checkAddress(_liquidityPoolConverterAddress)\n        returns(uint256) \n    {\n        require(address(_reserveTokens[0]) == wrbtcTokenAddress, \"The first reserve token must be WRBTC\");\n        require(_reserveAmounts[0] == msg.value, \"The provided amount of RBTC should be identical to msg.value\");\n\n        bool success;\n        uint256 amount;\n        ILiquidityPoolV1Converter _liquidityPoolConverter = ILiquidityPoolV1Converter(_liquidityPoolConverterAddress);\n        ISmartToken _poolToken = ISmartToken(address(_liquidityPoolConverter.token()));\n        uint32 reserveRatio_ = _liquidityPoolConverter.reserveRatio();\n        uint256 totalSupplyBefore = _poolToken.totalSupply();\n        uint256[] memory rsvBalances = new uint256[](_reserveTokens.length);\n\n        IWrbtcERC20(wrbtcTokenAddress).deposit.value(_reserveAmounts[0])();\n        success = IWrbtcERC20(wrbtcTokenAddress).approve(_liquidityPoolConverterAddress, _reserveAmounts[0]);\n        require(success, \"Failed to approve converter to transfer WRBTC\");\n        \n        for (uint256 i = 1; i < _reserveTokens.length; i++) {\n            success = IERC20Token(_reserveTokens[i]).transferFrom(msg.sender, address(this), _reserveAmounts[i]);\n            require(success, \"Failed to transfer reserve token from user\");\n            success = IERC20Token(_reserveTokens[i]).approve(_liquidityPoolConverterAddress, _reserveAmounts[i]);\n            require(success, \"Failed to approve converter to transfer reserve token\");\n\n            (rsvBalances[i], , , , ) = _liquidityPoolConverter.reserves(address(_reserveTokens[i]));\n        }\n\n        (rsvBalances[0], , , , ) = _liquidityPoolConverter.reserves(wrbtcTokenAddress);\n\n        uint256 poolTokenAmountBefore = _poolToken.balanceOf(address(this));\n        _liquidityPoolConverter.addLiquidity(_reserveTokens, _reserveAmounts, _minReturn);\n        uint256 poolTokenAmount = _poolToken.balanceOf(address(this)).sub(poolTokenAmountBefore);\n        \n        success = _poolToken.transfer(msg.sender, poolTokenAmount);\n        require(success, \"Failed to transfer pool token to user\");\n\n        for (uint256 i = 1; i < _reserveTokens.length; i++) {\n            amount = _reserveAmounts[i].sub(ISovrynSwapFormula(addressOf(SOVRYNSWAP_FORMULA)).fundCost(totalSupplyBefore, rsvBalances[i], reserveRatio_, poolTokenAmount));\n            if (amount > 0) {\n                success = _reserveTokens[i].transfer(msg.sender, amount);\n                require(success, \"Failed to transfer extra reserve token back to user\");\n            }\n        }\n        \n        amount = _reserveAmounts[0].sub(ISovrynSwapFormula(addressOf(SOVRYNSWAP_FORMULA)).fundCost(totalSupplyBefore, rsvBalances[0], reserveRatio_, poolTokenAmount));\n        if (amount > 0) {\n            IWrbtcERC20(wrbtcTokenAddress).withdraw(amount);\n            (success,) = msg.sender.call.value(amount)(\"\");\n            require(success, \"Failed to send extra RBTC back to user\");\n        }\n\n        emit LiquidityAddedToV1(msg.sender, _reserveTokens, _reserveAmounts, poolTokenAmount);\n\n        return poolTokenAmount;\n    }\n    \n    /**\n     * @notice \n     * Before calling this function to remove liquidity, users need approve this contract to be able to spend or transfer their pool tokens\n     *\n     * @dev  \n     * The process:     \n     * 1.Transfers pool tokens to this contract\n     * 2.Calls 'removeLiquidity' on LiquidityPoolConverter contract\n     * 3.Calls 'withdraw' on WRBTC contract in order to unwrap WRBTC to RBTC\n     * 4.Sneds RBTC to user\n     * \n     * @param _liquidityPoolConverterAddress    address of LiquidityPoolConverter contract\n     * @param _amount                           amount of pool tokens to burn\n     * @param _minReturn                        minimum return-amount of reserve tokens\n     * \n     * @return amount of liquidity removed also WRBTC unwrapped to RBTC\n     */\n    function removeLiquidity(\n        address _liquidityPoolConverterAddress, \n        uint256 _amount, \n        uint256 _minReturn\n    )   \n        public \n        checkAddress(_liquidityPoolConverterAddress)\n        returns(uint256) \n    {\n        ILiquidityPoolV2Converter _liquidityPoolConverter = ILiquidityPoolV2Converter(_liquidityPoolConverterAddress);\n        ISmartToken _poolToken = _liquidityPoolConverter.poolToken(IERC20Token(wrbtcTokenAddress));\n\n        bool successOfTransferFrom = _poolToken.transferFrom(msg.sender, address(this), _amount);\n        require(successOfTransferFrom);\n\n        uint256 reserveAmount = _liquidityPoolConverter.removeLiquidity(_poolToken, _amount, _minReturn);\n        \n        IWrbtcERC20(wrbtcTokenAddress).withdraw(reserveAmount);\n        \n        (bool successOfSendRBTC,) = msg.sender.call.value(reserveAmount)(\"\");\n        require(successOfSendRBTC, \"Failed to send RBTC to user\");\n\n        emit LiquidityRemoved(msg.sender, reserveAmount, _amount);\n\n        return reserveAmount;\n    }\n\n    /**\n     * @notice \n     * Before calling this function to remove liquidity, users need approve this contract to be able to spend or transfer their pool tokens\n     *\n     * @dev  \n     * The process:     \n     * 1.Transfers pool tokens to this contract\n     * 2.Calls 'removeLiquidity' on LiquidityPoolConverter contract\n     * 3.Calls 'withdraw' on WRBTC contract in order to unwrap WRBTC to RBTC\n     * 4.Sneds RBTC and/or other reserve tokens to user\n     * \n     * @param _liquidityPoolConverterAddress    address of LiquidityPoolConverter contract\n     * @param _amount                           amount of pool tokens to burn\n     * @param _reserveTokens                    address of each reserve token. The first element should be the address of WRBTC\n     * @param _reserveMinReturnAmounts          minimum return-amount of each reserve token. The first element should be the minimum return-amount of WRBTC\n     */\n    function removeLiquidityFromV1(\n        address _liquidityPoolConverterAddress,\n        uint256 _amount, \n        IERC20Token[] memory _reserveTokens, \n        uint256[] memory _reserveMinReturnAmounts\n    )   \n        public \n        checkAddress(_liquidityPoolConverterAddress)\n    {\n        require(_amount > 0, \"The amount should larger than zero\");\n        require(address(_reserveTokens[0]) == wrbtcTokenAddress, \"The first reserve token must be WRBTC\");\n\n        uint256[] memory reserveAmounts = new uint256[](_reserveTokens.length);\n        ILiquidityPoolV1Converter _liquidityPoolConverter = ILiquidityPoolV1Converter(_liquidityPoolConverterAddress);\n        ISmartToken _poolToken = ISmartToken(address(_liquidityPoolConverter.token()));\n\n        bool successOfTransferFrom = _poolToken.transferFrom(msg.sender, address(this), _amount);\n        require(successOfTransferFrom);\n\n        uint256 lengthOfToken = _reserveTokens.length;\n        IERC20Token reserveToken;\n        uint256[] memory reserveAmountBefore = new uint256[](lengthOfToken);\n        for (uint256 i = 0; i < lengthOfToken; i++) {\n            reserveToken = _reserveTokens[i];\n            reserveAmountBefore[i] = reserveToken.balanceOf(address(this));\n        }\n\n        _liquidityPoolConverter.removeLiquidity(_amount, _reserveTokens, _reserveMinReturnAmounts);\n\n        uint256 reserveAmount;\n        bool successOfTransfer;\n        for (uint256 i = 1; i < lengthOfToken; i++) {\n            reserveToken = _reserveTokens[i];\n\n            reserveAmount = reserveToken.balanceOf(address(this)).sub(reserveAmountBefore[i]); \n            require(reserveAmount >= _reserveMinReturnAmounts[i], \"ERR_ZERO_TARGET_AMOUNT\");\n            reserveAmounts[i] = reserveAmount;\n\n            successOfTransfer = IERC20Token(reserveToken).transfer(msg.sender, reserveAmount);\n            require(successOfTransfer, \"Failed to transfer reserve token to user\");\n        }\n\n        uint256 wrbtcAmount = _reserveTokens[0].balanceOf(address(this)).sub(reserveAmountBefore[0]);\n        require(wrbtcAmount >= _reserveMinReturnAmounts[0], \"ERR_ZERO_TARGET_AMOUNT\");\n        reserveAmounts[0] = wrbtcAmount;\n        IWrbtcERC20(wrbtcTokenAddress).withdraw(wrbtcAmount);\n        (bool successOfSendRBTC,) = msg.sender.call.value(wrbtcAmount)(\"\");\n        require(successOfSendRBTC, \"Failed to send RBTC to user\");\n\n        emit LiquidityRemovedFromV1(msg.sender, _reserveTokens, reserveAmounts);\n    }\n    \n    /**\n     * @notice\n     * Before calling this function to swap token to RBTC, users need approve this contract to be able to spend or transfer their tokens\n     *\n     * @param _path         conversion path between two tokens in the network\n     * @param _amount       amount to convert from, in the source token\n     * @param _minReturn    if the conversion results in an amount smaller than the minimum return - it is cancelled, must be greater than zero\n     * \n     * @return amount of tokens received from the conversion\n     */\n    function convertByPath(\n        IERC20Token[] memory _path,\n        uint256 _amount, \n        uint256 _minReturn\n    ) \n        public \n        payable\n        returns(uint256) \n    {    \n        ISovrynSwapNetwork _sovrynSwapNetwork =  ISovrynSwapNetwork(sovrynSwapNetworkAddress);\n  \n        if (msg.value != 0) {\n            require(_path[0] == IERC20Token(wrbtcTokenAddress), \"Value may only be sent for WRBTC transfers\");\n            require(_amount == msg.value, \"The provided amount should be identical to msg.value\");\n\n            IWrbtcERC20(wrbtcTokenAddress).deposit.value(_amount)();\n\n            bool successOfApprove = IWrbtcERC20(wrbtcTokenAddress).approve(sovrynSwapNetworkAddress, _amount);\n            require(successOfApprove);\n\n            uint256 _targetTokenAmount = _sovrynSwapNetwork.convertByPath(_path, _amount, _minReturn, msg.sender, address(0), 0);\n\n            emit TokenConverted(msg.sender, _amount, _targetTokenAmount, _path);\n\n            return _targetTokenAmount;\n        }\n        else {\n            require(_path[_path.length-1] == IERC20Token(wrbtcTokenAddress), \"It only could be swapped to WRBTC\");\n            \n            IERC20Token _token = IERC20Token(_path[0]);\n\n            bool successOfTransferFrom = _token.transferFrom(msg.sender, address(this), _amount);\n            require(successOfTransferFrom);\n\n            bool successOfApprove = _token.approve(sovrynSwapNetworkAddress, _amount);\n            require(successOfApprove);\n                 \n            uint256 _targetTokenAmount = _sovrynSwapNetwork.convertByPath(_path, _amount, _minReturn, address(this), address(0), 0);\n\n            IWrbtcERC20(wrbtcTokenAddress).withdraw(_targetTokenAmount);\n\n            (bool successOfSendRBTC,) = msg.sender.call.value(_targetTokenAmount)(\"\");\n            require(successOfSendRBTC, \"Failed to send RBTC to user\");\n\n            emit TokenConverted(msg.sender, _amount, _targetTokenAmount, _path);\n\n            return _targetTokenAmount;\n        }        \n    }\n}",
  "sourcePath": "/Users/hsiang/Desktop/new RBTCWrapperProxy/contracts/RBTCWrapperProxy.sol",
  "compiler": {
    "name": "solc",
    "version": "0.5.16+commit.9c3226ce.Emscripten.clang"
  },
  "schemaVersion": "3.3.2",
  "updatedAt": "2021-04-08T09:50:20.496Z",
  "devdoc": {
    "methods": {
      "acceptOwnership()": {
        "details": "used by a new owner to accept an ownership transfer"
      },
      "addLiquidity(address,uint256,uint256)": {
        "details": " The process: 1.Accepts RBTC 2.Sends RBTC to WRBTC contract in order to wrap RBTC to WRBTC 3.Calls 'addLiquidity' on LiquidityPoolConverter contract 4.Transfers pool tokens to user ",
        "params": {
          "_amount": "amount of liquidity to add",
          "_liquidityPoolConverterAddress": "address of LiquidityPoolConverter contract",
          "_minReturn": "minimum return-amount of reserve tokens"
        },
        "return": "amount of pool tokens minted"
      },
      "addLiquidityToV1(address,address[],uint256[],uint256)": {
        "details": " The process: 1.Accepts RBTC 2.Sends RBTC to WRBTC contract in order to wrap RBTC to WRBTC 3.Accepts reserve token and approve LiquidityPoolConverter to transfer 4.Calls 'addLiquidity' on LiquidityPoolConverter contract 5.Transfers pool tokens to user ",
        "params": {
          "_liquidityPoolConverterAddress": "address of LiquidityPoolConverter contract",
          "_minReturn": "minimum return-amount of reserve tokens",
          "_reserveAmounts": "amount of each reserve token. The first element should be the amount of RBTC",
          "_reserveTokens": "address of each reserve token. The first element should be the address of WRBTC"
        },
        "return": "amount of pool tokens minted"
      },
      "convertByPath(address[],uint256,uint256)": {
        "params": {
          "_amount": "amount to convert from, in the source token",
          "_minReturn": "if the conversion results in an amount smaller than the minimum return - it is cancelled, must be greater than zero ",
          "_path": "conversion path between two tokens in the network"
        },
        "return": "amount of tokens received from the conversion"
      },
      "removeLiquidity(address,uint256,uint256)": {
        "details": " The process:      1.Transfers pool tokens to this contract 2.Calls 'removeLiquidity' on LiquidityPoolConverter contract 3.Calls 'withdraw' on WRBTC contract in order to unwrap WRBTC to RBTC 4.Sneds RBTC to user ",
        "params": {
          "_amount": "amount of pool tokens to burn",
          "_liquidityPoolConverterAddress": "address of LiquidityPoolConverter contract",
          "_minReturn": "minimum return-amount of reserve tokens "
        },
        "return": "amount of liquidity removed also WRBTC unwrapped to RBTC"
      },
      "removeLiquidityFromV1(address,uint256,address[],uint256[])": {
        "details": " The process:      1.Transfers pool tokens to this contract 2.Calls 'removeLiquidity' on LiquidityPoolConverter contract 3.Calls 'withdraw' on WRBTC contract in order to unwrap WRBTC to RBTC 4.Sneds RBTC and/or other reserve tokens to user ",
        "params": {
          "_amount": "amount of pool tokens to burn",
          "_liquidityPoolConverterAddress": "address of LiquidityPoolConverter contract",
          "_reserveMinReturnAmounts": "minimum return-amount of each reserve token. The first element should be the minimum return-amount of WRBTC",
          "_reserveTokens": "address of each reserve token. The first element should be the address of WRBTC"
        }
      },
      "restoreRegistry()": {
        "details": "restores the previous contract-registry"
      },
      "restrictRegistryUpdate(bool)": {
        "details": "restricts the permission to update the contract-registry ",
        "params": {
          "_onlyOwnerCanUpdateRegistry": "indicates whether or not permission is restricted to owner only"
        }
      },
      "transferOwnership(address)": {
        "details": "allows transferring the contract ownership the new owner still needs to accept the transfer can only be called by the contract owner ",
        "params": {
          "_newOwner": "new contract owner"
        }
      },
      "updateRegistry()": {
        "details": "updates to the new contract-registry"
      }
    }
  },
  "userdoc": {
    "methods": {
      "convertByPath(address[],uint256,uint256)": {
        "notice": "Before calling this function to swap token to RBTC, users need approve this contract to be able to spend or transfer their tokens"
      },
      "removeLiquidity(address,uint256,uint256)": {
        "notice": " Before calling this function to remove liquidity, users need approve this contract to be able to spend or transfer their pool tokens"
      },
      "removeLiquidityFromV1(address,uint256,address[],uint256[])": {
        "notice": " Before calling this function to remove liquidity, users need approve this contract to be able to spend or transfer their pool tokens"
      }
    }
  }
}