{
  "contractName": "RBTCWrapperProxy",
  "abi": [
    {
      "inputs": [
        {
          "internalType": "address",
          "name": "_wrbtcTokenAddress",
          "type": "address"
        },
        {
          "internalType": "address",
          "name": "_liquidityPoolV2ConverterAddress",
          "type": "address"
        },
        {
          "internalType": "address",
          "name": "_poolTokenAddress",
          "type": "address"
        },
        {
          "internalType": "address",
          "name": "_sovrynSwapNetworkAddress",
          "type": "address"
        },
        {
          "internalType": "address",
          "name": "_docTokenAddress",
          "type": "address"
        }
      ],
      "payable": false,
      "stateMutability": "nonpayable",
      "type": "constructor"
    },
    {
      "payable": true,
      "stateMutability": "payable",
      "type": "fallback"
    },
    {
      "constant": true,
      "inputs": [],
      "name": "docTokenAddress",
      "outputs": [
        {
          "internalType": "address",
          "name": "",
          "type": "address"
        }
      ],
      "payable": false,
      "stateMutability": "view",
      "type": "function"
    },
    {
      "constant": true,
      "inputs": [],
      "name": "liquidityPoolV2ConverterAddress",
      "outputs": [
        {
          "internalType": "address",
          "name": "",
          "type": "address"
        }
      ],
      "payable": false,
      "stateMutability": "view",
      "type": "function"
    },
    {
      "constant": true,
      "inputs": [],
      "name": "poolTokenAddress",
      "outputs": [
        {
          "internalType": "address",
          "name": "",
          "type": "address"
        }
      ],
      "payable": false,
      "stateMutability": "view",
      "type": "function"
    },
    {
      "constant": true,
      "inputs": [],
      "name": "sovrynSwapNetworkAddress",
      "outputs": [
        {
          "internalType": "address",
          "name": "",
          "type": "address"
        }
      ],
      "payable": false,
      "stateMutability": "view",
      "type": "function"
    },
    {
      "constant": true,
      "inputs": [],
      "name": "wrbtcTokenAddress",
      "outputs": [
        {
          "internalType": "address",
          "name": "",
          "type": "address"
        }
      ],
      "payable": false,
      "stateMutability": "view",
      "type": "function"
    },
    {
      "constant": false,
      "inputs": [
        {
          "internalType": "uint256",
          "name": "_amount",
          "type": "uint256"
        },
        {
          "internalType": "uint256",
          "name": "_minReturn",
          "type": "uint256"
        }
      ],
      "name": "addLiquidity",
      "outputs": [
        {
          "internalType": "uint256",
          "name": "",
          "type": "uint256"
        }
      ],
      "payable": true,
      "stateMutability": "payable",
      "type": "function"
    },
    {
      "constant": false,
      "inputs": [
        {
          "internalType": "uint256",
          "name": "_amount",
          "type": "uint256"
        },
        {
          "internalType": "uint256",
          "name": "_minReturn",
          "type": "uint256"
        }
      ],
      "name": "removeLiquidity",
      "outputs": [
        {
          "internalType": "uint256",
          "name": "",
          "type": "uint256"
        }
      ],
      "payable": false,
      "stateMutability": "nonpayable",
      "type": "function"
    },
    {
      "constant": false,
      "inputs": [
        {
          "internalType": "contract IERC20Token[]",
          "name": "_path",
          "type": "address[]"
        },
        {
          "internalType": "uint256",
          "name": "_amount",
          "type": "uint256"
        },
        {
          "internalType": "uint256",
          "name": "_minReturn",
          "type": "uint256"
        }
      ],
      "name": "convertByPath",
      "outputs": [
        {
          "internalType": "uint256",
          "name": "",
          "type": "uint256"
        }
      ],
      "payable": true,
      "stateMutability": "payable",
      "type": "function"
    }
  ],
  "bytecode": "0x60806040523480156200001157600080fd5b5060405162001dad38038062001dad833981810160405260a08110156200003757600080fd5b810190808051906020019092919080519060200190929190805190602001909291908051906020019092919080519060200190929190505050846200009d8173ffffffffffffffffffffffffffffffffffffffff16620006d360201b620015ca1760201c565b62000110576040517f08c379a000000000000000000000000000000000000000000000000000000000815260040180806020018281038252601d8152602001807f5468652061646472657373206973206e6f74206120636f6e747261637400000081525060200191505060405180910390fd5b846200013d8173ffffffffffffffffffffffffffffffffffffffff16620006d360201b620015ca1760201c565b620001b0576040517f08c379a000000000000000000000000000000000000000000000000000000000815260040180806020018281038252601d8152602001807f5468652061646472657373206973206e6f74206120636f6e747261637400000081525060200191505060405180910390fd5b84620001dd8173ffffffffffffffffffffffffffffffffffffffff16620006d360201b620015ca1760201c565b62000250576040517f08c379a000000000000000000000000000000000000000000000000000000000815260040180806020018281038252601d8152602001807f5468652061646472657373206973206e6f74206120636f6e747261637400000081525060200191505060405180910390fd5b846200027d8173ffffffffffffffffffffffffffffffffffffffff16620006d360201b620015ca1760201c565b620002f0576040517f08c379a000000000000000000000000000000000000000000000000000000000815260040180806020018281038252601d8152602001807f5468652061646472657373206973206e6f74206120636f6e747261637400000081525060200191505060405180910390fd5b846200031d8173ffffffffffffffffffffffffffffffffffffffff16620006d360201b620015ca1760201c565b62000390576040517f08c379a000000000000000000000000000000000000000000000000000000000815260040180806020018281038252601d8152602001807f5468652061646472657373206973206e6f74206120636f6e747261637400000081525060200191505060405180910390fd5b89600560006101000a81548173ffffffffffffffffffffffffffffffffffffffff021916908373ffffffffffffffffffffffffffffffffffffffff16021790555088600660006101000a81548173ffffffffffffffffffffffffffffffffffffffff021916908373ffffffffffffffffffffffffffffffffffffffff16021790555087600760006101000a81548173ffffffffffffffffffffffffffffffffffffffff021916908373ffffffffffffffffffffffffffffffffffffffff16021790555086600860006101000a81548173ffffffffffffffffffffffffffffffffffffffff021916908373ffffffffffffffffffffffffffffffffffffffff16021790555085600960006101000a81548173ffffffffffffffffffffffffffffffffffffffff021916908373ffffffffffffffffffffffffffffffffffffffff160217905550600560009054906101000a900473ffffffffffffffffffffffffffffffffffffffff166000806101000a81548173ffffffffffffffffffffffffffffffffffffffff021916908373ffffffffffffffffffffffffffffffffffffffff160217905550600660009054906101000a900473ffffffffffffffffffffffffffffffffffffffff16600160006101000a81548173ffffffffffffffffffffffffffffffffffffffff021916908373ffffffffffffffffffffffffffffffffffffffff160217905550600760009054906101000a900473ffffffffffffffffffffffffffffffffffffffff16600260006101000a81548173ffffffffffffffffffffffffffffffffffffffff021916908373ffffffffffffffffffffffffffffffffffffffff160217905550600860009054906101000a900473ffffffffffffffffffffffffffffffffffffffff16600360006101000a81548173ffffffffffffffffffffffffffffffffffffffff021916908373ffffffffffffffffffffffffffffffffffffffff160217905550600960009054906101000a900473ffffffffffffffffffffffffffffffffffffffff16600460006101000a81548173ffffffffffffffffffffffffffffffffffffffff021916908373ffffffffffffffffffffffffffffffffffffffff160217905550505050505050505050506200071f565b60008060007fc5d2460186f7233c927e7db2dcc703c0e500b653ca82273b7bfad8045d85a47060001b9050833f91508082141580156200071657506000801b8214155b92505050919050565b61167e806200072f6000396000f3fe60806040526004361061007a5760003560e01c80639cd441da1161004e5780639cd441da146101d85780639d7de6b314610224578063b37a48311461027d578063bf1761301461035d5761007a565b80624291ed1461007c5780632f6b600d146100d357806343fe0f0d1461012a5780634c4d757114610181575b005b34801561008857600080fd5b506100916103b4565b604051808273ffffffffffffffffffffffffffffffffffffffff1673ffffffffffffffffffffffffffffffffffffffff16815260200191505060405180910390f35b3480156100df57600080fd5b506100e86103da565b604051808273ffffffffffffffffffffffffffffffffffffffff1673ffffffffffffffffffffffffffffffffffffffff16815260200191505060405180910390f35b34801561013657600080fd5b5061013f610400565b604051808273ffffffffffffffffffffffffffffffffffffffff1673ffffffffffffffffffffffffffffffffffffffff16815260200191505060405180910390f35b34801561018d57600080fd5b50610196610426565b604051808273ffffffffffffffffffffffffffffffffffffffff1673ffffffffffffffffffffffffffffffffffffffff16815260200191505060405180910390f35b61020e600480360360408110156101ee57600080fd5b81019080803590602001909291908035906020019092919050505061044c565b6040518082815260200191505060405180910390f35b34801561023057600080fd5b506102676004803603604081101561024757600080fd5b810190808035906020019092919080359060200190929190505050610931565b6040518082815260200191505060405180910390f35b6103476004803603606081101561029357600080fd5b81019080803590602001906401000000008111156102b057600080fd5b8201836020820111156102c257600080fd5b803590602001918460208302840111640100000000831117156102e457600080fd5b919080806020026020016040519081016040528093929190818152602001838360200280828437600081840152601f19601f8201169050808301925050505050505091929192908035906020019092919080359060200190929190505050610c48565b6040518082815260200191505060405180910390f35b34801561036957600080fd5b506103726115a4565b604051808273ffffffffffffffffffffffffffffffffffffffff1673ffffffffffffffffffffffffffffffffffffffff16815260200191505060405180910390f35b600960009054906101000a900473ffffffffffffffffffffffffffffffffffffffff1681565b600560009054906101000a900473ffffffffffffffffffffffffffffffffffffffff1681565b600860009054906101000a900473ffffffffffffffffffffffffffffffffffffffff1681565b600760009054906101000a900473ffffffffffffffffffffffffffffffffffffffff1681565b60003483146104a6576040517f08c379a00000000000000000000000000000000000000000000000000000000081526004018080602001828103825260348152602001806116166034913960400191505060405180910390fd5b6000600560009054906101000a900473ffffffffffffffffffffffffffffffffffffffff1673ffffffffffffffffffffffffffffffffffffffff16846040516024016040516020818303038152906040527fd0e30db0000000000000000000000000000000000000000000000000000000007bffffffffffffffffffffffffffffffffffffffffffffffffffffffff19166020820180517bffffffffffffffffffffffffffffffffffffffffffffffffffffffff83818316178352505050506040518082805190602001908083835b602083106105985780518252602082019150602081019050602083039250610575565b6001836020036101000a03801982511681845116808217855250505050505090500191505060006040518083038185875af1925050503d80600081146105fa576040519150601f19603f3d011682016040523d82523d6000602084013e6105ff565b606091505b505090508061060d57600080fd5b60008060009054906101000a900473ffffffffffffffffffffffffffffffffffffffff1673ffffffffffffffffffffffffffffffffffffffff1663095ea7b3600660009054906101000a900473ffffffffffffffffffffffffffffffffffffffff16876040518363ffffffff1660e01b8152600401808373ffffffffffffffffffffffffffffffffffffffff1673ffffffffffffffffffffffffffffffffffffffff16815260200182815260200192505050602060405180830381600087803b1580156106d957600080fd5b505af11580156106ed573d6000803e3d6000fd5b505050506040513d602081101561070357600080fd5b810190808051906020019092919050505090508061072057600080fd5b6000600160009054906101000a900473ffffffffffffffffffffffffffffffffffffffff1673ffffffffffffffffffffffffffffffffffffffff166355776b77600560009054906101000a900473ffffffffffffffffffffffffffffffffffffffff1688886040518463ffffffff1660e01b8152600401808473ffffffffffffffffffffffffffffffffffffffff1673ffffffffffffffffffffffffffffffffffffffff1681526020018381526020018281526020019350505050602060405180830381600087803b1580156107f557600080fd5b505af1158015610809573d6000803e3d6000fd5b505050506040513d602081101561081f57600080fd5b810190808051906020019092919050505090506000600260009054906101000a900473ffffffffffffffffffffffffffffffffffffffff1673ffffffffffffffffffffffffffffffffffffffff1663a9059cbb33846040518363ffffffff1660e01b8152600401808373ffffffffffffffffffffffffffffffffffffffff1673ffffffffffffffffffffffffffffffffffffffff16815260200182815260200192505050602060405180830381600087803b1580156108dd57600080fd5b505af11580156108f1573d6000803e3d6000fd5b505050506040513d602081101561090757600080fd5b810190808051906020019092919050505090508061092457600080fd5b8194505050505092915050565b600080600260009054906101000a900473ffffffffffffffffffffffffffffffffffffffff1673ffffffffffffffffffffffffffffffffffffffff166323b872dd3330876040518463ffffffff1660e01b8152600401808473ffffffffffffffffffffffffffffffffffffffff1673ffffffffffffffffffffffffffffffffffffffff1681526020018373ffffffffffffffffffffffffffffffffffffffff1673ffffffffffffffffffffffffffffffffffffffff1681526020018281526020019350505050602060405180830381600087803b158015610a1157600080fd5b505af1158015610a25573d6000803e3d6000fd5b505050506040513d6020811015610a3b57600080fd5b8101908080519060200190929190505050905080610a5857600080fd5b6000600160009054906101000a900473ffffffffffffffffffffffffffffffffffffffff1673ffffffffffffffffffffffffffffffffffffffff1663e38192e3600760009054906101000a900473ffffffffffffffffffffffffffffffffffffffff1687876040518463ffffffff1660e01b8152600401808473ffffffffffffffffffffffffffffffffffffffff1673ffffffffffffffffffffffffffffffffffffffff1681526020018381526020018281526020019350505050602060405180830381600087803b158015610b2d57600080fd5b505af1158015610b41573d6000803e3d6000fd5b505050506040513d6020811015610b5757600080fd5b810190808051906020019092919050505090506000809054906101000a900473ffffffffffffffffffffffffffffffffffffffff1673ffffffffffffffffffffffffffffffffffffffff16632e1a7d4d826040518263ffffffff1660e01b815260040180828152602001915050600060405180830381600087803b158015610bde57600080fd5b505af1158015610bf2573d6000803e3d6000fd5b505050503373ffffffffffffffffffffffffffffffffffffffff166108fc829081150290604051600060405180830381858888f19350505050158015610c3c573d6000803e3d6000fd5b50809250505092915050565b60008034146110a457348314610ca9576040517f08c379a00000000000000000000000000000000000000000000000000000000081526004018080602001828103825260348152602001806116166034913960400191505060405180910390fd5b6000600560009054906101000a900473ffffffffffffffffffffffffffffffffffffffff1673ffffffffffffffffffffffffffffffffffffffff16846040516024016040516020818303038152906040527fd0e30db0000000000000000000000000000000000000000000000000000000007bffffffffffffffffffffffffffffffffffffffffffffffffffffffff19166020820180517bffffffffffffffffffffffffffffffffffffffffffffffffffffffff83818316178352505050506040518082805190602001908083835b60208310610d9b5780518252602082019150602081019050602083039250610d78565b6001836020036101000a03801982511681845116808217855250505050505090500191505060006040518083038185875af1925050503d8060008114610dfd576040519150601f19603f3d011682016040523d82523d6000602084013e610e02565b606091505b5050905080610e1057600080fd5b60008060009054906101000a900473ffffffffffffffffffffffffffffffffffffffff1673ffffffffffffffffffffffffffffffffffffffff1663095ea7b3600860009054906101000a900473ffffffffffffffffffffffffffffffffffffffff16876040518363ffffffff1660e01b8152600401808373ffffffffffffffffffffffffffffffffffffffff1673ffffffffffffffffffffffffffffffffffffffff16815260200182815260200192505050602060405180830381600087803b158015610edc57600080fd5b505af1158015610ef0573d6000803e3d6000fd5b505050506040513d6020811015610f0657600080fd5b8101908080519060200190929190505050905080610f2357600080fd5b6000600360009054906101000a900473ffffffffffffffffffffffffffffffffffffffff1673ffffffffffffffffffffffffffffffffffffffff1663b77d239b888888336000806040518763ffffffff1660e01b815260040180806020018781526020018681526020018573ffffffffffffffffffffffffffffffffffffffff1673ffffffffffffffffffffffffffffffffffffffff1681526020018473ffffffffffffffffffffffffffffffffffffffff1673ffffffffffffffffffffffffffffffffffffffff168152602001838152602001828103825288818151815260200191508051906020019060200280838360005b83811015611032578082015181840152602081019050611017565b50505050905001975050505050505050602060405180830381600087803b15801561105c57600080fd5b505af1158015611070573d6000803e3d6000fd5b505050506040513d602081101561108657600080fd5b8101908080519060200190929190505050905080935050505061159d565b600460009054906101000a900473ffffffffffffffffffffffffffffffffffffffff1673ffffffffffffffffffffffffffffffffffffffff16846000815181106110ea57fe5b602002602001015173ffffffffffffffffffffffffffffffffffffffff16141561159c576000600460009054906101000a900473ffffffffffffffffffffffffffffffffffffffff1673ffffffffffffffffffffffffffffffffffffffff166323b872dd3330876040518463ffffffff1660e01b8152600401808473ffffffffffffffffffffffffffffffffffffffff1673ffffffffffffffffffffffffffffffffffffffff1681526020018373ffffffffffffffffffffffffffffffffffffffff1673ffffffffffffffffffffffffffffffffffffffff1681526020018281526020019350505050602060405180830381600087803b1580156111ed57600080fd5b505af1158015611201573d6000803e3d6000fd5b505050506040513d602081101561121757600080fd5b810190808051906020019092919050505090508061123457600080fd5b6000600460009054906101000a900473ffffffffffffffffffffffffffffffffffffffff1673ffffffffffffffffffffffffffffffffffffffff1663095ea7b3600860009054906101000a900473ffffffffffffffffffffffffffffffffffffffff16876040518363ffffffff1660e01b8152600401808373ffffffffffffffffffffffffffffffffffffffff1673ffffffffffffffffffffffffffffffffffffffff16815260200182815260200192505050602060405180830381600087803b15801561130157600080fd5b505af1158015611315573d6000803e3d6000fd5b505050506040513d602081101561132b57600080fd5b810190808051906020019092919050505090508061134857600080fd5b6000600360009054906101000a900473ffffffffffffffffffffffffffffffffffffffff1673ffffffffffffffffffffffffffffffffffffffff1663b77d239b888888306000806040518763ffffffff1660e01b815260040180806020018781526020018681526020018573ffffffffffffffffffffffffffffffffffffffff1673ffffffffffffffffffffffffffffffffffffffff1681526020018473ffffffffffffffffffffffffffffffffffffffff1673ffffffffffffffffffffffffffffffffffffffff168152602001838152602001828103825288818151815260200191508051906020019060200280838360005b8381101561145757808201518184015260208101905061143c565b50505050905001975050505050505050602060405180830381600087803b15801561148157600080fd5b505af1158015611495573d6000803e3d6000fd5b505050506040513d60208110156114ab57600080fd5b810190808051906020019092919050505090506000809054906101000a900473ffffffffffffffffffffffffffffffffffffffff1673ffffffffffffffffffffffffffffffffffffffff16632e1a7d4d826040518263ffffffff1660e01b815260040180828152602001915050600060405180830381600087803b15801561153257600080fd5b505af1158015611546573d6000803e3d6000fd5b505050503373ffffffffffffffffffffffffffffffffffffffff166108fc829081150290604051600060405180830381858888f19350505050158015611590573d6000803e3d6000fd5b5080935050505061159d565b5b9392505050565b600660009054906101000a900473ffffffffffffffffffffffffffffffffffffffff1681565b60008060007fc5d2460186f7233c927e7db2dcc703c0e500b653ca82273b7bfad8045d85a47060001b9050833f915080821415801561160c57506000801b8214155b9250505091905056fe5468652070726f766964656420616d6f756e742073686f756c64206265206964656e746963616c20746f206d73672e76616c7565a265627a7a7231582001a6556da1b48df5f1d71be8dcf0310c132471228828360e3e31376ce89c957464736f6c63430005100032",
  "source": "pragma solidity >=0.5.0 <0.6.0;\n\nimport \"./openzeppelin/Address.sol\";\nimport \"./interfaces/IWrbtcERC20.sol\";\nimport \"./interfaces/ILiquidityPoolV2Converter.sol\";\nimport \"./interfaces/ISmartToken.sol\";\nimport \"./interfaces/ISovrynSwapNetwork.sol\";\nimport \"./interfaces/IERC20Token.sol\";\n\ncontract RBTCWrapperProxy{\n    \n    using Address for address;\n\n    IWrbtcERC20 wrbtc;\n    ILiquidityPoolV2Converter liquidityPoolV2Converter;\n    ISmartToken poolToken;\n    ISovrynSwapNetwork sovrynSwapNetwork;\n    IERC20Token docToken;\n    \n    address public wrbtcTokenAddress;\n    address public liquidityPoolV2ConverterAddress;\n    address public poolTokenAddress;\n    address public sovrynSwapNetworkAddress;\n    address public docTokenAddress;\n    \n    /**\n     * @dev To check if ddress is contract address \n     */\n    modifier checkAddress(address address_) {\n        require(address_.isContract(), \"The address is not a contract\");\n        _;\n    }\n    \n    constructor (\n        address _wrbtcTokenAddress, \n        address _liquidityPoolV2ConverterAddress, \n        address _poolTokenAddress,\n        address _sovrynSwapNetworkAddress,\n        address _docTokenAddress\n        ) \n        public \n        checkAddress(_wrbtcTokenAddress)\n        checkAddress(_liquidityPoolV2ConverterAddress)\n        checkAddress(_poolTokenAddress)\n        checkAddress(_sovrynSwapNetworkAddress)\n        checkAddress(_docTokenAddress)\n        {\n            wrbtcTokenAddress = _wrbtcTokenAddress;\n            liquidityPoolV2ConverterAddress = _liquidityPoolV2ConverterAddress;\n            poolTokenAddress = _poolTokenAddress;\n            sovrynSwapNetworkAddress = _sovrynSwapNetworkAddress;\n            docTokenAddress = _docTokenAddress;\n\n            wrbtc = IWrbtcERC20(wrbtcTokenAddress);\n            liquidityPoolV2Converter = ILiquidityPoolV2Converter(liquidityPoolV2ConverterAddress);\n            poolToken = ISmartToken(poolTokenAddress);\n            sovrynSwapNetwork = ISovrynSwapNetwork(sovrynSwapNetworkAddress);\n            docToken = IERC20Token(docTokenAddress);\n    }\n\n    function() external payable { }\n\n    /**\n     * @dev  \n     * The process:\n     * 1.Accepts RBTC\n     * 2.Sends RBTC to WRBTC contract in order to wrap RBTC to WRBTC\n     * 3.Calls 'addLiquidity' on LiquidityPoolConverterV2 contract\n     * 4.Transfers pool tokens to user\n     * \n     * @param _amount       amount of liquidity to add\n     * @param _minReturn    minimum return-amount of reserve tokens\n     *\n     * @return amount of pool tokens minted\n     */\n    function addLiquidity(uint256 _amount, uint256 _minReturn) payable public returns(uint256) {\n        require(_amount == msg.value, \"The provided amount should be identical to msg.value\");\n\n        (bool successOfDeposit, ) = wrbtcTokenAddress.call.value(_amount)(abi.encodeWithSignature(\"deposit()\"));\n        require(successOfDeposit);\n\n        bool successOfApprove = wrbtc.approve(liquidityPoolV2ConverterAddress, _amount);\n        require(successOfApprove);\n\n        uint256 poolTokenAmount = liquidityPoolV2Converter.addLiquidity(IERC20Token(wrbtcTokenAddress), _amount, _minReturn);\n        \n        bool successOfTransfer = poolToken.transfer(msg.sender, poolTokenAmount);\n        require(successOfTransfer);\n\n        return poolTokenAmount;\n    }\n    \n    /**\n     * @notice \n     * Before calling this function to remove liquidity, users need approve this contract to be able to spend or transfer their pool tokens\n     *\n     * @dev  \n     * The process:     \n     * 1.Transfers pool tokens to this contract\n     * 2.Calls 'removeLiquidity' on LiquidityPoolConverterV2 contract\n     * 3.Calls 'withdraw' on WRBTC contract in order to unwrap WRBTC to RBTC\n     * 4.Sneds RBTC to user\n     * \n     * @param _amount       amount of pool tokens to burn\n     * @param _minReturn    minimum return-amount of reserve tokens\n     * \n     * @return amount of WRBTC unwrapped to RBTC\n     */\n    function removeLiquidity(uint256 _amount, uint256 _minReturn) public returns(uint256) {\n        bool successOfTransferFrom = poolToken.transferFrom(msg.sender, address(this), _amount);\n        require(successOfTransferFrom);\n\n        uint256 reserveAmount = liquidityPoolV2Converter.removeLiquidity(ISmartToken(poolTokenAddress), _amount, _minReturn);\n        \n        wrbtc.withdraw(reserveAmount);\n        \n        msg.sender.transfer(reserveAmount);\n\n        return reserveAmount;\n    }\n    \n    /**\n     * @notice\n     * Before calling this function to swap DoC to RBTC, users need approve this contract to be able to spend or transfer their DoC tokens\n     * \n     * @param _path         conversion path between two tokens in the network\n     * @param _amount       amount to convert from, in the source token\n     * @param _minReturn    if the conversion results in an amount smaller than the minimum return - it is cancelled, must be greater than zero\n     * \n     * @return amount of tokens received from the conversion\n     */\n    function convertByPath(IERC20Token[] memory _path, uint256 _amount, uint256 _minReturn) public payable returns(uint256) {\n        if (msg.value != 0) {\n            require(_amount == msg.value, \"The provided amount should be identical to msg.value\");\n\n            (bool successOfDeposit, ) = wrbtcTokenAddress.call.value(_amount)(abi.encodeWithSignature(\"deposit()\"));\n            require(successOfDeposit);\n\n            bool successOfApprove = wrbtc.approve(sovrynSwapNetworkAddress, _amount);\n            require(successOfApprove);\n\n            uint256 amount = sovrynSwapNetwork.convertByPath(_path, _amount, _minReturn, msg.sender, address(0), 0);\n\n            return amount;\n        }\n        else {\n            if (_path[0] == docToken) {\n                bool successOfTransferFrom = docToken.transferFrom(msg.sender, address(this), _amount);\n                require(successOfTransferFrom);\n\n                bool successOfApprove = docToken.approve(sovrynSwapNetworkAddress, _amount);\n                require(successOfApprove);\n\n                uint256 amount = sovrynSwapNetwork.convertByPath(_path, _amount, _minReturn, address(this), address(0), 0);\n\n                wrbtc.withdraw(amount);\n\n                msg.sender.transfer(amount);\n\n                return amount;\n            }\n        }        \n    }\n\n}",
  "sourcePath": "/Users/hsiang/Desktop/RBTCWrapperProxy/contracts/RBTCWrapperProxy.sol",
  "compiler": {
    "name": "solc",
    "version": "0.5.16+commit.9c3226ce.Emscripten.clang"
  },
  "schemaVersion": "3.2.2",
  "updatedAt": "2020-10-26T08:44:41.758Z",
  "networkType": "ethereum",
  "devdoc": {
    "methods": {
      "addLiquidity(uint256,uint256)": {
        "details": " The process: 1.Accepts RBTC 2.Sends RBTC to WRBTC contract in order to wrap RBTC to WRBTC 3.Calls 'addLiquidity' on LiquidityPoolConverterV2 contract 4.Transfers pool tokens to user ",
        "params": {
          "_amount": "amount of liquidity to add",
          "_minReturn": "minimum return-amount of reserve tokens"
        },
        "return": "amount of pool tokens minted"
      },
      "convertByPath(address[],uint256,uint256)": {
        "params": {
          "_amount": "amount to convert from, in the source token",
          "_minReturn": "if the conversion results in an amount smaller than the minimum return - it is cancelled, must be greater than zero ",
          "_path": "conversion path between two tokens in the network"
        },
        "return": "amount of tokens received from the conversion"
      },
      "removeLiquidity(uint256,uint256)": {
        "details": " The process:      1.Transfers pool tokens to this contract 2.Calls 'removeLiquidity' on LiquidityPoolConverterV2 contract 3.Calls 'withdraw' on WRBTC contract in order to unwrap WRBTC to RBTC 4.Sneds RBTC to user ",
        "params": {
          "_amount": "amount of pool tokens to burn",
          "_minReturn": "minimum return-amount of reserve tokens "
        },
        "return": "amount of WRBTC unwrapped to RBTC"
      }
    }
  },
  "userdoc": {
    "methods": {
      "convertByPath(address[],uint256,uint256)": {
        "notice": "Before calling this function to swap DoC to RBTC, users need approve this contract to be able to spend or transfer their DoC tokens "
      },
      "removeLiquidity(uint256,uint256)": {
        "notice": " Before calling this function to remove liquidity, users need approve this contract to be able to spend or transfer their pool tokens"
      }
    }
  }
}