{
  "contractName": "RBTCWrapperProxy",
  "abi": [
    {
      "inputs": [
        {
          "internalType": "address",
          "name": "_wrbtcTokenAddress",
          "type": "address"
        }
      ],
      "payable": false,
      "stateMutability": "nonpayable",
      "type": "constructor"
    },
    {
      "payable": true,
      "stateMutability": "payable",
      "type": "fallback"
    },
    {
      "constant": true,
      "inputs": [],
      "name": "liquidityPoolConverterAddress",
      "outputs": [
        {
          "internalType": "address",
          "name": "",
          "type": "address"
        }
      ],
      "payable": false,
      "stateMutability": "view",
      "type": "function"
    },
    {
      "constant": true,
      "inputs": [],
      "name": "poolTokenAddress",
      "outputs": [
        {
          "internalType": "address",
          "name": "",
          "type": "address"
        }
      ],
      "payable": false,
      "stateMutability": "view",
      "type": "function"
    },
    {
      "constant": true,
      "inputs": [],
      "name": "sovrynSwapNetworkAddress",
      "outputs": [
        {
          "internalType": "address",
          "name": "",
          "type": "address"
        }
      ],
      "payable": false,
      "stateMutability": "view",
      "type": "function"
    },
    {
      "constant": true,
      "inputs": [],
      "name": "wrbtcTokenAddress",
      "outputs": [
        {
          "internalType": "address",
          "name": "",
          "type": "address"
        }
      ],
      "payable": false,
      "stateMutability": "view",
      "type": "function"
    },
    {
      "constant": false,
      "inputs": [
        {
          "internalType": "address",
          "name": "_liquidityPoolConverterAddress",
          "type": "address"
        },
        {
          "internalType": "address",
          "name": "_poolTokenAddress",
          "type": "address"
        },
        {
          "internalType": "uint256",
          "name": "_amount",
          "type": "uint256"
        },
        {
          "internalType": "uint256",
          "name": "_minReturn",
          "type": "uint256"
        }
      ],
      "name": "addLiquidity",
      "outputs": [
        {
          "internalType": "uint256",
          "name": "",
          "type": "uint256"
        }
      ],
      "payable": true,
      "stateMutability": "payable",
      "type": "function"
    },
    {
      "constant": false,
      "inputs": [
        {
          "internalType": "address",
          "name": "_liquidityPoolConverterAddress",
          "type": "address"
        },
        {
          "internalType": "address",
          "name": "_poolTokenAddress",
          "type": "address"
        },
        {
          "internalType": "uint256",
          "name": "_amount",
          "type": "uint256"
        },
        {
          "internalType": "uint256",
          "name": "_minReturn",
          "type": "uint256"
        }
      ],
      "name": "removeLiquidity",
      "outputs": [
        {
          "internalType": "uint256",
          "name": "",
          "type": "uint256"
        }
      ],
      "payable": false,
      "stateMutability": "nonpayable",
      "type": "function"
    },
    {
      "constant": false,
      "inputs": [
        {
          "internalType": "address",
          "name": "_sovrynSwapNetworkAddress",
          "type": "address"
        },
        {
          "internalType": "contract IERC20Token[]",
          "name": "_path",
          "type": "address[]"
        },
        {
          "internalType": "uint256",
          "name": "_amount",
          "type": "uint256"
        },
        {
          "internalType": "uint256",
          "name": "_minReturn",
          "type": "uint256"
        }
      ],
      "name": "convertByPath",
      "outputs": [
        {
          "internalType": "uint256",
          "name": "",
          "type": "uint256"
        }
      ],
      "payable": true,
      "stateMutability": "payable",
      "type": "function"
    }
  ],
  "bytecode": "0x60806040523480156200001157600080fd5b506040516200204838038062002048833981810160405260208110156200003757600080fd5b810190808051906020019092919050505080620000758173ffffffffffffffffffffffffffffffffffffffff166200019360201b62001d5a1760201c565b620000e8576040517f08c379a000000000000000000000000000000000000000000000000000000000815260040180806020018281038252601d8152602001807f5468652061646472657373206973206e6f74206120636f6e747261637400000081525060200191505060405180910390fd5b81600560006101000a81548173ffffffffffffffffffffffffffffffffffffffff021916908373ffffffffffffffffffffffffffffffffffffffff160217905550600560009054906101000a900473ffffffffffffffffffffffffffffffffffffffff166000806101000a81548173ffffffffffffffffffffffffffffffffffffffff021916908373ffffffffffffffffffffffffffffffffffffffff1602179055505050620001df565b60008060007fc5d2460186f7233c927e7db2dcc703c0e500b653ca82273b7bfad8045d85a47060001b9050833f9150808214158015620001d657506000801b8214155b92505050919050565b611e5980620001ef6000396000f3fe6080604052600436106100705760003560e01c806343fe0f0d1161004e57806343fe0f0d146101b95780634c4d757114610210578063991f03d214610267578063cf6c62ea1461036757610070565b80632800a17c146100725780632f6b600d146100c95780633ee7f9d314610120575b005b34801561007e57600080fd5b506100876103f3565b604051808273ffffffffffffffffffffffffffffffffffffffff1673ffffffffffffffffffffffffffffffffffffffff16815260200191505060405180910390f35b3480156100d557600080fd5b506100de610419565b604051808273ffffffffffffffffffffffffffffffffffffffff1673ffffffffffffffffffffffffffffffffffffffff16815260200191505060405180910390f35b34801561012c57600080fd5b506101a36004803603608081101561014357600080fd5b81019080803573ffffffffffffffffffffffffffffffffffffffff169060200190929190803573ffffffffffffffffffffffffffffffffffffffff169060200190929190803590602001909291908035906020019092919050505061043f565b6040518082815260200191505060405180910390f35b3480156101c557600080fd5b506101ce6109c7565b604051808273ffffffffffffffffffffffffffffffffffffffff1673ffffffffffffffffffffffffffffffffffffffff16815260200191505060405180910390f35b34801561021c57600080fd5b506102256109ed565b604051808273ffffffffffffffffffffffffffffffffffffffff1673ffffffffffffffffffffffffffffffffffffffff16815260200191505060405180910390f35b6103516004803603608081101561027d57600080fd5b81019080803573ffffffffffffffffffffffffffffffffffffffff169060200190929190803590602001906401000000008111156102ba57600080fd5b8201836020820111156102cc57600080fd5b803590602001918460208302840111640100000000831117156102ee57600080fd5b919080806020026020016040519081016040528093929190818152602001838360200280828437600081840152601f19601f8201169050808301925050505050505091929192908035906020019092919080359060200190929190505050610a13565b6040518082815260200191505060405180910390f35b6103dd6004803603608081101561037d57600080fd5b81019080803573ffffffffffffffffffffffffffffffffffffffff169060200190929190803573ffffffffffffffffffffffffffffffffffffffff1690602001909291908035906020019092919080359060200190929190505050611605565b6040518082815260200191505060405180910390f35b600660009054906101000a900473ffffffffffffffffffffffffffffffffffffffff1681565b600560009054906101000a900473ffffffffffffffffffffffffffffffffffffffff1681565b6000846104618173ffffffffffffffffffffffffffffffffffffffff16611d5a565b6104d3576040517f08c379a000000000000000000000000000000000000000000000000000000000815260040180806020018281038252601d8152602001807f5468652061646472657373206973206e6f74206120636f6e747261637400000081525060200191505060405180910390fd5b846104f38173ffffffffffffffffffffffffffffffffffffffff16611d5a565b610565576040517f08c379a000000000000000000000000000000000000000000000000000000000815260040180806020018281038252601d8152602001807f5468652061646472657373206973206e6f74206120636f6e747261637400000081525060200191505060405180910390fd5b86600660006101000a81548173ffffffffffffffffffffffffffffffffffffffff021916908373ffffffffffffffffffffffffffffffffffffffff16021790555085600760006101000a81548173ffffffffffffffffffffffffffffffffffffffff021916908373ffffffffffffffffffffffffffffffffffffffff160217905550600660009054906101000a900473ffffffffffffffffffffffffffffffffffffffff16600160006101000a81548173ffffffffffffffffffffffffffffffffffffffff021916908373ffffffffffffffffffffffffffffffffffffffff160217905550600760009054906101000a900473ffffffffffffffffffffffffffffffffffffffff16600260006101000a81548173ffffffffffffffffffffffffffffffffffffffff021916908373ffffffffffffffffffffffffffffffffffffffff1602179055506000600260009054906101000a900473ffffffffffffffffffffffffffffffffffffffff1673ffffffffffffffffffffffffffffffffffffffff166323b872dd3330896040518463ffffffff1660e01b8152600401808473ffffffffffffffffffffffffffffffffffffffff1673ffffffffffffffffffffffffffffffffffffffff1681526020018373ffffffffffffffffffffffffffffffffffffffff1673ffffffffffffffffffffffffffffffffffffffff1681526020018281526020019350505050602060405180830381600087803b15801561078c57600080fd5b505af11580156107a0573d6000803e3d6000fd5b505050506040513d60208110156107b657600080fd5b81019080805190602001909291905050509050806107d357600080fd5b6000600160009054906101000a900473ffffffffffffffffffffffffffffffffffffffff1673ffffffffffffffffffffffffffffffffffffffff1663e38192e3600260009054906101000a900473ffffffffffffffffffffffffffffffffffffffff1689896040518463ffffffff1660e01b8152600401808473ffffffffffffffffffffffffffffffffffffffff1673ffffffffffffffffffffffffffffffffffffffff1681526020018381526020018281526020019350505050602060405180830381600087803b1580156108a857600080fd5b505af11580156108bc573d6000803e3d6000fd5b505050506040513d60208110156108d257600080fd5b810190808051906020019092919050505090506000809054906101000a900473ffffffffffffffffffffffffffffffffffffffff1673ffffffffffffffffffffffffffffffffffffffff16632e1a7d4d826040518263ffffffff1660e01b815260040180828152602001915050600060405180830381600087803b15801561095957600080fd5b505af115801561096d573d6000803e3d6000fd5b505050503373ffffffffffffffffffffffffffffffffffffffff166108fc829081150290604051600060405180830381858888f193505050501580156109b7573d6000803e3d6000fd5b5080945050505050949350505050565b600860009054906101000a900473ffffffffffffffffffffffffffffffffffffffff1681565b600760009054906101000a900473ffffffffffffffffffffffffffffffffffffffff1681565b600084610a358173ffffffffffffffffffffffffffffffffffffffff16611d5a565b610aa7576040517f08c379a000000000000000000000000000000000000000000000000000000000815260040180806020018281038252601d8152602001807f5468652061646472657373206973206e6f74206120636f6e747261637400000081525060200191505060405180910390fd5b85600860006101000a81548173ffffffffffffffffffffffffffffffffffffffff021916908373ffffffffffffffffffffffffffffffffffffffff160217905550600860009054906101000a900473ffffffffffffffffffffffffffffffffffffffff16600360006101000a81548173ffffffffffffffffffffffffffffffffffffffff021916908373ffffffffffffffffffffffffffffffffffffffff1602179055506000341461106057600560009054906101000a900473ffffffffffffffffffffffffffffffffffffffff1673ffffffffffffffffffffffffffffffffffffffff1685600081518110610b9957fe5b602002602001015173ffffffffffffffffffffffffffffffffffffffff1614610c0d576040517f08c379a000000000000000000000000000000000000000000000000000000000815260040180806020018281038252602a815260200180611da6602a913960400191505060405180910390fd5b348414610c65576040517f08c379a0000000000000000000000000000000000000000000000000000000008152600401808060200182810382526034815260200180611df16034913960400191505060405180910390fd5b6000600560009054906101000a900473ffffffffffffffffffffffffffffffffffffffff1673ffffffffffffffffffffffffffffffffffffffff16856040516024016040516020818303038152906040527fd0e30db0000000000000000000000000000000000000000000000000000000007bffffffffffffffffffffffffffffffffffffffffffffffffffffffff19166020820180517bffffffffffffffffffffffffffffffffffffffffffffffffffffffff83818316178352505050506040518082805190602001908083835b60208310610d575780518252602082019150602081019050602083039250610d34565b6001836020036101000a03801982511681845116808217855250505050505090500191505060006040518083038185875af1925050503d8060008114610db9576040519150601f19603f3d011682016040523d82523d6000602084013e610dbe565b606091505b5050905080610dcc57600080fd5b60008060009054906101000a900473ffffffffffffffffffffffffffffffffffffffff1673ffffffffffffffffffffffffffffffffffffffff1663095ea7b3600860009054906101000a900473ffffffffffffffffffffffffffffffffffffffff16886040518363ffffffff1660e01b8152600401808373ffffffffffffffffffffffffffffffffffffffff1673ffffffffffffffffffffffffffffffffffffffff16815260200182815260200192505050602060405180830381600087803b158015610e9857600080fd5b505af1158015610eac573d6000803e3d6000fd5b505050506040513d6020811015610ec257600080fd5b8101908080519060200190929190505050905080610edf57600080fd5b6000600360009054906101000a900473ffffffffffffffffffffffffffffffffffffffff1673ffffffffffffffffffffffffffffffffffffffff1663b77d239b898989336000806040518763ffffffff1660e01b815260040180806020018781526020018681526020018573ffffffffffffffffffffffffffffffffffffffff1673ffffffffffffffffffffffffffffffffffffffff1681526020018473ffffffffffffffffffffffffffffffffffffffff1673ffffffffffffffffffffffffffffffffffffffff168152602001838152602001828103825288818151815260200191508051906020019060200280838360005b83811015610fee578082015181840152602081019050610fd3565b50505050905001975050505050505050602060405180830381600087803b15801561101857600080fd5b505af115801561102c573d6000803e3d6000fd5b505050506040513d602081101561104257600080fd5b810190808051906020019092919050505090508094505050506115fc565b600560009054906101000a900473ffffffffffffffffffffffffffffffffffffffff1673ffffffffffffffffffffffffffffffffffffffff16856001875103815181106110a957fe5b602002602001015173ffffffffffffffffffffffffffffffffffffffff161461111d576040517f08c379a0000000000000000000000000000000000000000000000000000000008152600401808060200182810382526021815260200180611dd06021913960400191505060405180910390fd5b8460008151811061112a57fe5b6020026020010151600460006101000a81548173ffffffffffffffffffffffffffffffffffffffff021916908373ffffffffffffffffffffffffffffffffffffffff1602179055506000600460009054906101000a900473ffffffffffffffffffffffffffffffffffffffff1673ffffffffffffffffffffffffffffffffffffffff166323b872dd3330886040518463ffffffff1660e01b8152600401808473ffffffffffffffffffffffffffffffffffffffff1673ffffffffffffffffffffffffffffffffffffffff1681526020018373ffffffffffffffffffffffffffffffffffffffff1673ffffffffffffffffffffffffffffffffffffffff1681526020018281526020019350505050602060405180830381600087803b15801561125157600080fd5b505af1158015611265573d6000803e3d6000fd5b505050506040513d602081101561127b57600080fd5b810190808051906020019092919050505090508061129857600080fd5b6000600460009054906101000a900473ffffffffffffffffffffffffffffffffffffffff1673ffffffffffffffffffffffffffffffffffffffff1663095ea7b3600860009054906101000a900473ffffffffffffffffffffffffffffffffffffffff16886040518363ffffffff1660e01b8152600401808373ffffffffffffffffffffffffffffffffffffffff1673ffffffffffffffffffffffffffffffffffffffff16815260200182815260200192505050602060405180830381600087803b15801561136557600080fd5b505af1158015611379573d6000803e3d6000fd5b505050506040513d602081101561138f57600080fd5b81019080805190602001909291905050509050806113ac57600080fd5b6000600360009054906101000a900473ffffffffffffffffffffffffffffffffffffffff1673ffffffffffffffffffffffffffffffffffffffff1663b77d239b898989306000806040518763ffffffff1660e01b815260040180806020018781526020018681526020018573ffffffffffffffffffffffffffffffffffffffff1673ffffffffffffffffffffffffffffffffffffffff1681526020018473ffffffffffffffffffffffffffffffffffffffff1673ffffffffffffffffffffffffffffffffffffffff168152602001838152602001828103825288818151815260200191508051906020019060200280838360005b838110156114bb5780820151818401526020810190506114a0565b50505050905001975050505050505050602060405180830381600087803b1580156114e557600080fd5b505af11580156114f9573d6000803e3d6000fd5b505050506040513d602081101561150f57600080fd5b810190808051906020019092919050505090506000809054906101000a900473ffffffffffffffffffffffffffffffffffffffff1673ffffffffffffffffffffffffffffffffffffffff16632e1a7d4d826040518263ffffffff1660e01b815260040180828152602001915050600060405180830381600087803b15801561159657600080fd5b505af11580156115aa573d6000803e3d6000fd5b505050503373ffffffffffffffffffffffffffffffffffffffff166108fc829081150290604051600060405180830381858888f193505050501580156115f4573d6000803e3d6000fd5b508094505050505b50949350505050565b6000846116278173ffffffffffffffffffffffffffffffffffffffff16611d5a565b611699576040517f08c379a000000000000000000000000000000000000000000000000000000000815260040180806020018281038252601d8152602001807f5468652061646472657373206973206e6f74206120636f6e747261637400000081525060200191505060405180910390fd5b846116b98173ffffffffffffffffffffffffffffffffffffffff16611d5a565b61172b576040517f08c379a000000000000000000000000000000000000000000000000000000000815260040180806020018281038252601d8152602001807f5468652061646472657373206973206e6f74206120636f6e747261637400000081525060200191505060405180910390fd5b348514611783576040517f08c379a0000000000000000000000000000000000000000000000000000000008152600401808060200182810382526034815260200180611df16034913960400191505060405180910390fd5b86600660006101000a81548173ffffffffffffffffffffffffffffffffffffffff021916908373ffffffffffffffffffffffffffffffffffffffff16021790555085600760006101000a81548173ffffffffffffffffffffffffffffffffffffffff021916908373ffffffffffffffffffffffffffffffffffffffff160217905550600660009054906101000a900473ffffffffffffffffffffffffffffffffffffffff16600160006101000a81548173ffffffffffffffffffffffffffffffffffffffff021916908373ffffffffffffffffffffffffffffffffffffffff160217905550600760009054906101000a900473ffffffffffffffffffffffffffffffffffffffff16600260006101000a81548173ffffffffffffffffffffffffffffffffffffffff021916908373ffffffffffffffffffffffffffffffffffffffff1602179055506000600560009054906101000a900473ffffffffffffffffffffffffffffffffffffffff1673ffffffffffffffffffffffffffffffffffffffff16866040516024016040516020818303038152906040527fd0e30db0000000000000000000000000000000000000000000000000000000007bffffffffffffffffffffffffffffffffffffffffffffffffffffffff19166020820180517bffffffffffffffffffffffffffffffffffffffffffffffffffffffff83818316178352505050506040518082805190602001908083835b602083106119bd578051825260208201915060208101905060208303925061199a565b6001836020036101000a03801982511681845116808217855250505050505090500191505060006040518083038185875af1925050503d8060008114611a1f576040519150601f19603f3d011682016040523d82523d6000602084013e611a24565b606091505b5050905080611a3257600080fd5b60008060009054906101000a900473ffffffffffffffffffffffffffffffffffffffff1673ffffffffffffffffffffffffffffffffffffffff1663095ea7b3600660009054906101000a900473ffffffffffffffffffffffffffffffffffffffff16896040518363ffffffff1660e01b8152600401808373ffffffffffffffffffffffffffffffffffffffff1673ffffffffffffffffffffffffffffffffffffffff16815260200182815260200192505050602060405180830381600087803b158015611afe57600080fd5b505af1158015611b12573d6000803e3d6000fd5b505050506040513d6020811015611b2857600080fd5b8101908080519060200190929190505050905080611b4557600080fd5b6000600160009054906101000a900473ffffffffffffffffffffffffffffffffffffffff1673ffffffffffffffffffffffffffffffffffffffff166355776b77600560009054906101000a900473ffffffffffffffffffffffffffffffffffffffff168a8a6040518463ffffffff1660e01b8152600401808473ffffffffffffffffffffffffffffffffffffffff1673ffffffffffffffffffffffffffffffffffffffff1681526020018381526020018281526020019350505050602060405180830381600087803b158015611c1a57600080fd5b505af1158015611c2e573d6000803e3d6000fd5b505050506040513d6020811015611c4457600080fd5b810190808051906020019092919050505090506000600260009054906101000a900473ffffffffffffffffffffffffffffffffffffffff1673ffffffffffffffffffffffffffffffffffffffff1663a9059cbb33846040518363ffffffff1660e01b8152600401808373ffffffffffffffffffffffffffffffffffffffff1673ffffffffffffffffffffffffffffffffffffffff16815260200182815260200192505050602060405180830381600087803b158015611d0257600080fd5b505af1158015611d16573d6000803e3d6000fd5b505050506040513d6020811015611d2c57600080fd5b8101908080519060200190929190505050905080611d4957600080fd5b819650505050505050949350505050565b60008060007fc5d2460186f7233c927e7db2dcc703c0e500b653ca82273b7bfad8045d85a47060001b9050833f9150808214158015611d9c57506000801b8214155b9250505091905056fe76616c7565206d6179206f6e6c792062652073656e7420666f72205752425443207472616e73666572734974206f6e6c7920636f756c64206265207377617070656420746f2057524254435468652070726f766964656420616d6f756e742073686f756c64206265206964656e746963616c20746f206d73672e76616c7565a265627a7a7231582038e6fd56cf5598c72f52580dd4101c21bf6c114dfa4c88459aa5c7828f6ccd5664736f6c63430005100032",
  "source": "pragma solidity >=0.5.0 <0.6.0;\n\nimport \"./openzeppelin/Address.sol\";\nimport \"./interfaces/IWrbtcERC20.sol\";\nimport \"./interfaces/ILiquidityPoolV2Converter.sol\";\nimport \"./interfaces/ISmartToken.sol\";\nimport \"./interfaces/ISovrynSwapNetwork.sol\";\nimport \"./interfaces/IERC20Token.sol\";\n\ncontract RBTCWrapperProxy{\n    \n    using Address for address;\n\n    IWrbtcERC20 wrbtc;\n    ILiquidityPoolV2Converter liquidityPoolConverter;\n    ISmartToken poolToken;\n    ISovrynSwapNetwork sovrynSwapNetwork;\n    IERC20Token token;\n    \n    address public wrbtcTokenAddress;\n    address public liquidityPoolConverterAddress;\n    address public poolTokenAddress;\n    address public sovrynSwapNetworkAddress;\n    \n    /**\n     * @dev To check if ddress is contract address \n     */\n    modifier checkAddress(address address_) {\n        require(address_.isContract(), \"The address is not a contract\");\n        _;\n    }\n    \n    constructor(address _wrbtcTokenAddress) public checkAddress(_wrbtcTokenAddress) {\n        wrbtcTokenAddress = _wrbtcTokenAddress;\n        wrbtc = IWrbtcERC20(wrbtcTokenAddress);        \n    }\n\n    function() external payable { }\n\n    /**\n     * @dev  \n     * The process:\n     * 1.Accepts RBTC\n     * 2.Sends RBTC to WRBTC contract in order to wrap RBTC to WRBTC\n     * 3.Calls 'addLiquidity' on LiquidityPoolConverter contract\n     * 4.Transfers pool tokens to user\n     * \n     * @param _liquidityPoolConverterAddress    address of LiquidityPoolConverter contract\n     * @param _poolTokenAddress                 address of pool token\n     * @param _amount                           amount of liquidity to add\n     * @param _minReturn                        minimum return-amount of reserve tokens\n     *\n     * @return amount of pool tokens minted\n     */\n    function addLiquidity(\n        address _liquidityPoolConverterAddress, \n        address _poolTokenAddress, \n        uint256 _amount, \n        uint256 _minReturn\n    )  \n        public\n        payable\n        checkAddress(_liquidityPoolConverterAddress)\n        checkAddress(_poolTokenAddress) \n        returns(uint256) \n    {\n        require(_amount == msg.value, \"The provided amount should be identical to msg.value\");\n\n        liquidityPoolConverterAddress = _liquidityPoolConverterAddress;\n        poolTokenAddress = _poolTokenAddress;\n        liquidityPoolConverter = ILiquidityPoolV2Converter(liquidityPoolConverterAddress);\n        poolToken = ISmartToken(poolTokenAddress);\n\n        (bool successOfDeposit, ) = wrbtcTokenAddress.call.value(_amount)(abi.encodeWithSignature(\"deposit()\"));\n        require(successOfDeposit);\n\n        bool successOfApprove = wrbtc.approve(liquidityPoolConverterAddress, _amount);\n        require(successOfApprove);\n\n        uint256 poolTokenAmount = liquidityPoolConverter.addLiquidity(IERC20Token(wrbtcTokenAddress), _amount, _minReturn);\n        \n        bool successOfTransfer = poolToken.transfer(msg.sender, poolTokenAmount);\n        require(successOfTransfer);\n\n        return poolTokenAmount;\n    }\n    \n    /**\n     * @notice \n     * Before calling this function to remove liquidity, users need approve this contract to be able to spend or transfer their pool tokens\n     *\n     * @dev  \n     * The process:     \n     * 1.Transfers pool tokens to this contract\n     * 2.Calls 'removeLiquidity' on LiquidityPoolConverter contract\n     * 3.Calls 'withdraw' on WRBTC contract in order to unwrap WRBTC to RBTC\n     * 4.Sneds RBTC to user\n     * \n     * @param _liquidityPoolConverterAddress    address of LiquidityPoolConverter contract\n     * @param _poolTokenAddress                 address of pool token\n     * @param _amount                           amount of pool tokens to burn\n     * @param _minReturn                        minimum return-amount of reserve tokens\n     * \n     * @return amount of WRBTC unwrapped to RBTC\n     */\n    function removeLiquidity(\n        address _liquidityPoolConverterAddress, \n        address _poolTokenAddress, \n        uint256 _amount, \n        uint256 _minReturn\n    )   \n        public \n        checkAddress(_liquidityPoolConverterAddress)\n        checkAddress(_poolTokenAddress) \n        returns(uint256) \n    {\n        liquidityPoolConverterAddress = _liquidityPoolConverterAddress;\n        poolTokenAddress = _poolTokenAddress;\n        liquidityPoolConverter = ILiquidityPoolV2Converter(liquidityPoolConverterAddress);\n        poolToken = ISmartToken(poolTokenAddress);\n\n        bool successOfTransferFrom = poolToken.transferFrom(msg.sender, address(this), _amount);\n        require(successOfTransferFrom);\n\n        uint256 reserveAmount = liquidityPoolConverter.removeLiquidity(poolToken, _amount, _minReturn);\n        \n        wrbtc.withdraw(reserveAmount);\n        \n        msg.sender.transfer(reserveAmount);\n\n        return reserveAmount;\n    }\n    \n    /**\n     * @notice\n     * Before calling this function to swap token to RBTC, users need approve this contract to be able to spend or transfer their tokens\n     *\n     * @param _sovrynSwapNetworkAddress    address of SovrynSwapNetwork contract\n     * @param _path                        conversion path between two tokens in the network\n     * @param _amount                      amount to convert from, in the source token\n     * @param _minReturn                   if the conversion results in an amount smaller than the minimum return - it is cancelled, must be greater than zero\n     * \n     * @return amount of tokens received from the conversion\n     */\n    function convertByPath(\n        address _sovrynSwapNetworkAddress,\n        IERC20Token[] memory _path, \n        uint256 _amount, \n        uint256 _minReturn\n    ) \n        public \n        payable\n        checkAddress(_sovrynSwapNetworkAddress)\n        returns(uint256) \n    {    \n        sovrynSwapNetworkAddress = _sovrynSwapNetworkAddress;\n        sovrynSwapNetwork = ISovrynSwapNetwork(sovrynSwapNetworkAddress);\n  \n        if (msg.value != 0) {\n            require(_path[0] == IERC20Token(wrbtcTokenAddress), \"value may only be sent for WRBTC transfers\");\n            require(_amount == msg.value, \"The provided amount should be identical to msg.value\");\n\n            (bool successOfDeposit, ) = wrbtcTokenAddress.call.value(_amount)(abi.encodeWithSignature(\"deposit()\"));\n            require(successOfDeposit);\n\n            bool successOfApprove = wrbtc.approve(sovrynSwapNetworkAddress, _amount);\n            require(successOfApprove);\n\n            uint256 amount = sovrynSwapNetwork.convertByPath(_path, _amount, _minReturn, msg.sender, address(0), 0);\n\n            return amount;\n        }\n        else {\n            require(_path[_path.length-1] == IERC20Token(wrbtcTokenAddress), \"It only could be swapped to WRBTC\");\n            \n            token = IERC20Token(_path[0]);\n\n            bool successOfTransferFrom = token.transferFrom(msg.sender, address(this), _amount);\n            require(successOfTransferFrom);\n\n            bool successOfApprove = token.approve(sovrynSwapNetworkAddress, _amount);\n            require(successOfApprove);\n                 \n            uint256 amount = sovrynSwapNetwork.convertByPath(_path, _amount, _minReturn, address(this), address(0), 0);\n\n            wrbtc.withdraw(amount);\n\n            msg.sender.transfer(amount);\n\n            return amount;\n        }        \n    }\n\n}",
  "sourcePath": "/Users/hsiang/Desktop/RBTCWrapperProxy/contracts/RBTCWrapperProxy.sol",
  "compiler": {
    "name": "solc",
    "version": "0.5.16+commit.9c3226ce.Emscripten.clang"
  },
  "schemaVersion": "3.2.2",
  "updatedAt": "2020-10-28T15:50:29.998Z",
  "networkType": "ethereum",
  "devdoc": {
    "methods": {
      "addLiquidity(address,address,uint256,uint256)": {
        "details": " The process: 1.Accepts RBTC 2.Sends RBTC to WRBTC contract in order to wrap RBTC to WRBTC 3.Calls 'addLiquidity' on LiquidityPoolConverter contract 4.Transfers pool tokens to user ",
        "params": {
          "_amount": "amount of liquidity to add",
          "_liquidityPoolConverterAddress": "address of LiquidityPoolConverter contract",
          "_minReturn": "minimum return-amount of reserve tokens",
          "_poolTokenAddress": "address of pool token"
        },
        "return": "amount of pool tokens minted"
      },
      "convertByPath(address,address[],uint256,uint256)": {
        "params": {
          "_amount": "amount to convert from, in the source token",
          "_minReturn": "if the conversion results in an amount smaller than the minimum return - it is cancelled, must be greater than zero ",
          "_path": "conversion path between two tokens in the network",
          "_sovrynSwapNetworkAddress": "address of SovrynSwapNetwork contract"
        },
        "return": "amount of tokens received from the conversion"
      },
      "removeLiquidity(address,address,uint256,uint256)": {
        "details": " The process:      1.Transfers pool tokens to this contract 2.Calls 'removeLiquidity' on LiquidityPoolConverter contract 3.Calls 'withdraw' on WRBTC contract in order to unwrap WRBTC to RBTC 4.Sneds RBTC to user ",
        "params": {
          "_amount": "amount of pool tokens to burn",
          "_liquidityPoolConverterAddress": "address of LiquidityPoolConverter contract",
          "_minReturn": "minimum return-amount of reserve tokens ",
          "_poolTokenAddress": "address of pool token"
        },
        "return": "amount of WRBTC unwrapped to RBTC"
      }
    }
  },
  "userdoc": {
    "methods": {
      "convertByPath(address,address[],uint256,uint256)": {
        "notice": "Before calling this function to swap token to RBTC, users need approve this contract to be able to spend or transfer their tokens"
      },
      "removeLiquidity(address,address,uint256,uint256)": {
        "notice": " Before calling this function to remove liquidity, users need approve this contract to be able to spend or transfer their pool tokens"
      }
    }
  }
}